:100000000C9438000C947D000C94B8010C945500AD
:100010000C9455000C9455000C9455000C9455000C
:100020000C9455000C9455000C9455000C945500FC
:100030000C9455000C9455000C9455000C945500EC
:100040000C9455000C9455000C9455000C945500DC
:100050000C9455000C9455000C9455000C945500CC
:100060000C9455000C9455000C9455000C945500BC
:1000700011241FBECFEFD4E0DEBFCDBF11E0A0E062
:10008000B1E0E6EFFAE002C005900D92A631B107AB
:10009000D9F721E0A6E1B1E001C01D92AC38B2076A
:1000A000E1F70E94F4010C9479050C940000CF93C1
:1000B000C82F0E9448014FEF60E680E60E944D0184
:1000C00041E061E08BE20E944D01CC2319F0C13088
:1000D00039F00BC040E460EE8FE00E944D0105C096
:1000E00040E060EE8FE00E944D0185B7826085BFE1
:1000F0008BB780648BBFCF9108951F920F920FB67C
:100100000F9211248F939F9381E090E090931701B9
:10011000809316019F918F910F900FBE0F901F90AB
:1001200018958F929F92AF92BF92CF92DF92EF92EB
:10013000FF920F931F93CF93DF93CDB7DEB72B972B
:100140000FB6F894DEBF0FBECDBF7C019E01255FC8
:100150003F4FFE0134961192E217F307E1F78091C9
:10016000160190911701892B71F48FEF9FEF9A83FD
:1001700089831B828BE0FE013196D70101900D929D
:100180008A95E1F74AC0109217011092160181E694
:100190000E942601A82E82E60E942601B12CAA0CFC
:1001A000BB1CAA0CBB1CAA0CBB1C82958695877035
:1001B000A80EB11C85E60E942601882E1816ECF4C4
:1001C000CC24C394D12CCC0EDD1E83E0C80ED11CF0
:1001D000C80CD11C87FCDA948E010C5F1F4F0F2EC8
:1001E000F6E69F2EF02D892D0E942601F8018193BD
:1001F0008F019394EC15FD05B1F740E061E08CE2CE
:100200000E944D01BA82A9828B828BE0FE01319659
:10021000D70101900D928A95E1F7C7012B960FB691
:10022000F894DEBF0FBECDBFDF91CF911F910F912C
:10023000FF90EF90DF90CF90BF90AF909F908F9006
:10024000089580911601909117010895CF93C82FBA
:1002500081E090E00E94810183E00E9473018C2F75
:100260000E9473010E947901C82F80E090E00E94F3
:1002700081018C2FCF91089581E090E00E9481014F
:1002800080EC0E94730180E090E00E94810108955B
:100290000E946B010E943C0108951F93CF93DF934E
:1002A000182FD62FC42F81E090E00E94810185E0B5
:1002B0000E947301812F0E9473018D2F0E94730190
:1002C0008C2F0E94730180E090E00E948101DF91F9
:1002D000CF911F910895BD9ABF9ABC9ABE986C9A0F
:1002E000699A6E9A08958FB9779BFECF80E090E06F
:1002F00008958FEF0E947301779BFECF8FB190E03E
:1003000008958130910511F4C4980895892B09F45A
:10031000C49A08955D9BFECF8CB908959C01442733
:1003200037FD4095542F60E070EB84E090E00E9430
:1003300053022150310930BD29B988E18AB986E8D4
:1003400080BD80E091E090938901809388010895B9
:100350008D5F809300148091180190911901892B71
:10036000D1F3109219011092180180910014089590
:100370001F920F920FB60F9211248F939F9381E0DB
:1003800090E090931901809318019F918F910F90A5
:100390000FBE0F901F90189581E090E00E94A80179
:1003A00090E0909365018093640182E090E00E9468
:1003B000A80190E090937B0180937A01089578944E
:1003C00085B7886085BF8BB780688BBF87B3817F17
:1003D00087BB0E94CC01F894089585B7806885BFDB
:1003E00080B7806280BF0895CF93DF93CDB7DEB72B
:1003F0002B970FB6F894DEBF0FBECDBF80E895E215
:100400000E948E010E94ED0181E00E9457000E942F
:10041000DF01789400E010E00F2EF8E8CF2EF3E132
:10042000DF2EF02D0F2EFEE0AF2EF1E0BF2EF02DCF
:1004300001C087010E942101892B89F0CE0101961C
:100440000E9491008A818F9389818F93BF92AF928E
:100450000E9489020F900F900F900F90EBCF7801C0
:100460008FEFE81AF80AC801B6010E943F02892BF3
:1004700001F782E191E00E949D028701DBCF97FBAB
:10048000072E16F4009407D077FD09D00E9475025C
:1004900007FC05D03EF4909581959F4F0895709587
:1004A00061957F4F0895A1E21A2EAA1BBB1BFD0187
:1004B0000DC0AA1FBB1FEE1FFF1FA217B307E40743
:1004C000F50720F0A21BB30BE40BF50B661F771F9B
:1004D000881F991F1A9469F760957095809590957B
:1004E0009B01AC01BD01CF010895AA1BBB1B51E1CB
:1004F00007C0AA1FBB1FA617B70710F0A61BB70B94
:10050000881F991F5A95A9F780959095BC01CD0138
:100510000895A0E0B0E0EFE8F2E00C945205FE018F
:10052000359661917191AF01809188019091890117
:100530000E94CA02E2E00C946E050F931F93CF93C2
:10054000DF93E0918801F0918901238121FF1BC095
:10055000EC0100E010E089916091880170918901BF
:10056000DB011896ED91FC911997882331F00995DC
:10057000892B89F30FEF1FEFEECF8AE00995892BC6
:1005800011F4C80102C08FEF9FEFDF91CF911F914F
:100590000F910895ACE0B0E0E0EDF2E00C9442057C
:1005A0007C016B018A01FC0117821682838181FF25
:1005B000BDC1CE0101964C01F7019381F60193FD77
:1005C000859193FF81916F01882309F4ABC1853236
:1005D00039F493FD859193FF81916F01853229F460
:1005E000B70190E00E94B204E7CF512C312C20E0FB
:1005F0002032A0F48B3269F030F4803259F083322B
:1006000069F420612CC08D3239F0803339F42160D7
:1006100026C02260246023C0286021C027FD27C097
:1006200030ED380F3A3078F426FF06C0FAE05F9ECE
:10063000300D1124532E13C08AE0389E300D112442
:10064000332E20620CC08E3221F426FD6BC1206453
:1006500006C08C3611F4206802C0883641F4F601D9
:1006600093FD859193FF81916F018111C1CF982FE7
:100670009F7D9554933028F40C5F1F4FFFE3F9835F
:100680000DC0833631F0833771F0833509F05BC0DC
:1006900022C0F801808189830E5F1F4F4424439458
:1006A000512C540115C03801F2E06F0E711CF80195
:1006B000A080B18026FF03C0652D70E002C06FEFFF
:1006C0007FEFC5012C870E94A7042C0183012C8594
:1006D0002F77222E17C03801F2E06F0E711CF8013F
:1006E000A080B18026FF03C0652D70E002C06FEFCF
:1006F0007FEFC5012C870E949C042C012C8520686B
:10070000222E830123FC1BC0832D90E0481659063E
:10071000B0F4B70180E290E00E94B2043A94F4CFC2
:10072000F50127FC859127FE81915F01B70190E0DB
:100730000E94B20431103A94F1E04F1A510841146A
:10074000510471F7E5C0843611F0893639F5F801A6
:1007500027FF07C060817181828193810C5F1F4FE9
:1007600008C060817181882777FD8095982F0E5F82
:100770001F4F2F76B22E97FF09C0909580957095E8
:1007800061957F4F8F4F9F4F2068B22E2AE030E057
:10079000A4010E94E404A82EA81844C0853729F4B7
:1007A0002F7EB22E2AE030E025C0F22FF97FBF2E37
:1007B0008F36C1F018F4883579F0B4C0803719F05D
:1007C000883721F0AFC02F2F2061B22EB4FE0DC0AC
:1007D0008B2D8460B82E09C024FF0AC09F2F96601D
:1007E000B92E06C028E030E005C020E130E002C0AC
:1007F00020E132E0F801B7FE07C06081718182819B
:1008000093810C5F1F4F06C06081718180E090E092
:100810000E5F1F4FA4010E94E404A82EA818FB2D10
:10082000FF77BF2EB6FE0BC02B2D2E7FA51450F4E4
:10083000B4FE0AC0B2FC08C02B2D2E7E05C07A2C57
:100840002B2D03C07A2C01C0752C24FF0DC0FE0196
:10085000EA0DF11D8081803311F4297E09C022FF49
:1008600006C07394739404C0822F867809F0739441
:1008700023FD13C020FF06C05A2C731418F4530C28
:100880005718732C731468F4B70180E290E02C873A
:100890000E94B20473942C85F5CF731410F43718AA
:1008A00001C0312C24FF12C0B70180E390E02C87F7
:1008B0000E94B2042C8522FF17C021FF03C088E5E7
:1008C00090E002C088E790E0B7010CC0822F8678E4
:1008D00059F021FD02C080E201C08BE227FD8DE2CC
:1008E000B70190E00E94B204A51438F4B70180E388
:1008F00090E00E94B2045A94F7CFAA94F401EA0D52
:10090000F11D8081B70190E00E94B204A110F5CFE3
:10091000332009F451CEB70180E290E00E94B20486
:100920003A94F6CFF7018681978102C08FEF9FEF4F
:100930002C96E2E10C945E05FC010590615070403C
:100940000110D8F7809590958E0F9F1F0895FC0198
:100950006150704001900110D8F7809590958E0FEE
:100960009F1F08950F931F93CF93DF93182F092F85
:10097000EB018B8181FD03C08FEF9FEF20C082FFD1
:1009800010C04E815F812C813D81421753077CF45A
:10099000E881F9819F012F5F3F4F398328831083BE
:1009A00006C0E885F985812F0995892B29F72E81C5
:1009B0003F812F5F3F4F3F832E83812F902FDF9109
:1009C000CF911F910F910895FA01AA27283051F174
:1009D000203181F1E8946F936E7F6E5F7F4F8F4F70
:1009E0009F4FAF4FB1E03ED0B4E03CD0670F781FCF
:1009F000891F9A1FA11D680F791F8A1F911DA11DB4
:100A00006A0F711D811D911DA11D20D009F46894EC
:100A10003F912AE0269F11243019305D3193DEF694
:100A2000CF010895462F4770405D4193B3E00FD04A
:100A3000C9F7F6CF462F4F70405D4A3318F0495D35
:100A400031FD4052419302D0A9F7EACFB4E0A69518
:100A50009795879577956795BA95C9F7009761053A
:100A6000710508959B01AC010A2E06945795479590
:100A700037952795BA95C9F7620F731F841F951F85
:100A8000A01D08952F923F924F925F926F927F9296
:100A90008F929F92AF92BF92CF92DF92EF92FF928E
:100AA0000F931F93CF93DF93CDB7DEB7CA1BDB0B3A
:100AB0000FB6F894DEBF0FBECDBF09942A883988DF
:100AC00048885F846E847D848C849B84AA84B984E6
:100AD000C884DF80EE80FD800C811B81AA81B981F2
:100AE000CE0FD11D0FB6F894DEBF0FBECDBFED0106
:060AF0000895F894FFCF09
:100AF60000000002000000008A01000000002564DA
:060B06000A002E2E2E0055
:00000001FF
