:100000000C9460030C94E8030C94A50B0C947D03F2
:100010000C947D030C947D030C947D030C947D0360
:100020000C947D030C947D030C947D030C947D0350
:100030000C947D030C947D030C947D030C947D0340
:100040000C947D030C947D030C947D030C947D0330
:100050000C947D030C947D030C947D030C947D0320
:100060000C947D030C947D030C947D030C947D0310
:1000700000000000005C00000C000C007C287C28C4
:1000800058DC68002410480028542840000C000068
:10009000007884008478000054385400107C1000EC
:1000A00080400000101010000040000060100C00A4
:1000B00038543800487C40004864580044542C00B0
:1000C0001C107C005C5424003854240064140C0080
:1000D00068542C0048543800004800008048000054
:1000E0001028440028282800442810000454080040
:1000F00038445C00781478007C5428003844280088
:100100007C4438007C5444007C140400384474005F
:100110007C107C00447C440020403C007C106C003F
:100120007C4040007C187C0078103C00384438004B
:100130007C1408003844B8007C146800485424003B
:10014000047C04007C407C003C603C007C307C00F3
:100150006C106C000C700C0064544C00007C44006B
:100160000C106000447C00000804080080808000BF
:1001700000040800304878007C48300030484800CF
:1001800030487C00306850001078140090A8780047
:100190007C08700050744000808074007C106800FF
:1001A000447C4000781078007808700030483000B7
:1001B000F82810003048F80078100800505828003F
:1001C000083C4800384078003840380078207800F3
:1001D0004830480098A0780048685800107884009B
:1001E000007C00008478100008040804000000006F
:1001F0000000005F00000007000700147F147F1458
:10020000242A7F2A1223130864623649552250009B
:1002100005030000001C2241000041221C00082AA6
:100220001C2A0808083E080800503000000808088A
:100230000808006060000020100804023E51494593
:100240003E00427F400042615149462141454B31C9
:100250001814127F1027454545393C4A4949300159
:10026000710905033649494936064949291E0036B0
:100270003600000056360000000814224114141401
:10028000141441221408000201510906324979412F
:100290003E7E1111117E7F494949363E414141223E
:1002A0007F4141221C7F494949417F090901013EA3
:1002B000414151327F0808087F00417F41002040C2
:1002C000413F017F081422417F404040407F0204AB
:1002D000027F7F0408107F3E4141413E7F090909AA
:1002E000063E4151215E7F09192946464949493157
:1002F00001017F01013F4040403F1F2040201F7F00
:100300002018207F631408146303047804036151E8
:1003100049454300007F4141020408102041417FCC
:100320000000040201020440404040400001020479
:100330000020545454787F4844443838444444207E
:10034000384444487F3854545418087E0901020840
:100350001454543C7F0804047800447D400020403D
:10036000443D00007F10284400417F40007C041879
:1003700004787C0804047838444444387C14141409
:1003800008081414187C7C080404084854545420A9
:10039000043F4440203C4040207C1C2040201C3C2A
:1003A0004030403C44281028440C5050503C446499
:1003B000544C44000836410000007F0000004136E4
:1003C000080002010302010000000000000000001C
:1003D000065F5F0600000000070700070700001423
:1003E0007F7F147F7F1400242E6B6B3A120000462F
:1003F0006630180C666200307A4F5D377A48000428
:1004000007030000000000001C3E634100000000E4
:1004100041633E1C000000082A3E1C1C3E2A0808BE
:10042000083E3E0808000000A0E060000000000850
:100430000808080808000000006060000000006074
:1004400030180C060301003E7F594D7F3E000042EC
:10045000427F7F40400000627359496F660000226E
:100460006349497F360000181C16137F7F10002750
:100470006745457D3900003C7E4B497930000003DB
:100480006371190F070000367F49497F3600000667
:100490004F49693F1E000000006C6C000000000026
:1004A000A0EC6C00000000081C3663410000001442
:1004B00014141414140000004163361C08000002D8
:1004C0000351590F0600003E7F415D5D1F1E007CF9
:1004D0007E13137E7C0000417F7F49497F36001CDC
:1004E0003E634141632200417F7F41637F1C0041A5
:1004F0007F7F495D416300417F7F491D0103001CEF
:100500003E6341517372007F7F08087F7F000000C7
:10051000417F7F41000000307040417F3F0100413A
:100520007F7F081C776300417F7F41406070007FC0
:100530007F060C067F7F007F7F060C187F7F001CE4
:100540003E6341633E1C00417F7F49090F06001E48
:100550003F21717F5E0000417F7F19396F46002681
:10056000674D597B32000003417F7F410300007FCC
:100570007F40407F7F00001F3F60603F1F00007F83
:100580007F3018307F7F0063771C081C776300077B
:100590004F78784F0700006773594D47637100002B
:1005A0007F7F41410000000103060C18306000000D
:1005B00041417F7F000000080C0603060C08008004
:1005C000808080808080800000030704000000207D
:1005D0007454543C784000413F7F44447C38003898
:1005E0007C44446C280000307848493F7F40003804
:1005F0007C54545C180000487E7F49030200009838
:10060000BCA4A4F87C0400417F7F08047C7800002F
:10061000447D7D4000000040C484FD7D0000004119
:100620007F7F10386C440000417F7F400000007CD9
:100630007C0C180C7C78007C7C04047C78000038EE
:100640007C44447C38000084FCF8A4243C18001846
:100650003C24A4F8FC8400447C78441C1800004826
:100660005C54547424000000043E7F442400003C89
:100670007C40403C7C40001C3C60603C1C00003CDA
:100680007C6030607C3C00446C3810386C44009CCA
:10069000BCA0A0FC7C00004C64745C4C64000008AE
:1006A000083E7741410000000000777700000041DC
:1006B00041773E0808000002030103020301000025
:1006C00011241FBECFEFD4E0DEBFCDBF12E0A0E00B
:1006D000B1E0E8EAF0E302C005900D92A03AB1075C
:1006E000D9F723E0A0EAB2E001C01D92AA36B20712
:1006F000E1F70E94E4110C9452180C940000CF937F
:10070000C82F0E946D044FEF60E680E60E947204DD
:1007100041E061E08BE20E947204CC2319F0C13009
:1007200039F00BC040E460EE8FE00E94720405C017
:1007300040E060EE8FE00E94720485B7826085BF62
:100740008BB780648BBFCF910895EF92FF920F9388
:100750001F93CF93DF937C01FC018081918195955C
:100760008795959587959595879561E30E942E04C9
:10077000F701808162E38295880F807E0E942E04BB
:1007800065E3F70182810E942E04F7018281181629
:10079000ACF487010D5F1F4FC0E0D0E06C2F6A5CA6
:1007A000F80181918F010E942E042196F701228188
:1007B000332727FD3095C217D30784F380E00E94CA
:1007C0004604DF91CF911F910F91FF90EF90089514
:1007D0001F920F920FB60F9211248F939F9381E077
:1007E00090E09093A1028093A0029F918F910F902F
:1007F0000FBE0F901F9018950F931F93CF93DF9309
:10080000CDB7DEB72B970FB6F894DEBF0FBECDBFC6
:100810008C01CB01BA0198012250310922303105F7
:1008200090F420E030E04AE754E40E94B0140E94C3
:10083000CE1382E08B837C836D831A830983CE0180
:1008400001960E94A5032B960FB6F894DEBF0FBE4B
:10085000CDBFDF91CF911F910F910895CF93DF937B
:10086000C82FD62F81E090E00E949E0482E00E9473
:1008700098048D2F0E9498048C2F0E94980480E089
:1008800090E00E949E04DF91CF910895CF9388233A
:1008900031F0813031F0823031F0C0E805C0C1E87C
:1008A00003C0C2E801C0C4E881E090E00E949E0459
:1008B0008C2F0E94980480E090E00E949E04CF91CB
:1008C000089581E090E00E949E0480EC0E949804CC
:1008D00080E090E00E949E0408950E9490040E948F
:1008E000610408951F93CF93DF93182FD62FC42F41
:1008F00081E090E00E949E0485E00E949804812F90
:100900000E9498048D2F0E9498048C2F0E949804B6
:1009100080E090E00E949E04DF91CF911F910895A6
:10092000BD9ABF9ABC9ABE986C9A699A6E9A0895BD
:100930008FB9779BFECF80E090E0089581309105DC
:1009400011F4C4980895892B09F4C49A08955D9B05
:10095000FECF8CB908959C01442737FD4095542F54
:1009600060E070EB84E090E00E94131521503109A3
:1009700030BD29B988E18AB986E880BD80E091E080
:100980009093670380936603089582E090E09093CC
:100990000D0380930C03089581E090E090930D0384
:1009A00080930C03089510920D0310920C03089588
:1009B0000E9461080E942E090E94010A0895109267
:1009C0000D0310920C030E94770F0E94510F8EE0CE
:1009D00093E00E940F1280910C0390910D030097F9
:1009E00071F40E94990D8EE093E00E9469120E94BA
:1009F000510F80910C0390910D03009791F3029792
:100A000039F010920D0310920C0380E090E00895ED
:100A100081E090E0089561E081E00E943E0E62E096
:100A200070E087E691E00E94201028E230E04AE082
:100A300050E064E170E08AE090E00E94971028E2C4
:100A400030E044E150E068E270E08AE090E00E942B
:100A5000971024E130E049E150E068E270E084E181
:100A600090E00E9497102EE130E04BE150E06EE103
:100A700070E087E190E00E94971028E230E04EE1BC
:100A800050E064E170E089E190E00E94971024E179
:100A900030E04EE150E068E270E08EE190E00E94CC
:100AA000971024E130E043E250E064E170E08EE131
:100AB00090E00E94971029E130E043E250E064E1C9
:100AC00070E083E290E00E94971029E130E04EE16F
:100AD00050E069E170E083E290E00E94971028E224
:100AE00030E043E250E069E170E08EE190E00E9486
:100AF000971028E230E04FE250E068E270E085E2D3
:100B000090E00E9497102EE130E04FE250E068E262
:100B100070E08FE290E00E9497102EE130E043E217
:100B200050E06EE170E08FE290E00E94971024E1C7
:100B300030E045E250E06EE170E085E290E00E9436
:100B4000971024E130E04FE250E064E170E085E28C
:100B500090E00E94971064E084E30E943E0E62E001
:100B600070E080E791E00E94201024E130E041E451
:100B700050E068E270E081E490E00E94971024E188
:100B800030E04BE450E064E170E081E490E00E94EA
:100B900097102EE130E04BE450E064E170E08BE42C
:100BA00090E00E9497102EE130E041E450E06EE1C9
:100BB00070E08BE490E00E94971024E130E04DE477
:100BC00050E068E270E08DE490E00E94971024E12C
:100BD00030E045E550E064E170E08DE490E00E9493
:100BE00097102EE130E045E550E06EE170E08DE4D5
:100BF00090E00E94971028E230E045E550E068E27E
:100C000070E08DE490E00E94971024E130E047E529
:100C100050E068E270E087E590E00E94971024E1E0
:100C200030E04FE550E064E170E087E590E00E943D
:100C3000971029E130E04FE550E064E170E08FE586
:100C400090E00E94971029E130E047E550E069E12B
:100C500070E08FE590E00E94971028E230E04FE5C9
:100C600050E069E170E087E590E00E94971067E04E
:100C700082E30E943E0E61E070E082E791E00E9414
:100C800020100E94510F2FEF8FEF9EE021508040E7
:100C90009040E1F700C000000895CF93DF9380E813
:100CA00095E20E94AB040E948C0F0E94CC0B0E9424
:100CB000FA0D81E00E947F038CE993E6A0E0B0E0AA
:100CC0008093FE029093FF02A0930003B093010370
:100CD0000E940E0E0E940B0561E871E088E193E02E
:100CE0000E9403128EE093E09093210380932003EF
:100CF00041E658E06AE871E086EC92E00E94F91162
:100D000086EC92E090931B0380931A03C8E1D3E032
:100D1000D093CD02C093CC0241E05AE065E971E086
:100D200088EA92E00E94F91188EA92E09093CB025F
:100D30008093CA024EE259E065EA71E082E093E0F6
:100D40000E94F91182E093E09093AD028093AC028F
:100D500046ED5AE06CEA71E084E293E00E94F911FA
:100D600084E293E0909307038093060367EB71E0BE
:100D70008EE093E00E9403124EE85BE061EC71E0CC
:100D80008AED92E00E94F9118AED92E090931103AE
:100D90008093100340E050E061E871E082EB92E064
:100DA0000E94F911E0911003F091110382EB92E09F
:100DB00095838483D093BB02C093BA0245EC54E080
:100DC0006CEC71E080ED92E00E94F91180ED92E010
:100DD0009093B7028093B60266ED71E08EE293E0E5
:100DE0000E94031243ED54E061EE71E08CEB92E05F
:100DF0000E94F9114CEC54E06AEE71E084EE92E04E
:100E00000E94F9118CEB92E09093310380933003B0
:100E100084EE92E09093C1028093C0027894DF91B7
:100E2000CF9108950F931F93CF93DF93CDB7DEB784
:100E30002C970FB6F894DEBF0FBECDBF9F938F9354
:100E400083EF91E09F938F938E010F5F1F4F1F934E
:100E50000F930E9481150F900F900F900F900F909D
:100E60000F90C8012C960FB6F894DEBF0FBECDBF11
:100E7000DF91CF911F910F9108950E94770F0E94EB
:100E8000510F63E084E10E943E0E62E070E08BE16E
:100E900092E00E94201064E089E10E943E0E62E030
:100EA00070E086E292E00E9420100E94510F2FEF26
:100EB0008FEF9AE4215080409040E1F700C000009D
:100EC0000E94770F0E94510F08950F931F93CF93A5
:100ED000DF936091FE027091FF0280910003909178
:100EE0000103611571058105910509F475C024E6BA
:100EF00030E040E050E00E943515622F732F022F42
:100F0000132F242F352F8091360190913701AA2776
:100F100097FDA095BA2F081719072A073B07A4F5D4
:100F2000E8E3F1E040E050E04F5F5F4F8191919145
:100F3000AA2797FDA095BA2F081719072A073B077C
:100F40009CF34A305105E4F047C03E912E91139630
:100F50003C932E931297EF0127972881249628839C
:100F600023972881249628832397288124962883F1
:100F7000239728812083FE01A817B90731F710C0F5
:100F8000493051051CF00CC040E050E0A8E4B1E04D
:100F9000E5E3F1E0CA01880F991F8A5C9E4FD5CF27
:100FA000FA01EE0FFF1FEA5CFE4F862F972F918309
:100FB0008083FA01EE0FFF1FEE0FFF1FE25FFE4F6F
:100FC00080914A01808380914B01818380914C0103
:100FD000828380914D018383DF91CF911F910F9187
:100FE0000895CF92DF92EF92FF920E94770F8EE2E8
:100FF00093E00E940F120E94510F83E090E09093C3
:101000000D0380930C030F2EF4E6CF2ED12CE12C90
:10101000F12CF02D0E94990D8EE293E00E9469124E
:1010200020E430E04FE750E060E470E081E090E0E1
:101030000E94971066E085E00E943E0E62E070E03C
:101040008FE292E00E9420106091FE027091FF02F8
:101050008091000390910103A70196010E9435152C
:10106000C9010E94120761E070E00E9420100E94F6
:10107000510F80910C0390910D03039759F20E9438
:1010800065071092FE021092FF0210920003109268
:10109000010380910C0390910D03892B59F40E9458
:1010A000770F0E94510F8EE093E00E940F1280E0B4
:1010B00090E002C081E090E0FF90EF90DF90CF9051
:1010C00008958F929F92AF92BF92CF92DF92EF924C
:1010D000FF920F931F93CF93DF930E94770F0E948D
:1010E000A40E62E070E08CE392E00E942010C0E069
:1010F000D0E00F2EF1E48F2EF02D0F2EFAE59F2E6B
:10110000F02DC12CD12CAA24A394B12C6894EE24E8
:10111000E1F8F12C0E94990D0E94860C892B61F058
:10112000FE01E65BFE4F80818A3530F4FE01E65B0E
:10113000FE4F8F5F808308C00E94860C892B21F0B0
:10114000FE01E65BFE4F80820E949B0C892B61F0C2
:10115000FE01E65BFE4F8081823430F0FE01E65BEB
:10116000FE4F8150808308C00E949B0C892B21F088
:10117000FE01E65BFE4F90820E94C40C892B21F099
:10118000C330D1050CF421960E94AF0C892B19F0C5
:10119000DD230CF021970E94AF0C892B21F0CF3F6B
:1011A0002FEFD20761F00E94C40C892B69F0C33085
:1011B000D10569F40A2D1B2DCE2DDF2D0AC00A2D75
:1011C0001B2DCC2DDD2D05C00C2D1D2D02C00C2D91
:1011D0001D2D63E08CE30E943E0E6E2D7F2D8AE470
:1011E00091E00E9420100E94510F0E94860C892BD2
:1011F00029F50E94AF0C892B09F50E94C40C892B9C
:10120000E9F40E949B0C892BC9F49FEF2FE781E042
:10121000915020408040E1F700C000C063E08C2F77
:10122000880F880F880F845C0E943E0E6E2D7F2DE4
:1012300089E492E00E9420100E94510F012B09F4D2
:1012400069CFDF91CF911F910F91FF90EF90DF90C9
:10125000CF90BF90AF909F908F900895CF92DF92E4
:10126000EF92FF920F931F93CF93DF930E94770F1C
:101270000E94A40E62E070E08BE492E00E942010D5
:1012800001E010E0EE24E394F12CC12CD12C0E945B
:10129000990D0E94AF0C3E2D2F2D892B11F43C2D62
:1012A0002D2DC32FD22F0E94C40C892B11F0CE2DCF
:1012B000DF2D0E949B0C892B71F08091A4029091EC
:1012C000A502823091053CF401969093A50280938B
:1012D000A4020E2D1F2D0E94860C892B21F18091D6
:1012E000A4029091A50218161906ECF401979093A8
:1012F000A5028093A40263E08CE30E943E0E8091DD
:10130000A4029091A5029C01220F331F220F331FCC
:10131000820F931F62E070E0825B9E4F0E9420105C
:101320000E94510F19C063E08CE30E943E0E809131
:10133000A4029091A5029C01220F331F220F331F9C
:10134000820F931F62E070E0825B9E4F0E9420102C
:101350000E94510F012B49F09FEF2FEF82E0915037
:1013600020408040E1F700C000C0CD2B19F40C2DC7
:101370001D2D8DCF8091A4029091A5028130910501
:10138000B1F08230910521F1892B91F540E050E0D8
:1013900060EF70E482E090E00E94FC034DEC5CECB6
:1013A0006CEC7EE383E090E00E94FC0321C040E00F
:1013B00050E060E670E482E090E00E94FC034AE9BD
:1013C00059E969E97EE383E090E00E94FC0310C0E4
:1013D00040E050E060E171E482E090E00E94FC03B4
:1013E0004AE959E969E17FE383E090E00E94FC0368
:1013F000DF91CF911F910F91FF90EF90DF90CF90F1
:101400000895AF92BF92CF92DF92EF92FF920F9327
:101410001F93CF93DF93CDB7DEB76E970FB6F894D7
:10142000DEBF0FBECDBFFE0131968EE1DF011D9202
:101430008A95E9F783E592E09A83898383E692E0CF
:101440009C838B8383E792E09E838D830E94770F3A
:101450000E94A40E62E070E083E892E00E942010F7
:1014600001E010E0AA24A394B12CC12CD12C0E943D
:10147000990D0E94AF0C892B29F00115110509F473
:1014800077C07EC00E94C40C892B31F00115110574
:1014900031F4EA2CFB2C05C0EC2CFD2C02C0EC2C0A
:1014A000FD2C0E949B0C892B81F08091A2029091CF
:1014B000A302823091054CF401969093A30280938D
:1014C000A2020E941E0E0A2D1B2D0E94860C892B43
:1014D00039F18091A2029091A3021816190604F521
:1014E00001979093A3028093A2020E942E0E63E0C4
:1014F0008EE10E943E0EE091A202F091A302EE0F57
:10150000FF1F81E090E08C0F9D1FE80FF91F6A2DEF
:101510007B2D808191810E9420100E94510F1AC062
:1015200063E08EE10E943E0EE091A202F091A302E0
:10153000EE0FFF1FA1E0B0E0AC0FBD1FEA0FFB1FD5
:101540006A2D7B2D808191810E9420100E94510F75
:10155000012B49F0BFEF2FEF82E0B15020408040D7
:10156000E1F700C000C0EF2881F40C2D1D2D7FCFC6
:101570000E94C40C892B09F08CCFEA2CFB2C91CF54
:101580000E94C40CEC2CFD2C8CCF6E960FB6F894F8
:10159000DEBF0FBECDBFDF91CF911F910F91FF90A6
:1015A000EF90DF90CF90BF90AF9008954F925F92F1
:1015B0006F927F928F929F92AF92BF92CF92DF9263
:1015C000EF92FF920F931F93CF93DF930E94770FB9
:1015D0000E94A40E62E070E08AE892E00E9420106F
:1015E0000F2EFEE08F2EF1E09F2EF02D0F2EF6E352
:1015F0006F2EF1E07F2EF02D6894442441F8512C99
:101600000E94990D0E94AF0C5C0174018301C42DEE
:10161000D52D6C2F81E00E943E0ECE0101970E94D5
:10162000120761E070E00E94201061E070E086E93E
:1016300092E00E94201061E070E0C7010E9420103B
:1016400061E070E089E392E00E9420106801F801F7
:10165000808191810E94120761E070E00E94201059
:10166000F80180819181843691053CF061E070E061
:1016700081E892E00E9420100FC00A973CF061E0E0
:1016800070E080E892E00E94201006C061E070E007
:101690008FE792E00E942010CE010E94120761E0C5
:1016A00070E00E94201061E070E086E992E00E9404
:1016B000201061E070E0C70104960E94201061E0F4
:1016C00070E089E392E00E942010F601828193810C
:1016D0000E94120761E070E00E9420102296F8E05C
:1016E000EF0EF11C0C5F1F4FC830D10509F091CFF0
:1016F0000E94510FAB2809F483CFDF91CF911F9146
:101700000F91FF90EF90DF90CF90BF90AF909F90A0
:101710008F907F906F905F904F90089581E090E060
:1017200090930D0380930C0308958D5F80930014B4
:101730008091A6029091A702892BD1F31092A70263
:101740001092A6028091001408951F920F920FB676
:101750000F9211248F939F9381E090E09093A702C2
:101760008093A6029F918F910F900FBE0F901F90B4
:10177000189581E090E00E94950B90E09093FD0217
:101780008093FC0282E090E00E94950B90E09093A1
:101790002303809322030895789485B7886085BFDA
:1017A0008BB780688BBF87B3817F87BB0E94B90BE3
:1017B000F8940895CF92DF92EF92FF920F931F93C8
:1017C000CF93DF9300D000D000D0CDB7DEB781E05B
:1017D00090E00E94950B082F82E090E00E94950B0C
:1017E000C82E2091FC023091FD02E0902203F0907F
:1017F000230316B3802F90E0821B930B0F2EF4E689
:10180000DF2EF02DD89EB001D99E700D11248827AF
:1018100077FD8095982F0E94FC1320E030E04EEF7A
:1018200052E40E9461130E94C913062F862F972F3E
:101830009A8389838C2D90E08E199F09D89EB001E0
:10184000D99E700D1124882777FD8095982F0E94CE
:10185000FC1320E030E04EEF52E40E9461130E943E
:10186000C913862F972F9C838B83169516951695F3
:1018700081E0182711701D831E82202F3A81462F88
:101880005C81612F70E080E090E026960FB6F894BE
:10189000DEBF0FBECDBFDF91CF911F910F91FF90A3
:1018A000EF90DF90CF90089583E090E00E94950B39
:1018B00024E6829FC0011124BC01882777FD809512
:1018C000982F0E94FC1320E030E04FE753E40E9481
:1018D00061130E94C913CB01089584E090E00E9437
:1018E000950B24E6829FC0011124BC01882777FD57
:1018F0008095982F0E94FC1320E030E04FE753E4DE
:101900000E9461130E94C913CB01089580913A038C
:1019100090913B03853C9F4F5CF081E090E02091EB
:10192000F0023091F102243C3F4F24F080E0089512
:1019300080E090E0089580913A0390913B03CC972A
:101940005CF481E090E02091F0023091F1022D33BF
:10195000310524F480E0089580E090E008958091BE
:10196000380390913903853C9F4F5CF081E090E013
:101970002091EE023091EF02243C3F4F24F080E0B2
:10198000089580E090E008958091380390913903A4
:10199000CC975CF481E090E02091EE023091EF0270
:1019A0002D33310524F480E0089580E090E008951F
:1019B000CF92DF92EF92FF920F931F93CF93DF931B
:1019C000CDB7DEB72E970FB6F894DEBF0FBECDBFF2
:1019D0002091420330914303809150039091510331
:1019E0002817390709F070C020914403309145034E
:1019F00080915203909153032817390709F067C06B
:101A000080913C0390913D03009709F063C02091C1
:101A10003E0330913F0340914C0350914D03BA0176
:101A20006C5F7F4F621773070CF457C04450510925
:101A3000241735070CF454C0209140033091410322
:101A400040914E0350914F03BA016C5F7F4F621774
:101A500073070CF448C044505109241735070CF49F
:101A600045C0E0913803F0913903609146037091CD
:101A700047039B0126503109E217F307D4F1245F95
:101A80003F4F2E173F07C4F140913A0350913B035B
:101A90002091480330914903D90116974A175B07F3
:101AA00074F11C96A417B5076CF137963F9710F4A4
:101AB000672B59F5495F5F4F4F30510558F5211598
:101AC000310531F5C90126C081E090E023C08AE0EC
:101AD00090E020C084E690E01DC088EC90E01AC041
:101AE00088EC90E017C08AEF90E014C08AEF90E095
:101AF00011C088E191E00EC088E191E00BC082E264
:101B000091E008C082E291E005C08CE291E002C061
:101B10008DE291E02E960FB6F894DEBF0FBECDBFDA
:101B2000DF91CF911F910F91FF90EF90DF90CF90B9
:101B30000895CF93DF938091EE029091EF02079684
:101B40000F9720F41092EF021092EE028091F002B3
:101B50009091F10207960F9720F41092F1021092E3
:101B6000F0020E94D80CEC018EE0EEEEF2E0A8E369
:101B7000B3E001900D928A95E1F70E94DA0B209371
:101B8000EE023093EF024093F0025093F102609323
:101B9000F2027093F3020E94540C9093F50280932A
:101BA000F4020E946D0C9093F7028093F60286B3C4
:101BB000827090E09093F9028093F80286B384706B
:101BC00090E09093FB028093FA02CE01DF91CF91D7
:101BD000089585B7806885BF80B7806280BF08950B
:101BE000FC0160830895FC0180810895C09A0895E6
:101BF000C0980895B89A81B3806381BB94989598F2
:101C00000E94F60D2FEF8FEF92E021508040904020
:101C1000E1F700C000C00E94F80D0895949A959ACB
:101C20000E94F60D2FEF8FEF92E021508040904000
:101C3000E1F700C000C00E94F80D08959498959AAD
:101C40000E94F60D2FEF8FEF92E0215080409040E0
:101C5000E1F700C000C00E94F80D0895949895988F
:101C60000E94F60D2FEF8FEF92E0215080409040C0
:101C7000E1F700C000C00E94F80D0895609355037D
:101C800080935403E0916101F091620180915503CA
:101C90008770806B8083E0916101F0916201809197
:101CA00054038F708083E0916101F0916201809113
:101CB000540382958F70806180830895E091610163
:101CC000F0916201909155039770906B9083E09131
:101CD0006101F0916201909154039F709083E091B3
:101CE0006101F09162019091540392959F7090610F
:101CF0009083E0915F01F091600180830895FF92ED
:101D00000F931F93CF93DF93F090540300915503EB
:101D1000D0E010E00DC06D2F8C2F0E943E0E812F61
:101D20000E945E0ECF5FC038B1F7DF5FD83011F090
:101D3000C12FF1CFF092540300935503DF91CF915F
:101D40001F910F91FF90089560E080E00E943E0E89
:101D50000895909154032091550340E8249F9001E9
:101D60001124290F311D211594E0390750F44091B9
:101D70005D0150915E01682FCA01820F931F0E947E
:101D8000F00D08950F931F93CF93DF9328E0829F68
:101D9000C0011124EC01C953DD4F00E010E0FE0149
:101DA00084910E94A90E60915503809154038F5F26
:101DB0000E943E0E0F5F1F4F21960830110579F7E4
:101DC00080E090E0DF91CF911F910F9108950F93E4
:101DD0001F93CF93DF93C82FD0E0A097CE01880F39
:101DE000991F880F991FC80FD91FC451DE4F00E0FB
:101DF00010E0FE0184910E94A90E6091550380912C
:101E000054038F5F0E943E0E0F5F1F4F21960530D7
:101E1000110579F780E090E0DF91CF911F910F914C
:101E200008950F931F93CF93DF9324E0829FC00107
:101E30001124EC01C051D04000E010E0FE0184917B
:101E40000E94A90E60915503809154038F5F0E94F8
:101E50003E0E0F5F1F4F21960430110579F780E089
:101E600090E0DF91CF911F910F910895209154033D
:101E70008091550330E8839FC0011124820F911D8A
:101E80009C01215031092F3F334048F420915D01DE
:101E900030915E01820F931F0E94F30D089580E040
:101EA0000895FF920F931F93CF93DF93F090540305
:101EB00000915503D0E010E00EC06C2F8D2F0E94D2
:101EC0003E0E0E94360F0E945E0ECF5FC830A9F70B
:101ED000DF5FD03811F0C12FF0CFF09254030093A0
:101EE0005503DF91CF911F910F91FF900895CF93EC
:101EF000DF93C0E0D0E080915D0190915E0160E0F1
:101F00008C0F9D1F0E94F00D2196C11584E0D8070B
:101F100091F7DF91CF9108950E94E90D109255033A
:101F200010925403E0916101F09162018EEA808386
:101F3000E0916101F091620181EA8083E0916101A9
:101F4000F09162018AED8083E0916101F09162017C
:101F500082E18083E0916101F091620188EC8083ED
:101F6000E0916101F091620188EA8083E091610172
:101F7000F09162018FE38083E0916101F091620151
:101F800085ED8083E0916101F091620180E88083BA
:101F9000E0916101F091620181E88083E09161014B
:101FA000F091620180E58083E0916101F09162012E
:101FB00089ED8083E0916101F091620181E280838B
:101FC000E0916101F091620182E28083E091610120
:101FD000F091620182E08083E0916101F091620101
:101FE0008BED8083E0916101F091620180E3808359
:101FF000E0916101F09162018DEA8083E0916101DD
:10200000F09162011082E0916101F091620184EA35
:102010008083E0916101F091620186EA8083E09122
:102020006101F091620180E48083E0916101F091AF
:1020300062018FEA80830E947F0E0E94770F0895CD
:10204000CF93DF93EC016115710551F488818823EA
:1020500001F121960E94110F89918111FBCF19C0C6
:102060006130710551F48881882399F021960E948E
:10207000E70E89918111FBCF0CC06230710549F4E4
:102080008881882331F021960E94C20E89918111A6
:10209000FBCFDF91CF910895FF920F931F93CF93C2
:1020A000DF93EA0100915403109155039B012770BF
:1020B0003078332334F421503109286F3F6F2F5F7C
:1020C0003F4FF22EFB01FF230CF43796BF017595AD
:1020D000679575956795759567950E943E0ECD2B12
:1020E00079F40E94360F41E050E09A0102C0220FBD
:1020F000331FFA94E2F7209582230E94A90E0DC0A7
:102100000E94360F41E050E09A0102C0220F331FB7
:10211000FA94E2F7822B0E94A90E009354031093C5
:102120005503DF91CF911F910F91FF9008952F924A
:102130003F924F925F926F927F928F929F92AF9257
:10214000BF92CF92DF92EF92FF920F931F93CF93A4
:10215000DF93CDB7DEB728970FB6F894DEBF0FBE7A
:10216000CDBF2C013B018A0119014817590709F419
:10217000ADC02617370709F444C0B90166197709BD
:10218000882777FD8095982F0E94FC134B015C01F6
:10219000B80164197509882777FD8095982F0E94EA
:1021A000FC136B017C019B01AC01C501B4010E94D1
:1021B000611369837A838B839C83A5019401C70192
:1021C000B6010E9461136D837E838F83988720E020
:1021D00030E040E85FE369817A818B819C810E94D5
:1021E0005D1388230CF076C020E030E040E85FEB20
:1021F00069817A818B819C810E94AC1418162CF025
:1022000069C019821A821B821C820415150534F4D8
:102210003101942D852D2801092F182FB30188270E
:1022200077FD8095982F0E94FC134B015C01B20151
:10223000882777FD8095982F0E94FC136B017C0105
:1022400041E050E0B301C2010E944C10B801882760
:1022500077FD8095982F0E94FC136D837E838F837A
:1022600098879B01AC01C701B6010E945D138823CA
:102270000CF091C029813A814B815C81C501B40188
:102280000E94F9124B015C010E94C9132B013C0111
:10229000C701B6010E94C913DC01CB0141E050E047
:1022A000B2010E944C1020E030E040E85FE3C7013B
:1022B000B6010E94F9126B017C012D813E814F8194
:1022C00058850E945D138823ACF265C01D821E8272
:1022D0001F8218862614370434F4962D872D310179
:1022E000292E382E2801B301882777FD8095982F55
:1022F0000E94FC136B017C01B201882777FD809559
:10230000982F0E94FC134B015C0141E050E0B301A7
:10231000C2010E944C10B101882777FD8095982F4B
:102320000E94FC1369837A838B839C839B01AC019D
:10233000C701B6010E945D1388236CF52D813E8193
:102340004F815885C501B4010E94F9124B015C010F
:10235000C701B6010E94C9132B013C01C501B4019C
:102360000E94C913DC01CB0141E050E0B2010E94A0
:102370004C1020E030E040E85FE3C701B6010E9466
:10238000F9126B017C0129813A814B815C810E94A9
:102390005D1388239CF228960FB6F894DEBF0FBE1B
:1023A000CDBFDF91CF911F910F91FF90EF90DF9004
:1023B000CF90BF90AF909F908F907F906F905F90E5
:1023C0004F903F902F90089589E992E00E94541514
:1023D0000E944D060E94D8040E94DF04892B21F43C
:1023E0000E94F107892BC1F30E943D0780E090E035
:1023F0000895FC01718360831582148253834283A4
:10240000118610860895FC01718360831382128205
:102410001582148297838683118610860895FF9211
:102420000F931F93CF93DF938C0160E08AE00E94AB
:102430003E0ED8011696ED91FC91179762E070E080
:10244000808191810E942010D8011696ED91FC9117
:102450001797C281D381209799F06894FF24F1F8EF
:102460006F2D84E10E943E0E61E070E088819981C9
:102470000E9420100C80DD81C02DF394209781F7FD
:10248000D8011696ED91FC91179764816E5F8AE0F2
:102490000E943E0E61E070E083E691E00E94201011
:1024A000DF91CF911F910F91FF900895DC0112965B
:1024B000ED91FC911397309749F080E090E0019600
:1024C0000480F581E02D3097D1F7089580E090E009
:1024D0000895CF92DF92EF92FF920F931F93CF93C5
:1024E000DF936C01FC01068117810E949B0C892BF4
:1024F00069F0F8018481958118161906ECF40197AA
:1025000095838483EE24E394F12C20C00E94860CF2
:10251000892BB1F0F801C481D581C8010E945612FF
:102520000197C817D9077CF42196F801D583C48395
:10253000EE24E394F12C0AC0EE24E394F12C06C0BF
:10254000E12CF12C03C0EE24E394F12C0E94C40C86
:10255000892B11F1F801C281D3812097E9F04481E0
:1025600055811416150654F420E030E00C80DD810E
:10257000C02D2F5F3F4F24173507C1F7EA81FB813C
:10258000309709F0099588859985009709F4C80165
:10259000FFEFEF1AFF0A8C010E94AF0C892B51F05C
:1025A000F80180859185009709F4C801FFEFEF1AC3
:1025B000FF0A8C01F601178306838EE0EEEEF2E04F
:1025C000A6E5B3E001900D928A95E1F7EF2839F086
:1025D0000E94770FF601868197810E940F12DF918A
:1025E000CF911F910F91FF90EF90DF90CF900895C2
:1025F0005058BB27AA270ED075C166D130F06BD1D9
:1026000020F031F49F3F11F41EF45BC10EF4E0950D
:10261000E7FB51C1E92F77D180F3BA17620773073F
:102620008407950718F071F49EF58FC10EF4E095BC
:102630000B2EBA2FA02D0B01B90190010C01CA017C
:10264000A0011124FF27591B99F0593F50F4503E27
:1026500068F11A16F040A22F232F342F4427585F19
:10266000F3CF469537952795A795F0405395C9F731
:102670007EF41F16BA0B620B730B840BBAF09150E9
:10268000A1F0FF0FBB1F661F771F881FC2F70EC088
:10269000BA0F621F731F841F48F48795779567955B
:1026A000B795F7959E3F08F0B3CF9395880F08F044
:1026B0009927EE0F979587950895D9D008F481E072
:1026C00008950CD00FC107D140F0FED030F021F4B6
:1026D0005F3F19F0F0C0511139C1F3C014D198F324
:1026E0009923C9F35523B1F3951B550BBB27AA2793
:1026F00062177307840738F09F5F5F4F220F331F05
:10270000441FAA1FA9F333D00E2E3AF0E0E830D0D0
:1027100091505040E695001CCAF729D0FE2F27D0D3
:10272000660F771F881FBB1F261737074807AB07A1
:10273000B0E809F0BB0B802DBF01FF2793585F4F16
:102740002AF09E3F510568F0B6C000C15F3FECF330
:10275000983EDCF3869577956795B795F7959F5FDB
:10276000C9F7880F911D9695879597F90895E1E02F
:10277000660F771F881FBB1F621773078407BA078E
:1027800020F0621B730B840BBA0BEE1F88F7E095E9
:10279000089504D06894B111D9C00895BCD088F0D0
:1027A0009F5790F0B92F9927B751A0F0D1F0660F3D
:1027B000771F881F991F1AF0BA95C9F712C0B13058
:1027C00081F0C3D0B1E00895C0C0672F782F88276B
:1027D000B85F39F0B93FCCF3869577956795B39597
:1027E000D9F73EF490958095709561957F4F8F4F06
:1027F0009F4F0895E89409C097FB3EF4909580950B
:10280000709561957F4F8F4F9F4F9923A9F0F92FB6
:1028100096E9BB279395F695879577956795B79534
:10282000F111F8CFFAF4BB0F11F460FF1BC06F5F1A
:102830007F4F8F4F9F4F16C0882311F096E911C02C
:10284000772321F09EE8872F762F05C0662371F04D
:1028500096E8862F70E060E02AF09A95660F771F61
:10286000881FDAF7880F9695879597F90895990F3D
:102870000008550FAA0BE0E8FEEF16161706E8074A
:10288000F907C0F012161306E407F50798F0621B6B
:10289000730B840B950B39F40A2661F0232B242B40
:1028A000252B21F408950A2609F4A140A6958FEF5F
:1028B000811D811D089597F99F6780E870E060E0B1
:1028C00008959FEF80EC089500240A9416161706C9
:1028D00018060906089500240A9412161306140611
:1028E00005060895092E0394000C11F4882352F074
:1028F000BB0F40F4BF2B11F460FF04C06F5F7F4F2C
:102900008F4F9F4F089557FD9058440F551F59F012
:102910005F3F71F04795880F97FB991F61F09F3FCC
:1029200079F087950895121613061406551FF2CFF5
:102930004695F1DF08C0161617061806991FF1CF45
:1029400086957105610508940895E894BB2766276C
:102950007727CB0197F908958ADF08F48FEF089560
:102960000BD0C0CFB1DF28F0B6DF18F0952309F007
:10297000A2CFA7CF1124EACFC6DFA0F3959FD1F352
:10298000950F50E0551F629FF001729FBB27F00D1D
:10299000B11D639FAA27F00DB11DAA1F649F662772
:1029A000B00DA11D661F829F2227B00DA11D621FC1
:1029B000739FB00DA11D621F839FA00D611D221F7B
:1029C000749F3327A00D611D231F849F600D211D5F
:1029D000822F762F6A2F11249F5750408AF0E1F002
:1029E00088234AF0EE0FFF1FBB1F661F771F881F4B
:1029F00091505040A9F79E3F510570F05CCFA6CF93
:102A00005F3FECF3983EDCF3869577956795B79535
:102A1000F795E7959F5FC1F7FE2B880F911D96955F
:102A2000879597F90895A1E21A2EAA1BBB1BFD01F9
:102A30000DC0AA1FBB1FEE1FFF1FA217B307E4079D
:102A4000F50720F0A21BB30BE40BF50B661F771FF5
:102A5000881F991F1A9469F76095709580959095D5
:102A60009B01AC01BD01CF010895052E97FB1EF41B
:102A700000940E944C1557FD07D00E94131507FCC7
:102A800003D04EF40C944C155095409530952195FB
:102A90003F4F4F4F5F4F089590958095709561958A
:102AA0007F4F8F4F9F4F08950F931F93CF93DF93C7
:102AB000E0916603F0916703238121FF1BC0EC01C5
:102AC00000E010E089916091660370916703DB017B
:102AD0001896ED91FC911997882331F00995892B6F
:102AE00089F30FEF1FEFEECF8AE00995892B11F4E0
:102AF000C80102C08FEF9FEFDF91CF911F910F911F
:102B00000895AEE0B0E0E7E8F5E10C9429180D89EE
:102B10001E8986E08C831A8309838FEF9FE79E834B
:102B20008D83AE01475E5F4F6F89788DCE01019630
:102B30000E94A315EF81F885E00FF11F10822E96F9
:102B4000E4E00C944518ACE0B0E0E9EAF5E10C945F
:102B50001B187C016B018A01FC011782168283819C
:102B600081FFBDC1CE0101964C01F7019381F601B1
:102B700093FD859193FF81916F01882309F4ABC187
:102B8000853239F493FD859193FF81916F018532F0
:102B900029F4B70190E00E948B17E7CF512C312C1C
:102BA00020E02032A0F48B3269F030F4803259F00A
:102BB000833269F420612CC08D3239F0803339F4CE
:102BC000216026C02260246023C0286021C027FD28
:102BD00027C030ED380F3A3078F426FF06C0FAE00F
:102BE0005F9E300D1124532E13C08AE0389E300DA5
:102BF0001124332E20620CC08E3221F426FD6BC1CD
:102C0000206406C08C3611F4206802C0883641F476
:102C1000F60193FD859193FF81916F018111C1CFE1
:102C2000982F9F7D9554933028F40C5F1F4FFFE33E
:102C3000F9830DC0833631F0833771F0833509F0A5
:102C40005BC022C0F801808189830E5F1F4F44243E
:102C50004394512C540115C03801F2E06F0E711CE1
:102C6000F801A080B18026FF03C0652D70E002C08E
:102C70006FEF7FEFC5012C870E9480172C01830125
:102C80002C852F77222E17C03801F2E06F0E711CB1
:102C9000F801A080B18026FF03C0652D70E002C05E
:102CA0006FEF7FEFC5012C870E9475172C012C85D3
:102CB0002068222E830123FC1BC0832D90E0481640
:102CC0005906B0F4B70180E290E00E948B173A9465
:102CD000F4CFF50127FC859127FE81915F01B701B3
:102CE00090E00E948B1731103A94F1E04F1A51088E
:102CF0004114510471F7E5C0843611F0893639F575
:102D0000F80127FF07C060817181828193810C5F88
:102D10001F4F08C060817181882777FD8095982FAB
:102D20000E5F1F4F2F76B22E97FF09C090958095AA
:102D3000709561957F4F8F4F9F4F2068B22E2AE08C
:102D400030E0A4010E94BD17A82EA81844C0853702
:102D500029F42F7EB22E2AE030E025C0F22FF97F31
:102D6000BF2E8F36C1F018F4883579F0B4C08037A3
:102D700019F0883721F0AFC02F2F2061B22EB4FE9A
:102D80000DC08B2D8460B82E09C024FF0AC09F2F70
:102D90009660B92E06C028E030E005C020E130E0A2
:102DA00002C020E132E0F801B7FE07C06081718106
:102DB000828193810C5F1F4F06C06081718180E02A
:102DC00090E00E5F1F4FA4010E94BD17A82EA81807
:102DD000FB2DFF77BF2EB6FE0BC02B2D2E7FA5142B
:102DE00050F4B4FE0AC0B2FC08C02B2D2E7E05C0E4
:102DF0007A2C2B2D03C07A2C01C0752C24FF0DC01A
:102E0000FE01EA0DF11D8081803311F4297E09C095
:102E100022FF06C07394739404C0822F867809F051
:102E2000739423FD13C020FF06C05A2C731418F4AA
:102E3000530C5718732C731468F4B70180E290E0B8
:102E40002C870E948B1773942C85F5CF731410F484
:102E5000371801C0312C24FF12C0B70180E390E085
:102E60002C870E948B172C8522FF17C021FF03C0DF
:102E700088E590E002C088E790E0B7010CC0822F9F
:102E8000867859F021FD02C080E201C08BE227FD67
:102E90008DE2B70190E00E948B17A51438F4B701BA
:102EA00080E390E00E948B175A94F7CFAA94F40124
:102EB000EA0DF11D8081B70190E00E948B17A110EF
:102EC000F5CF332009F451CEB70180E290E00E94A3
:102ED0008B173A94F6CFF7018681978102C08FEF66
:102EE0009FEF2C96E2E10C943718FC01059061509D
:102EF00070400110D8F7809590958E0F9F1F089510
:102F0000FC016150704001900110D8F780959095B8
:102F10008E0F9F1F08950F931F93CF93DF93182F4A
:102F2000092FEB018B8181FD03C08FEF9FEF20C044
:102F300082FF10C04E815F812C813D814217530773
:102F40007CF4E881F9819F012F5F3F4F398328830B
:102F5000108306C0E885F985812F0995892B29F70B
:102F60002E813F812F5F3F4F3F832E83812F902FF4
:102F7000DF91CF911F910F910895FA01AA27283070
:102F800051F1203181F1E8946F936E7F6E5F7F4F36
:102F90008F4F9F4FAF4FB1E03ED0B4E03CD0670FB2
:102FA000781F891F9A1FA11D680F791F8A1F911D05
:102FB000A11D6A0F711D811D911DA11D20D009F455
:102FC00068943F912AE0269F11243019305D319397
:102FD000DEF6CF010895462F4770405D4193B3E080
:102FE0000FD0C9F7F6CF462F4F70405D4A3318F027
:102FF000495D31FD4052419302D0A9F7EACFB4E0D8
:10300000A6959795879577956795BA95C9F700978F
:103010006105710508959B01AC010A2E0694579530
:10302000479537952795BA95C9F7620F731F841F87
:10303000951FA01D08952F923F924F925F926F921D
:103040007F928F929F92AF92BF92CF92DF92EF9238
:10305000FF920F931F93CF93DF93CDB7DEB7CA1BB9
:10306000DB0B0FB6F894DEBF0FBECDBF09942A88E4
:10307000398848885F846E847D848C849B84AA848C
:10308000B984C884DF80EE80FD800C811B81AA8119
:10309000B981CE0FD11D0FB6F894DEBF0FBECDBFE4
:0830A000ED010895F894FFCF43
:1030A8000000000200000000A704000000004C41DE
:1030B80052005045520058585800414B530048455B
:1030C8004E004348520020202000202020002020CD
:1030D8002000202020007B005C003E0036002800F5
:1030E80003000000000000000000414141004E4F75
:1030F800524D004641535400534C4F57000018009E
:103108001200102D3E00004D6164652062793A007E
:10311800260054544B343135352C20483230313761
:103128000053657474696E677300456E7465722028
:103138004E616D65004D757369632053656C6563F9
:1031480074696F6E0054756E696E670048696768C8
:1031580073636F726573004D61696E204D656E759E
:103168000053746172742047616D65004578697415
:103178002067616D6500524F554E44204F564552A9
:1031880000436F6E74696E756500456E64206761F3
:103198006D65002564005468652067616D65206869
:1031A800617320737461727465640043757272652B
:1031B8006E742073636F72653A20005448414E4B19
:1031C8005320464F5200504C4159494E472100590F
:1031D8004F55522053434F52453A2000456E74656F
:1031E80072206E616D653A20005F0054756E696EDD
:1031F800673A00496D70657269616C204D61726350
:103208006820005374617220776172732074686556
:103218006D65004E6F206D75736963202020202036
:103228002020004D757369633A0048696768207308
:10323800636F72653A002E200053544152540000C7
:00000001FF
