S00E00006E6F646520312E737265631F
S11300000C9438000C9457000C946B000C9455001D
S11300100C9455000C9455000C9455000C94550008
S11300200C9455000C9455000C9455000C945500F8
S11300300C9455000C9455000C9455000C945500E8
S11300400C9455000C9455000C9455000C945500D8
S11300500C9455000C9455000C9455000C945500C8
S11300600C9455000C9455000C9455000C945500B8
S113007011241FBECFEFD4E0DEBFCDBF11E0A0E05E
S1130080B1E0E4EAF1E002C005900D92A030B107BE
S1130090D9F721E0A0E0B1E001C01D92A430B2077D
S11300A0E1F70E94B7000C94D0000C9400001F925A
S11300B00F920FB60F9211248F939F9381E090E0DB
S11300C090930101809300019F918F910F900FBE37
S11300D00F901F9018951F920F920FB60F92112434
S11300E08F939F9381E090E09093030180930201AA
S11300F09F918F910F900FBE0F901F901895C09AEB
S11301000895C0980895B89A81B3806381BB949888
S113011095980E947F002FEF8FEF92E0215080404E
S11301209040E1F700C000C00E94810008959498B7
S1130130959A0E947F002FEF8FEF92E0215080402C
S11301409040E1F700C000C00E9481000895949897
S113015095980E947F002FEF8FEF92E0215080400E
S11301609040E1F700C000C00E94810008950E9401
S113017083000E9497002FEF8FEF95E92150804074
S11301809040E1F700C000000E94A7002FEF8FEF1E
S113019095E9215080409040E1F700C00000E9CF8C
S10701A0F894FFCFFD
S9030000FC
