:100000000C9460030C947F030C9498090C947D036A
:100010000C947D030C947D030C947D030C947D0360
:100020000C947D030C947D030C947D030C947D0350
:100030000C947D030C947D030C947D030C947D0340
:100040000C947D030C947D030C947D030C947D0330
:100050000C947D030C947D030C947D030C947D0320
:100060000C947D030C947D030C947D030C947D0310
:1000700000000000005C00000C000C007C287C28C4
:1000800058DC68002410480028542840000C000068
:10009000007884008478000054385400107C1000EC
:1000A00080400000101010000040000060100C00A4
:1000B00038543800487C40004864580044542C00B0
:1000C0001C107C005C5424003854240064140C0080
:1000D00068542C0048543800004800008048000054
:1000E0001028440028282800442810000454080040
:1000F00038445C00781478007C5428003844280088
:100100007C4438007C5444007C140400384474005F
:100110007C107C00447C440020403C007C106C003F
:100120007C4040007C187C0078103C00384438004B
:100130007C1408003844B8007C146800485424003B
:10014000047C04007C407C003C603C007C307C00F3
:100150006C106C000C700C0064544C00007C44006B
:100160000C106000447C00000804080080808000BF
:1001700000040800304878007C48300030484800CF
:1001800030487C00306850001078140090A8780047
:100190007C08700050744000808074007C106800FF
:1001A000447C4000781078007808700030483000B7
:1001B000F82810003048F80078100800505828003F
:1001C000083C4800384078003840380078207800F3
:1001D0004830480098A0780048685800107884009B
:1001E000007C00008478100008040804000000006F
:1001F0000000005F00000007000700147F147F1458
:10020000242A7F2A1223130864623649552250009B
:1002100005030000001C2241000041221C00082AA6
:100220001C2A0808083E080800503000000808088A
:100230000808006060000020100804023E51494593
:100240003E00427F400042615149462141454B31C9
:100250001814127F1027454545393C4A4949300159
:10026000710905033649494936064949291E0036B0
:100270003600000056360000000814224114141401
:10028000141441221408000201510906324979412F
:100290003E7E1111117E7F494949363E414141223E
:1002A0007F4141221C7F494949417F090901013EA3
:1002B000414151327F0808087F00417F41002040C2
:1002C000413F017F081422417F404040407F0204AB
:1002D000027F7F0408107F3E4141413E7F090909AA
:1002E000063E4151215E7F09192946464949493157
:1002F00001017F01013F4040403F1F2040201F7F00
:100300002018207F631408146303047804036151E8
:1003100049454300007F4141020408102041417FCC
:100320000000040201020440404040400001020479
:100330000020545454787F4844443838444444207E
:10034000384444487F3854545418087E0901020840
:100350001454543C7F0804047800447D400020403D
:10036000443D00007F10284400417F40007C041879
:1003700004787C0804047838444444387C14141409
:1003800008081414187C7C080404084854545420A9
:10039000043F4440203C4040207C1C2040201C3C2A
:1003A0004030403C44281028440C5050503C446499
:1003B000544C44000836410000007F0000004136E4
:1003C000080002010302010000000000000000001C
:1003D000065F5F0600000000070700070700001423
:1003E0007F7F147F7F1400242E6B6B3A120000462F
:1003F0006630180C666200307A4F5D377A48000428
:1004000007030000000000001C3E634100000000E4
:1004100041633E1C000000082A3E1C1C3E2A0808BE
:10042000083E3E0808000000A0E060000000000850
:100430000808080808000000006060000000006074
:1004400030180C060301003E7F594D7F3E000042EC
:10045000427F7F40400000627359496F660000226E
:100460006349497F360000181C16137F7F10002750
:100470006745457D3900003C7E4B497930000003DB
:100480006371190F070000367F49497F3600000667
:100490004F49693F1E000000006C6C000000000026
:1004A000A0EC6C00000000081C3663410000001442
:1004B00014141414140000004163361C08000002D8
:1004C0000351590F0600003E7F415D5D1F1E007CF9
:1004D0007E13137E7C0000417F7F49497F36001CDC
:1004E0003E634141632200417F7F41637F1C0041A5
:1004F0007F7F495D416300417F7F491D0103001CEF
:100500003E6341517372007F7F08087F7F000000C7
:10051000417F7F41000000307040417F3F0100413A
:100520007F7F081C776300417F7F41406070007FC0
:100530007F060C067F7F007F7F060C187F7F001CE4
:100540003E6341633E1C00417F7F49090F06001E48
:100550003F21717F5E0000417F7F19396F46002681
:10056000674D597B32000003417F7F410300007FCC
:100570007F40407F7F00001F3F60603F1F00007F83
:100580007F3018307F7F0063771C081C776300077B
:100590004F78784F0700006773594D47637100002B
:1005A0007F7F41410000000103060C18306000000D
:1005B00041417F7F000000080C0603060C08008004
:1005C000808080808080800000030704000000207D
:1005D0007454543C784000413F7F44447C38003898
:1005E0007C44446C280000307848493F7F40003804
:1005F0007C54545C180000487E7F49030200009838
:10060000BCA4A4F87C0400417F7F08047C7800002F
:10061000447D7D4000000040C484FD7D0000004119
:100620007F7F10386C440000417F7F400000007CD9
:100630007C0C180C7C78007C7C04047C78000038EE
:100640007C44447C38000084FCF8A4243C18001846
:100650003C24A4F8FC8400447C78441C1800004826
:100660005C54547424000000043E7F442400003C89
:100670007C40403C7C40001C3C60603C1C00003CDA
:100680007C6030607C3C00446C3810386C44009CCA
:10069000BCA0A0FC7C00004C64745C4C64000008AE
:1006A000083E7741410000000000777700000041DC
:1006B00041773E0808000002030103020301000025
:1006C00011241FBECFEFD4E0DEBFCDBF12E0A0E00B
:1006D000B1E0EAECF8E202C005900D92AA3BB10746
:1006E000D9F723E0AAEBB2E001C01D92A435B2070E
:1006F000E1F70E94B00E0C9463140C9400001F925A
:100700000F920FB60F9211248F939F9381E090E088
:100710009093BB028093BA029F918F910F900FBE6E
:100720000F901F9018955D9BFECF8CB908959C018A
:10073000442737FD4095542F60E070EB84E090E053
:100740000E9470112150310930BD29B988E18AB960
:1007500086E880BD80E091E0909351038093500340
:1007600008950E94F9050E94C6060E945B078091C9
:10077000BC029091BD02892B71F480E193E00E944C
:10078000290F0E941D0C0E94790A8091BC02909151
:10079000BD02892B91F308958091BC029091BD0216
:1007A000892B71F480E193E00E94290F0E941D0CB7
:1007B0000E94790A8091BC029091BD02892B91F32D
:1007C0000E94430C0E941D0C0E94700B61E070E0BF
:1007D00087E691E00E94EC0C0E941D0C2FEF8FE742
:1007E00096E1215080409040E1F700C000C00E9497
:1007F000430C0E941D0C089561E081E00E940A0BE9
:1008000062E070E08BE791E00E94EC0C28E230E0BF
:100810004AE050E064E170E08AE090E00E94630DFD
:1008200028E230E044E150E068E270E08AE090E0E5
:100830000E94630D24E130E049E150E068E270E09D
:1008400084E190E00E94630D2EE130E04BE150E046
:100850006EE170E087E190E00E94630D28E230E0F5
:100860004EE150E064E170E089E190E00E94630DA8
:1008700024E130E04EE150E068E270E08EE190E08B
:100880000E94630D24E130E043E250E064E170E057
:100890008EE190E00E94630D29E130E043E250E0F8
:1008A00064E170E083E290E00E94630D29E130E0B2
:1008B0004EE150E069E170E083E290E00E94630D58
:1008C00028E230E043E250E069E170E08EE190E040
:1008D0000E94630D28E230E04FE250E068E270E0F1
:1008E00085E290E00E94630D2EE130E04FE250E09F
:1008F00068E270E08FE290E00E94630D2EE130E04C
:1009000043E250E06EE170E08FE290E00E94630D00
:1009100024E130E045E250E06EE170E085E290E0F5
:100920000E94630D24E130E04FE250E064E170E0AA
:1009300085E290E00E94630D64E084E30E940A0B6C
:1009400062E070E084E891E00E94EC0C24E130E089
:1009500041E450E068E270E081E490E00E94630DC1
:1009600024E130E04BE450E064E170E081E490E0A9
:100970000E94630D2EE130E04BE450E064E170E052
:100980008BE490E00E94630D2EE130E041E450E002
:100990006EE170E08BE490E00E94630D24E130E0B2
:1009A0004DE450E068E270E08DE490E00E94630D59
:1009B00024E130E045E550E064E170E08DE490E052
:1009C0000E94630D2EE130E045E550E06EE170E0FD
:1009D0008DE490E00E94630D28E230E045E550E0B0
:1009E00068E270E08DE490E00E94630D24E130E065
:1009F00047E550E068E270E087E590E00E94630D13
:100A000024E130E04FE550E064E170E087E590E0FC
:100A10000E94630D29E130E04FE550E064E170E0B1
:100A20008FE590E00E94630D29E130E047E550E05A
:100A300069E170E08FE590E00E94630D28E230E00C
:100A40004FE550E069E170E087E590E00E94630DBA
:100A500067E082E30E940A0B61E070E086E891E0C3
:100A60000E94EC0C0E941D0C2FEF8FEF9EE0215096
:100A700080409040E1F700C000000895CF93DF93DD
:100A800080E895E20E9497030E94580C0E94BF09DB
:100A90000E94FC0365E971E08AE193E00E94C30EC5
:100AA00080E193E0909323038093220349EF55E084
:100AB0006EE971E088ED92E00E94B90E88ED92E057
:100AC00090931D0380931C03CAE1D3E0D093DF020F
:100AD000C093DE024BE557E069EA71E084EC92E0F6
:100AE0000E94B90E84EC92E09093DD028093DC02C8
:100AF00046EC56E069EB71E082EE92E00E94B90E9E
:100B000082EE92E09093C9028093C8024CE258E0D2
:100B100064EC71E086E293E00E94B90E86E293E015
:100B20009093E7028093E6026FEC71E080E193E03E
:100B30000E94C30E44EE58E069ED71E086EF92E04A
:100B40000E94B90E86EF92E09093130380931203F4
:100B500040E050E065E971E08EEC92E00E94B90E51
:100B6000E0911203F09113038EEC92E0958384835D
:100B7000D093D702C093D60241E859E064EE71E009
:100B80008CEE92E00E94B90E8CEE92E09093D3022C
:100B90008093D2027894DF91CF9108950F931F93A1
:100BA000CF93DF93CDB7DEB72C970FB6F894DEBFA7
:100BB0000FBECDBF9F938F938EEE91E09F938F9347
:100BC0008E010F5F1F4F1F930F930E9492110F9082
:100BD0000F900F900F900F900F90C8012C960FB6AA
:100BE000F894DEBF0FBECDBFDF91CF911F910F9163
:100BF00008958F929F92AF92BF92CF92DF92EF9221
:100C0000FF920F931F93CF93DF930E94430C0E9498
:100C1000700B62E070E081EF91E00E94EC0CC0E0AC
:100C2000D0E00F2EF1E48F2EF02D0F2EFAE59F2E3F
:100C3000F02DC12CD12CAA24A394B12C6894EE24BD
:100C4000E1F8F12C0E94790A0E94AB0A892B61F02D
:100C5000FE01E65BFE4F80818A3530F4FE01E65BE3
:100C6000FE4F8F5F808308C00E94AB0A892B21F062
:100C7000FE01E65BFE4F80820E94C00A892B61F074
:100C8000FE01E65BFE4F8081823430F0FE01E65BC0
:100C9000FE4F8150808308C00E94C00A892B21F03A
:100CA000FE01E65BFE4F90820E94E90A892B21F04B
:100CB000C330D1050CF421960E94D40A892B19F077
:100CC000DD230CF021970E94D40A892B21F0CF3F1D
:100CD0002FEFD20761F00E94E90A892B69F0C33037
:100CE000D10569F40A2D1B2DCE2DDF2D0AC00A2D4A
:100CF0001B2DCC2DDD2D05C00C2D1D2D02C00C2D66
:100D00001D2D63E08CE30E940A0B6E2D7F2D8AE47B
:100D100091E00E94EC0C0E941D0C0E94AB0A892BF2
:100D200029F50E94D40A892B09F50E94E90A892B2A
:100D3000E9F40E94C00A892BC9F49FEF2FE781E0F4
:100D4000915020408040E1F700C000C063E08C2F4C
:100D5000880F880F880F845C0E940A0B6E2D7F2DF0
:100D60008EEF91E00E94EC0C0E941D0C012B09F407
:100D700069CFDF91CF911F910F91FF90EF90DF909E
:100D8000CF90BF90AF909F908F900895CF92DF92B9
:100D9000EF92FF920F931F93CF93DF930E94430C28
:100DA0000E94700B62E070E080E092E00E94EC0C28
:100DB00001E010E0EE24E394F12CC12CD12C0E9430
:100DC000790A0E94D40A3E2D2F2D892B11F43C2D37
:100DD0002D2DC32FD22F0E94E90A892B11F0CE2D81
:100DE000DF2D0E94C00A892B71F08091C002909182
:100DF000C102823091053CF401969093C102809328
:100E0000C0020E2D1F2D0E94AB0A892B21F180916B
:100E1000C0029091C10218161906ECF40197909344
:100E2000C1028093C00263E08CE30E940A0B8091B0
:100E3000C0029091C1029C01220F331F220F331F69
:100E4000820F931F62E070E0825B9E4F0E94EC0C69
:100E50000E941D0C19C063E08CE30E940A0B809174
:100E6000C0029091C1029C01220F331F220F331F39
:100E7000820F931F62E070E0825B9E4F0E94EC0C39
:100E80000E941D0C012B49F09FEF2FEF82E0915043
:100E900020408040E1F700C000C0CD2B19F40C2D9C
:100EA0001D2D8DCFDF91CF911F910F91FF90EF906E
:100EB000DF90CF900895AF92BF92CF92DF92EF92E2
:100EC000FF920F931F93CF93DF93CDB7DEB76E974B
:100ED0000FB6F894DEBF0FBECDBFFE0131968EE196
:100EE000DF011D928A95E9F78CE092E09A8389836D
:100EF0008CE192E09C838B838CE292E09E838D83D5
:100F00000E94430C0E94700B62E070E08CE392E060
:100F10000E94EC0C01E010E0AA24A394B12CC12C97
:100F2000D12C0E94790A0E94D40A892B29F001153C
:100F3000110509F473C07AC00E94E90A892B31F0C7
:100F40000115110531F4EA2CFB2C05C0EC2CFD2C0D
:100F500002C0EC2CFD2C0E94C00A892B71F08091FC
:100F6000BE029091BF02823091053CF401969093AD
:100F7000BF028093BE020A2D1B2D0E94AB0A892B53
:100F800029F18091BE029091BF0218161906F4F45F
:100F900001979093BF028093BE0263E08EE10E94AE
:100FA0000A0BE091BE02F091BF02EE0FFF1F81E03D
:100FB00090E08C0F9D1FE80FF91F6A2D7B2D80811B
:100FC00091810E94EC0C0E941D0C1AC063E08EE11E
:100FD0000E940A0BE091BE02F091BF02EE0FFF1FCC
:100FE000A1E0B0E0AC0FBD1FEA0FFB1F6A2D7B2D07
:100FF000808191810E94EC0C0E941D0C012B49F014
:10100000BFEF2FEF82E0B15020408040E1F700C0F9
:1010100000C0EF2881F40C2D1D2D83CF0E94E90A1A
:10102000892B09F090CFEA2CFB2C95CF0E94E90A7E
:10103000EC2CFD2C90CF6E960FB6F894DEBF0FBE51
:10104000CDBFDF91CF911F910F91FF90EF90DF9077
:10105000CF90BF90AF9008954F925F926F927F9222
:101060008F929F92AF92BF92CF92DF92EF92FF92B8
:101070000F931F93CF93DF930E94430C0E94700B3A
:1010800062E070E083E492E00E94EC0C0F2EFEE040
:101090008F2EF1E09F2EF02D0F2EF6E36F2EF1E054
:1010A0007F2EF02D6894442441F8512C0E94790A37
:1010B0000E94D40A5C0174018301C42DD52D6C2FCC
:1010C00081E00E940A0BCE0101970E94CE0561E0EB
:1010D00070E00E94EC0C61E070E08FE492E00E940E
:1010E000EC0C61E070E0C7010E94EC0C61E070E084
:1010F0008BEF91E00E94EC0C6801F80180819181F6
:101100000E94CE0561E070E00E94EC0CF801808145
:101110009181843691053CF061E070E08AE392E0D1
:101120000E94EC0C0FC00A973CF061E070E089E38C
:1011300092E00E94EC0C06C061E070E088E392E06F
:101140000E94EC0CCE010E94CE0561E070E00E948E
:10115000EC0C61E070E08FE492E00E94EC0C61E046
:1011600070E0C70104960E94EC0C61E070E08BEF28
:1011700091E00E94EC0CF601828193810E94CE05E1
:1011800061E070E00E94EC0C2296F8E0EF0EF11C9A
:101190000C5F1F4FC830D10509F091CF0E941D0C84
:1011A000AB2809F483CFDF91CF911F910F91FF906E
:1011B000EF90DF90CF90BF90AF909F908F907F90F7
:1011C0006F905F904F900895CF93DF93CDB7DEB7C8
:1011D0002A970FB6F894DEBF0FBECDBF80E390E034
:1011E000A0E0B0E089839A83AB83BC83FE0135968F
:1011F00086E0DF011D928A95E9F70E94430C0E9468
:10120000700B61E070E082E592E00E94EC0C0E94BD
:101210001D0C0E94790A0E94D40A892B61F10E9458
:10122000430C0E94700B61E070E087E692E00E9440
:10123000EC0C63E080E00E940A0B61E070E083E860
:1012400092E00E94EC0C64E080E00E940A0B61E0F6
:1012500070E086E992E00E94EC0C0E941D0C0E9456
:10126000790A0E94D40A892B29F50E94E90A892B60
:10127000B1F30E94430C0E94700B61E070E082E5C4
:1012800092E00E94EC0C63E080E00E940A0B61E0B7
:1012900070E089EA92E00E94EC0C63E080E50E9435
:1012A0000A0B61E070E0CE0101960E94EC0C0E94F6
:1012B0001D0CAFCF0E94700B61E070E082E592E000
:1012C0000E94EC0C63E080E00E940A0B61E070E099
:1012D00089EA92E00E94EC0C63E080E50E940A0B30
:1012E00061E070E0CE0101960E94EC0C0E941D0CA2
:1012F0002A960FB6F894DEBF0FBECDBFDF91CF9117
:10130000089581E090E09093BD028093BC0208951F
:101310008D5F809300148091C2029091C302892B4B
:10132000D1F31092C3021092C2028091001408956A
:101330001F920F920FB60F9211248F939F9381E00B
:1013400090E09093C3028093C2029F918F910F907F
:101350000FBE0F901F90189581E090E00E948809C1
:1013600090E090930F0380930E0382E090E00E9440
:10137000880990E09093250380932403089578943E
:1013800085B7886085BF8BB780688BBF87B3817F47
:1013900087BB0E94AC09F8940895CF92DF92EF9238
:1013A000FF920F931F93CF93DF9300D000D000D014
:1013B000CDB7DEB781E090E00E948809082F82E077
:1013C00090E00E948809C82E20910E0330910F03EF
:1013D000E0902403F090250316B3802F90E0821B49
:1013E000930B0F2EF4E6DF2EF02DD89EB001D99E80
:1013F000700D1124882777FD8095982F0E94BC10CE
:1014000020E030E04EEF52E40E9421100E9489104B
:10141000062F862F972F9A8389838C2D90E08E1923
:101420009F09D89EB001D99E700D1124882777FDA1
:101430008095982F0E94BC1020E030E04EEF52E4DF
:101440000E9421100E948910862F972F9C838B83E6
:1014500016951695169581E0182711701D831E822A
:10146000202F3A81462F5C81612F70E080E090E070
:1014700026960FB6F894DEBF0FBECDBFDF91CF9199
:101480001F910F91FF90EF90DF90CF90089583E030
:1014900090E00E94880924E6829FC0011124BC01CB
:1014A000882777FD8095982F0E94BC1020E030E0BF
:1014B0004FE753E40E9421100E948910CB01089548
:1014C00084E090E00E94880924E6829FC0011124F4
:1014D000BC01882777FD8095982F0E94BC1020E0E2
:1014E00030E04FE753E40E9421100E948910CB01A5
:1014F00008958EE0E0E0F3E0A0E3B3E001900D9208
:101500008A95E1F70E94CD092093000330930103EF
:101510004093020350930303609304037093050305
:101520000E94470A90930703809306030E94600A73
:10153000909309038093080386B3827090E09093A0
:101540000B0380930A0386B3847090E090930D039D
:1015500080930C0308958091320390913303853C6E
:101560009F4F5CF081E090E02091020330910303F3
:10157000243C3F4F24F080E0089580E090E00895FF
:101580008091320390913303CC975CF481E090E03A
:1015900020910203309103032D33310524F480E0C0
:1015A000089580E090E00895809130039091310398
:1015B000853C9F4F5CF081E090E0209100033091EA
:1015C0000103243C3F4F24F080E0089580E090E048
:1015D00008958091300390913103CC975CF481E0C1
:1015E00090E020910003309101032D33310524F464
:1015F00080E0089580E090E0089585B7806885BF19
:1016000080B7806280BF0895FC0160830895FC016B
:101610008081089560933F0380933E03E0916101D0
:10162000F091620180913F038770806B8083E0912D
:101630006101F091620180913E038F708083E0919F
:101640006101F091620180913E0382958F7080610B
:1016500080830895E0916101F091620190913F03D0
:101660009770906B9083E0916101F091620190918D
:101670003E039F709083E0916101F091620190912F
:101680003E0392959F7090619083E0915F01F0918D
:10169000600180830895FF920F931F93CF93DF9390
:1016A000F0903E0300913F03D0E010E00DC06D2F9D
:1016B0008C2F0E940A0B812F0E942A0BCF5FC0380B
:1016C000B1F7DF5FD83011F0C12FF1CFF0923E03B8
:1016D00000933F03DF91CF911F910F91FF900895E9
:1016E00060E080E00E940A0B089590913E032091F3
:1016F0003F0340E8249F90011124290F311D21153B
:1017000094E0390750F440915D0150915E01682FDB
:10171000CA01820F931F0E94040B08950F931F9319
:10172000CF93DF9328E0829FC0011124EC01C953BD
:10173000DD4F00E010E0FE0184910E94750B609186
:101740003F0380913E038F5F0E940A0B0F5F1F4F84
:1017500021960830110579F780E090E0DF91CF9174
:101760001F910F9108950F931F93CF93DF93C82F6D
:10177000D0E0A097CE01880F991F880F991FC80F3E
:10178000D91FC451DE4F00E010E0FE0184910E9499
:10179000750B60913F0380913E038F5F0E940A0B9F
:1017A0000F5F1F4F21960530110579F780E090E01B
:1017B000DF91CF911F910F9108950F931F93CF93B6
:1017C000DF9324E0829FC0011124EC01C051D0407E
:1017D00000E010E0FE0184910E94750B60913F03D0
:1017E00080913E038F5F0E940A0B0F5F1F4F21966F
:1017F0000430110579F780E090E0DF91CF911F91DF
:101800000F91089520913E0380913F0330E8839F1C
:10181000C0011124820F911D9C01215031092F3FDD
:10182000334048F420915D0130915E01820F931F97
:101830000E94070B089580E00895FF920F931F9375
:10184000CF93DF93F0903E0300913F03D0E010E090
:101850000EC06C2F8D2F0E940A0B0E94020C0E945A
:101860002A0BCF5FC830A9F7DF5FD03811F0C12F46
:10187000F0CFF0923E0300933F03DF91CF911F9191
:101880000F91FF900895CF93DF93C0E0D0E0809157
:101890005D0190915E0160E08C0F9D1F0E94040B22
:1018A0002196C11584E0D80791F7DF91CF91089573
:1018B0000E94FD0A10923F0310923E03E0916101E5
:1018C000F09162018EEA8083E0916101F091620102
:1018D00081EA8083E0916101F09162018AED808369
:1018E000E0916101F091620182E18083E091610108
:1018F000F091620188EC8083E0916101F0916201D6
:1019000088EA8083E0916101F09162018FE3808336
:10191000E0916101F091620185ED8083E0916101C8
:10192000F091620180E88083E0916101F0916201B1
:1019300081E88083E0916101F091620180E580831C
:10194000E0916101F091620189ED8083E091610194
:10195000F091620181E28083E0916101F091620186
:1019600082E28083E0916101F091620182E08083F4
:10197000E0916101F09162018BED8083E091610162
:10198000F091620180E38083E0916101F091620156
:101990008DEA8083E0916101F09162011082E09113
:1019A0006101F091620184EA8083E0916101F0912C
:1019B000620186EA8083E0916101F091620180E436
:1019C0008083E0916101F09162018FEA80830E943F
:1019D0004B0B0E94430C0895CF93DF93EC016115EC
:1019E000710551F48881882301F121960E94DD0B55
:1019F00089918111FBCF19C06130710551F4888143
:101A0000882399F021960E94B30B89918111FBCF15
:101A10000CC06230710549F48881882331F0219629
:101A20000E948E0B89918111FBCFDF91CF91089598
:101A3000FF920F931F93CF93DF93EA0100913E0330
:101A400010913F039B0127703078332334F42150E9
:101A50003109286F3F6F2F5F3F4FF22EFB01FF23AD
:101A60000CF43796BF0175956795759567957595D3
:101A700067950E940A0BCD2B79F40E94020C41E07D
:101A800050E09A0102C0220F331FFA94E2F720952A
:101A900082230E94750B0DC00E94020C41E050E0B1
:101AA0009A0102C0220F331FFA94E2F7822B0E94A0
:101AB000750B00933E0310933F03DF91CF911F916D
:101AC0000F91FF9008952F923F924F925F926F92E5
:101AD0007F928F929F92AF92BF92CF92DF92EF92BE
:101AE000FF920F931F93CF93DF93CDB7DEB7289765
:101AF0000FB6F894DEBF0FBECDBF2C013B018A01AB
:101B000019014817590709F4ADC02617370709F41A
:101B100044C0B90166197709882777FD8095982F09
:101B20000E94BC104B015C01B8016419750988273B
:101B300077FD8095982F0E94BC106B017C019B0162
:101B4000AC01C501B4010E94211069837A838B83A3
:101B50009C83A5019401C701B6010E9421106D83E9
:101B60007E838F83988720E030E040E85FE36981DF
:101B70007A818B819C810E941D1088230CF076C095
:101B800020E030E040E85FEB69817A818B819C81C5
:101B90000E946C1118162CF069C019821A821B82DF
:101BA0001C820415150534F43101942D852D28016E
:101BB000092F182FB301882777FD8095982F0E9451
:101BC000BC104B015C01B201882777FD8095982FEE
:101BD0000E94BC106B017C0141E050E0B301C201E6
:101BE0000E94180DB801882777FD8095982F0E94D4
:101BF000BC106D837E838F8398879B01AC01C701E6
:101C0000B6010E941D1088230CF091C029813A81F1
:101C10004B815C81C501B4010E94B90F4B015C018D
:101C20000E9489102B013C01C701B6010E94891056
:101C3000DC01CB0141E050E0B2010E94180D20E030
:101C400030E040E85FE3C701B6010E94B90F6B01C5
:101C50007C012D813E814F8158850E941D10882373
:101C6000ACF265C01D821E821F82188626143704BE
:101C700034F4962D872D3101292E382E2801B301F9
:101C8000882777FD8095982F0E94BC106B017C01FE
:101C9000B201882777FD8095982F0E94BC104B01D8
:101CA0005C0141E050E0B301C2010E94180DB10196
:101CB000882777FD8095982F0E94BC1069837A83CE
:101CC0008B839C839B01AC01C701B6010E941D1050
:101CD00088236CF52D813E814F815885C501B40163
:101CE0000E94B90F4B015C01C701B6010E94891027
:101CF0002B013C01C501B4010E948910DC01CB011C
:101D000041E050E0B2010E94180D20E030E040E8D0
:101D10005FE3C701B6010E94B90F6B017C01298105
:101D20003A814B815C810E941D1088239CF2289689
:101D30000FB6F894DEBF0FBECDBFDF91CF911F91DC
:101D40000F91FF90EF90DF90CF90BF90AF909F905A
:101D50008F907F906F905F904F903F902F9008955D
:101D60000E943E050E94B1030E94CC0380E090E0F7
:101D70000895FC017183608315821482538342832A
:101D8000118610860895FC0171836083138212828C
:101D90001582148297838683118610860895FF9298
:101DA0000F931F93CF93DF938C0160E08AE00E9432
:101DB0000A0BD8011696ED91FC91179762E070E03E
:101DC000808191810E94EC0CD8011696ED91FC91D6
:101DD0001797C281D381209799F06894FF24F1F876
:101DE0006F2D84E10E940A0B61E070E08881998187
:101DF0000E94EC0C0C80DD81C02DF394209781F7BC
:101E0000D8011696ED91FC91179764816E5F8AE078
:101E10000E940A0B61E070E083E691E00E94EC0C06
:101E2000DF91CF911F910F91FF900895DC011296E1
:101E3000ED91FC911397309749F080E090E0019686
:101E40000480F581E02D3097D1F7089580E090E08F
:101E50000895CF92DF92EF92FF920F931F93CF934B
:101E6000DF936C01FC01068117810E94C00A892B57
:101E700069F0F8018481958118161906ECF4019730
:101E800095838483EE24E394F12C20C00E94AB0A56
:101E9000892BB1F0F801C481D581C8010E94160FC9
:101EA0000197C817D9077CF42196F801D583C4831C
:101EB000EE24E394F12C0AC0EE24E394F12C06C046
:101EC000E12CF12C03C0EE24E394F12C0E94E90AEA
:101ED000892B11F1F801C281D3812097E9F0448167
:101EE00055811416150654F420E030E00C80DD8195
:101EF000C02D2F5F3F4F24173507C1F7EA81FB81C3
:101F0000309709F0099588859985009709F4C801EB
:101F1000FFEFEF1AFF0A8C010E94D40A892B51F0BF
:101F2000F80180859185009709F4C801FFEFEF1A49
:101F3000FF0A8C01F601178306838EE0E0E0F3E0F0
:101F4000A0E4B3E001900D928A95E1F7EF2839F013
:101F50000E94430CF601868197810E94CF0EDF918B
:101F6000CF911F910F91FF90EF90DF90CF90089548
:101F70005058BB27AA270ED075C166D130F06BD15F
:101F800020F031F49F3F11F41EF45BC10EF4E09594
:101F9000E7FB51C1E92F77D180F3BA1762077307C6
:101FA0008407950718F071F49EF58FC10EF4E09543
:101FB0000B2EBA2FA02D0B01B90190010C01CA0103
:101FC000A0011124FF27591B99F0593F50F4503EAE
:101FD00068F11A16F040A22F232F342F4427585FA0
:101FE000F3CF469537952795A795F0405395C9F7B8
:101FF0007EF41F16BA0B620B730B840BBAF0915070
:10200000A1F0FF0FBB1F661F771F881FC2F70EC00E
:10201000BA0F621F731F841F48F4879577956795E1
:10202000B795F7959E3F08F0B3CF9395880F08F0CA
:102030009927EE0F979587950895D9D008F481E0F8
:1020400008950CD00FC107D140F0FED030F021F43C
:102050005F3F19F0F0C0511139C1F3C014D198F3AA
:102060009923C9F35523B1F3951B550BBB27AA2719
:1020700062177307840738F09F5F5F4F220F331F8B
:10208000441FAA1FA9F333D00E2E3AF0E0E830D057
:1020900091505040E695001CCAF729D0FE2F27D05A
:1020A000660F771F881FBB1F261737074807AB0728
:1020B000B0E809F0BB0B802DBF01FF2793585F4F9D
:1020C0002AF09E3F510568F0B6C000C15F3FECF3B7
:1020D000983EDCF3869577956795B795F7959F5F62
:1020E000C9F7880F911D9695879597F90895E1E0B6
:1020F000660F771F881FBB1F621773078407BA0715
:1021000020F0621B730B840BBA0BEE1F88F7E0956F
:10211000089504D06894B111D9C00895BCD088F056
:102120009F5790F0B92F9927B751A0F0D1F0660FC3
:10213000771F881F991F1AF0BA95C9F712C0B130DE
:1021400081F0C3D0B1E00895C0C0672F782F8827F1
:10215000B85F39F0B93FCCF3869577956795B3951D
:10216000D9F73EF490958095709561957F4F8F4F8C
:102170009F4F0895E89409C097FB3EF49095809591
:10218000709561957F4F8F4F9F4F9923A9F0F92F3D
:1021900096E9BB279395F695879577956795B795BB
:1021A000F111F8CFFAF4BB0F11F460FF1BC06F5FA1
:1021B0007F4F8F4F9F4F16C0882311F096E911C0B3
:1021C000772321F09EE8872F762F05C0662371F0D4
:1021D00096E8862F70E060E02AF09A95660F771FE8
:1021E000881FDAF7880F9695879597F90895990FC4
:1021F0000008550FAA0BE0E8FEEF16161706E807D1
:10220000F907C0F012161306E407F50798F0621BF1
:10221000730B840B950B39F40A2661F0232B242BC6
:10222000252B21F408950A2609F4A140A6958FEFE5
:10223000811D811D089597F99F6780E870E060E037
:1022400008959FEF80EC089500240A94161617064F
:1022500018060906089500240A9412161306140697
:1022600005060895092E0394000C11F4882352F0FA
:10227000BB0F40F4BF2B11F460FF04C06F5F7F4FB2
:102280008F4F9F4F089557FD9058440F551F59F099
:102290005F3F71F04795880F97FB991F61F09F3F53
:1022A00079F087950895121613061406551FF2CF7C
:1022B0004695F1DF08C0161617061806991FF1CFCC
:1022C00086957105610508940895E894BB276627F3
:1022D0007727CB0197F908958ADF08F48FEF0895E7
:1022E000A1E21A2EAA1BBB1BFD010DC0AA1FBB1F1A
:1022F000EE1FFF1FA217B307E407F50720F0A21B8C
:10230000B30BE40BF50B661F771F881F991F1A94F8
:1023100069F760957095809590959B01AC01BD0122
:10232000CF010895AEE0B0E0E8E9F1E10C943A1491
:102330000D891E8986E08C831A8309838FEF9FE7BE
:102340009E838D83AE01475E5F4F6F89788DCE018E
:1023500001960E94B411EF81F885E00FF11F108201
:102360002E96E4E00C945614ACE0B0E0EAEBF1E118
:102370000C942C147C016B018A01FC0117821682DB
:10238000838181FFBDC1CE0101964C01F70193818C
:10239000F60193FD859193FF81916F01882309F4E4
:1023A000ABC1853239F493FD859193FF81916F0123
:1023B000853229F4B70190E00E949C13E7CF512C9D
:1023C000312C20E02032A0F48B3269F030F48032DE
:1023D00059F0833269F420612CC08D3239F080339A
:1023E00039F4216026C02260246023C0286021C007
:1023F00027FD27C030ED380F3A3078F426FF06C0AD
:10240000FAE05F9E300D1124532E13C08AE0389EEF
:10241000300D1124332E20620CC08E3221F426FDA3
:102420006BC1206406C08C3611F4206802C0883667
:1024300041F4F60193FD859193FF81916F01811124
:10244000C1CF982F9F7D9554933028F40C5F1F4F78
:10245000FFE3F9830DC0833631F0833771F08335A4
:1024600009F05BC022C0F801808189830E5F1F4F95
:1024700044244394512C540115C03801F2E06F0EEE
:10248000711CF801A080B18026FF03C0652D70E0AB
:1024900002C06FEF7FEFC5012C870E9491132C01C2
:1024A00083012C852F77222E17C03801F2E06F0EA2
:1024B000711CF801A080B18026FF03C0652D70E07B
:1024C00002C06FEF7FEFC5012C870E9486132C019D
:1024D0002C852068222E830123FC1BC0832D90E0D5
:1024E00048165906B0F4B70180E290E00E949C13B0
:1024F0003A94F4CFF50127FC859127FE81915F0185
:10250000B70190E00E949C1331103A94F1E04F1A09
:1025100051084114510471F7E5C0843611F0893631
:1025200039F5F80127FF07C06081718182819381AD
:102530000C5F1F4F08C060817181882777FD8095EF
:10254000982F0E5F1F4F2F76B22E97FF09C09095E0
:102550008095709561957F4F8F4F9F4F2068B22E69
:102560002AE030E0A4010E94CE13A82EA81844C08F
:10257000853729F42F7EB22E2AE030E025C0F22FD5
:10258000F97FBF2E8F36C1F018F4883579F0B4C0CA
:10259000803719F0883721F0AFC02F2F2061B22E7D
:1025A000B4FE0DC08B2D8460B82E09C024FF0AC074
:1025B0009F2F9660B92E06C028E030E005C020E1CC
:1025C00030E002C020E132E0F801B7FE07C06081D0
:1025D0007181828193810C5F1F4F06C06081718180
:1025E00080E090E00E5F1F4FA4010E94CE13A82E42
:1025F000A818FB2DFF77BF2EB6FE0BC02B2D2E7F0C
:10260000A51450F4B4FE0AC0B2FC08C02B2D2E7ED7
:1026100005C07A2C2B2D03C07A2C01C0752C24FF09
:102620000DC0FE01EA0DF11D8081803311F4297E79
:1026300009C022FF06C07394739404C0822F867869
:1026400009F0739423FD13C020FF06C05A2C7314A5
:1026500018F4530C5718732C731468F4B70180E204
:1026600090E02C870E949C1373942C85F5CF7314F3
:1026700010F4371801C0312C24FF12C0B70180E3D9
:1026800090E02C870E949C132C8522FF17C021FF0D
:1026900003C088E590E002C088E790E0B7010CC075
:1026A000822F867859F021FD02C080E201C08BE2C2
:1026B00027FD8DE2B70190E00E949C13A51438F429
:1026C000B70180E390E00E949C135A94F7CFAA943C
:1026D000F401EA0DF11D8081B70190E00E949C1386
:1026E000A110F5CF332009F451CEB70180E290E07C
:1026F0000E949C133A94F6CFF7018681978102C01D
:102700008FEF9FEF2C96E2E10C944814FC010590AA
:10271000615070400110D8F7809590958E0F9F1FE3
:102720000895FC016150704001900110D8F7809528
:1027300090958E0F9F1F08950F931F93CF93DF9354
:10274000182F092FEB018B8181FD03C08FEF9FEFC5
:1027500020C082FF10C04E815F812C813D814217D5
:1027600053077CF4E881F9819F012F5F3F4F398344
:102770002883108306C0E885F985812F0995892B68
:1027800029F72E813F812F5F3F4F3F832E83812F7B
:10279000902FDF91CF911F910F910895FA01AA27F1
:1027A000283051F1203181F1E8946F936E7F6E5F94
:1027B0007F4F8F4F9F4FAF4FB1E03ED0B4E03CD042
:1027C000670F781F891F9A1FA11D680F791F8A1F25
:1027D000911DA11D6A0F711D811D911DA11D20D08C
:1027E00009F468943F912AE0269F11243019305D46
:1027F0003193DEF6CF010895462F4770405D419337
:10280000B3E00FD0C9F7F6CF462F4F70405D4A3383
:1028100018F0495D31FD4052419302D0A9F7EACF4B
:10282000B4E0A6959795879577956795BA95C9F77A
:1028300000976105710508959B01AC010A2E06946D
:102840005795479537952795BA95C9F7620F731F26
:10285000841F951FA01D08952F923F924F925F9263
:102860006F927F928F929F92AF92BF92CF92DF92A0
:10287000EF92FF920F931F93CF93DF93CDB7DEB705
:10288000CA1BDB0B0FB6F894DEBF0FBECDBF099499
:102890002A88398848885F846E847D848C849B84F0
:1028A000AA84B984C884DF80EE80FD800C811B81FE
:1028B000AA81B981CE0FD11D0FB6F894DEBF0FBE2D
:0A28C000CDBFED010895F894FFCF9D
:1028CA0000000002000000009303000000004C41D9
:1028DA0052005045520058585800414B5300484541
:1028EA004E004348520020202000202020002020B3
:1028FA002000202020007B005C003E0036002800DB
:10290A000300000000000000000041414100454171
:10291A005359004E4F524D0048415244000018008E
:10292A001200102D3E00005468616E6B20752066FF
:10293A006F7220706C6179696E67004D6164652001
:10294A0062793A00260054544B343135352C2048EC
:10295A00323031370053657474696E677300456E9F
:10296A00746572204E616D65004D757369632053FD
:10297A00656C656374696F6E004469666669637540
:10298A006C7479004869676873636F726573004D88
:10299A0061696E204D656E750053746172742047CB
:1029AA00616D6500457869742067616D650025640D
:1029BA0000456E746572206E616D653A20005F0095
:1029CA00446966666963756C74793A00496D706525
:1029DA007269616C204D6172636820005374617280
:1029EA002077617273207468656D65004E6F206D83
:1029FA007573696320202020202020004D7573699B
:102A0A00633A00486967682073636F72653A002EFB
:102A1A0020005468652067616D65206861732073C2
:102A2A0074617274656400417265207520737572F1
:102A3A006520752077616E7420746F206C656176ED
:102A4A00653F006A6F797469636B206C65667420F0
:102A5A003D20796573006A6F797469636B207269C6
:102A6A00676874203D206E6F0043757272656E74DC
:0A2A7A002073636F72653A200000BC
:00000001FF
