S00E00006E6F646520312E737265631F
S11300000C9460030C94E8030C941E0B0C947D0375
S11300100C947D030C947D030C947D030C947D035C
S11300200C947D030C947D030C947D030C947D034C
S11300300C947D030C947D030C947D030C947D033C
S11300400C947D030C947D030C947D030C947D032C
S11300500C947D030C947D030C947D030C947D031C
S11300600C947D030C947D030C947D030C947D030C
S113007000000000005C00000C000C007C287C28C0
S113008058DC68002410480028542840000C000064
S1130090007884008478000054385400107C1000E8
S11300A080400000101010000040000060100C00A0
S11300B038543800487C40004864580044542C00AC
S11300C01C107C005C5424003854240064140C007C
S11300D068542C0048543800004800008048000050
S11300E0102844002828280044281000045408003C
S11300F038445C00781478007C5428003844280084
S11301007C4438007C5444007C140400384474005B
S11301107C107C00447C440020403C007C106C003B
S11301207C4040007C187C0078103C003844380047
S11301307C1408003844B8007C1468004854240037
S1130140047C04007C407C003C603C007C307C00EF
S11301506C106C000C700C0064544C00007C440067
S11301600C106000447C00000804080080808000BB
S113017000040800304878007C48300030484800CB
S113018030487C00306850001078140090A8780043
S11301907C08700050744000808074007C106800FB
S11301A0447C4000781078007808700030483000B3
S11301B0F82810003048F80078100800505828003B
S11301C0083C4800384078003840380078207800EF
S11301D04830480098A07800486858001078840097
S11301E0007C00008478100008040804000000006B
S11301F00000005F00000007000700147F147F1454
S1130200242A7F2A12231308646236495522500097
S113021005030000001C2241000041221C00082AA2
S11302201C2A0808083E0808005030000008080886
S11302300808006060000020100804023E5149458F
S11302403E00427F400042615149462141454B31C5
S11302501814127F1027454545393C4A4949300155
S1130260710905033649494936064949291E0036AC
S113027036000000563600000008142241141414FD
S1130280141441221408000201510906324979412B
S11302903E7E1111117E7F494949363E414141223A
S11302A07F4141221C7F494949417F090901013E9F
S11302B0414151327F0808087F00417F41002040BE
S11302C0413F017F081422417F404040407F0204A7
S11302D0027F7F0408107F3E4141413E7F090909A6
S11302E0063E4151215E7F09192946464949493153
S11302F001017F01013F4040403F1F2040201F7FFC
S11303002018207F631408146303047804036151E4
S113031049454300007F4141020408102041417FC8
S11303200000040201020440404040400001020475
S11303300020545454787F4844443838444444207A
S1130340384444487F3854545418087E090102083C
S11303501454543C7F0804047800447D4000204039
S1130360443D00007F10284400417F40007C041875
S113037004787C0804047838444444387C14141405
S113038008081414187C7C080404084854545420A5
S1130390043F4440203C4040207C1C2040201C3C26
S11303A04030403C44281028440C5050503C446495
S11303B0544C44000836410000007F0000004136E0
S11303C00800020103020100000000000000000018
S11303D0065F5F060000000007070007070000141F
S11303E07F7F147F7F1400242E6B6B3A120000462B
S11303F06630180C666200307A4F5D377A48000424
S113040007030000000000001C3E634100000000E0
S113041041633E1C000000082A3E1C1C3E2A0808BA
S1130420083E3E0808000000A0E06000000000084C
S11304300808080808000000006060000000006070
S113044030180C060301003E7F594D7F3E000042E8
S1130450427F7F40400000627359496F660000226A
S11304606349497F360000181C16137F7F1000274C
S11304706745457D3900003C7E4B497930000003D7
S11304806371190F070000367F49497F3600000663
S11304904F49693F1E000000006C6C000000000022
S11304A0A0EC6C00000000081C366341000000143E
S11304B014141414140000004163361C08000002D4
S11304C00351590F0600003E7F415D5D1F1E007CF5
S11304D07E13137E7C0000417F7F49497F36001CD8
S11304E03E634141632200417F7F41637F1C0041A1
S11304F07F7F495D416300417F7F491D0103001CEB
S11305003E6341517372007F7F08087F7F000000C3
S1130510417F7F41000000307040417F3F01004136
S11305207F7F081C776300417F7F41406070007FBC
S11305307F060C067F7F007F7F060C187F7F001CE0
S11305403E6341633E1C00417F7F49090F06001E44
S11305503F21717F5E0000417F7F19396F4600267D
S1130560674D597B32000003417F7F410300007FC8
S11305707F40407F7F00001F3F60603F1F00007F7F
S11305807F3018307F7F0063771C081C7763000777
S11305904F78784F0700006773594D476371000027
S11305A07F7F41410000000103060C183060000009
S11305B041417F7F000000080C0603060C08008000
S11305C08080808080808000000307040000002079
S11305D07454543C784000413F7F44447C38003894
S11305E07C44446C280000307848493F7F40003800
S11305F07C54545C180000487E7F49030200009834
S1130600BCA4A4F87C0400417F7F08047C7800002B
S1130610447D7D4000000040C484FD7D0000004115
S11306207F7F10386C440000417F7F400000007CD5
S11306307C0C180C7C78007C7C04047C78000038EA
S11306407C44447C38000084FCF8A4243C18001842
S11306503C24A4F8FC8400447C78441C1800004822
S11306605C54547424000000043E7F442400003C85
S11306707C40403C7C40001C3C60603C1C00003CD6
S11306807C6030607C3C00446C3810386C44009CC6
S1130690BCA0A0FC7C00004C64745C4C64000008AA
S11306A0083E7741410000000000777700000041D8
S11306B041773E0808000002030103020301000021
S11306C011241FBECFEFD4E0DEBFCDBF12E0A0E007
S11306D0B1E0E6EFFEE202C005900D92A83DB1073D
S11306E0D9F723E0A8EDB2E001C01D92A238B20709
S11306F0E1F70E9485110C9479170C940000CF93B4
S1130700C82F0E942B054FEF60E680E60E9430055B
S113071041E061E08BE20E943005CC2319F0C13046
S113072039F00BC040E460EE8FE00E94300505C054
S113073040E060EE8FE00E94300585B7826085BF9F
S11307408BB780648BBFCF910895EF92FF920F9384
S11307501F93CF93DF937C01FC0180819181959558
S11307608795959587959595879561E30E94D6041D
S1130770F701808162E38295880F807E0E94D6040F
S113078065E3F70182810E94D604F701828118167D
S1130790ACF487010D5F1F4FC0E0D0E06C2F6A5CA2
S11307A0F80181918F010E94D6042196F7012281DC
S11307B0332727FD3095C217D30784F380E00E94C6
S11307C00405DF91CF911F910F91FF90EF90089551
S11307D01F920F920FB60F9211248F939F9381E073
S11307E090E09093D9028093D8029F918F910F90BB
S11307F00FBE0F901F9018958F929F92AF92BF9249
S1130800CF92DF92EF92FF920F931F93CF93DF93D8
S1130810CDB7DEB72B970FB6F894DEBF0FBECDBFB2
S11308207C019E01255F3F4FFE0134961192E21731
S1130830F307E1F78091D8029091D902892B71F4E2
S11308408FEF9FEF9A8389831B828BE0FE013196A1
S1130850D70101900D928A95E1F74AC01092D9020E
S11308601092D80281E60E94EE04A82E82E60E942D
S1130870EE04B12CAA0CBB1CAA0CBB1CAA0CBB1CFE
S1130880829586958770A80EB11C85E60E94EE04B9
S1130890882E1816ECF4CC24C394D12CCC0EDD1E77
S11308A083E0C80ED11CC80CD11C87FCDA948E01DD
S11308B00C5F1F4F0F2EF6E69F2EF02D892D0E9400
S11308C0EE04F80181938F019394EC15FD05B1F7C3
S11308D040E061E08CE20E943005BA82A9828B82FA
S11308E08BE0FE013196D70101900D928A95E1F7D4
S11308F0C7012B960FB6F894DEBF0FBECDBFDF91B4
S1130900CF911F910F91FF90EF90DF90CF90BF9008
S1130910AF909F908F900895CF93DF93CDB7DEB7BC
S11309202B970FB6F894DEBF0FBECDBF14165CF440
S1130930FE0134969F01240F311D47FD3A95119213
S1130940E217F307E1F77A8369834B832BE0FE0117
S11309503196DC0101900D922A95E1F72B960FB6A2
S1130960F894DEBF0FBECDBFDF91CF910895CF9332
S1130970DF93CDB7DEB72B970FB6F894DEBF0FBE6B
S1130980CDBFCE0101960E94FC0389819A81019713
S113099021F487E691E00E947B142B960FB6F8941D
S11309A0DEBF0FBECDBFDF91CF910895CF93DF930C
S11309B0C82FD62F81E090E00E94640582E00E9457
S11309C056058D2F0E9456058C2F0E94560580E0F7
S11309D090E00E946405DF91CF910895CF93C82FD2
S11309E081E090E00E94640583E00E9456058C2F0C
S11309F00E9456050E945C05C82F80E090E00E948A
S1130A0064058C2FCF910895CF93882331F08130E2
S1130A1031F0823031F0C0E805C0C1E803C0C2E85B
S1130A2001C0C4E881E090E00E9464058C2F0E941C
S1130A30560580E090E00E946405CF91089581E01E
S1130A4090E00E94640580EC0E94560580E090E0EE
S1130A500E94640508950E944E050E941F05089592
S1130A601F93CF93DF93182FD62FC42F81E090E0EC
S1130A700E94640585E00E945605812F0E94560558
S1130A808D2F0E9456058C2F0E94560580E090E021
S1130A900E946405DF91CF911F910895BD9ABF9A7A
S1130AA0BC9ABE986C9A699A6E9A08958FB9779B8E
S1130AB0FECF80E090E008958FEF0E945605779B6B
S1130AC0FECF8FB190E008958130910511F4C49860
S1130AD00895892B09F4C49A08955D9BFECF8CB9BF
S1130AE008959C01442737FD4095542F60E070EB36
S1130AF084E090E00E9445142150310930BD29B9A9
S1130B0088E18AB986E880BD80E091E090937F0314
S1130B1080937E0308950E94FB070E94C8080E94E8
S1130B205D098091DA029091DB02892B71F40E94B5
S1130B305A0D80E393E00E94FE110E94F20E809110
S1130B40DA029091DB02892B91F308958091DA0205
S1130B509091DB02892B61F480E393E00E94FE1103
S1130B600E94F20E8091DA029091DB02892BA1F3AC
S1130B700E94180F0E94450E61E070E081E791E049
S1130B800E94C10F0E94F20E2FEF8FE796E12150D1
S1130B9080409040E1F700C000C00E94180F0E94FE
S1130BA0F20E089561E081E00E94DF0D62E070E0E2
S1130BB085E891E00E94C10F28E230E04AE050E06D
S1130BC064E170E08AE090E00E94381028E230E0AE
S1130BD044E150E068E270E08AE090E00E9438105E
S1130BE024E130E049E150E068E270E084E190E023
S1130BF00E9438102EE130E04BE150E06EE170E0ED
S1130C0087E190E00E94381028E230E04EE150E0A5
S1130C1064E170E089E190E00E94381024E130E062
S1130C204EE150E068E270E08EE190E00E943810FE
S1130C3024E130E043E250E064E170E08EE190E0D2
S1130C400E94381029E130E043E250E064E170E0B2
S1130C5083E290E00E94381029E130E04EE150E058
S1130C6069E170E083E290E00E94381028E230E00D
S1130C7043E250E069E170E08EE190E00E943810B8
S1130C8028E230E04FE250E068E270E085E290E074
S1130C900E9438102EE130E04FE250E068E270E04C
S1130CA08FE290E00E9438102EE130E043E250E001
S1130CB06EE170E08FE290E00E94381024E130E0B1
S1130CC045E250E06EE170E085E290E00E94381069
S1130CD024E130E04FE250E064E170E085E290E02E
S1130CE00E94381064E084E30E94DF0D62E070E04B
S1130CF08EE891E00E94C10F24E130E041E450E02D
S1130D0068E270E081E490E00E94381024E130E071
S1130D104BE450E064E170E081E490E00E9438101C
S1130D202EE130E04BE450E064E170E08BE490E0CD
S1130D300E9438102EE130E041E450E06EE170E0B2
S1130D408BE490E00E94381024E130E04DE450E060
S1130D5068E270E08DE490E00E94381024E130E015
S1130D6045E550E064E170E08DE490E00E943810C5
S1130D702EE130E045E550E06EE170E08DE490E076
S1130D800E94381028E230E045E550E068E270E067
S1130D908DE490E00E94381024E130E047E550E013
S1130DA068E270E087E590E00E94381024E130E0CA
S1130DB04FE550E064E170E087E590E00E94381070
S1130DC029E130E04FE550E064E170E08FE590E028
S1130DD00E94381029E130E047E550E069E170E015
S1130DE08FE590E00E94381028E230E04FE550E0B3
S1130DF069E170E087E590E00E94381067E082E3E3
S1130E000E94DF0D61E070E080E991E00E94C10F73
S1130E100E94F20E2FEF8FEF9EE021508040904011
S1130E20E1F700C000000895CF93DF9380E895E2D6
S1130E300E9471050E942D0F0E94450B0E94BB0D5C
S1130E4081E00E947F030E94CF0D0E94D2056FE9CA
S1130E5071E08AE393E00E94981180E393E0909319
S1130E604303809342034BEF57E068EA71E086EF57
S1130E7092E00E948E1186EF92E090933D0380935E
S1130E803C03CAE3D3E0D093FD02C093FC024DE5DA
S1130E9059E063EB71E082EE92E00E948E1182EEE3
S1130EA092E09093FB028093FA0248EC58E063ECE2
S1130EB071E080E093E00E948E1180E093E09093D3
S1130EC0E7028093E6024EE25AE06EEC71E086E4BB
S1130ED093E00E948E1186E493E09093050380933F
S1130EE0040369ED71E080E393E00E94981146EEFB
S1130EF05AE063EE71E084E193E00E948E1184E194
S1130F0093E0909333038093320340E050E06FE921
S1130F1071E08CEE92E00E948E11E0913203F09128
S1130F2033038CEE92E095838483D093F502C093CF
S1130F30F40247E05BE06EEE71E08AE093E00E9429
S1130F408E118AE093E09093F1028093F0027894FA
S1130F50DF91CF9108950F931F93CF93DF93CDB774
S1130F60DEB72C970FB6F894DEBF0FBECDBF9F93AC
S1130F708F9388EF91E09F938F938E010F5F1F4FA4
S1130F801F930F930E94A8140F900F900F900F902F
S1130F900F900F90C8012C960FB6F894DEBF0FBEC9
S1130FA0CDBFDF91CF911F910F9108950E94450EFF
S1130FB00E94180F61E070E08BEF91E00E94C10F76
S1130FC063E080E00E94DF0D61E070E080E192E088
S1130FD00E94C10F63E080E50E94DF0D80912E0323
S1130FE090912F030E94AB0761E070E00E94C10F53
S1130FF00E94F20E08958F929F92AF92BF92CF9269
S1131000DF92EF92FF920F931F93CF93DF930E948F
S1131010180F0E94450E62E070E088E692E00E949C
S1131020C10FC0E0D0E00F2EF1E48F2EF02D0F2E73
S1131030FAE59F2EF02DC12CD12CAA24A394B12C17
S11310406894EE24E1F8F12C0E945A0D0E94FF0BE3
S1131050892B61F0FE01E65BFE4F80818A3530F416
S1131060FE01E65BFE4F8F5F808308C00E94FF0B8A
S1131070892B21F0FE01E65BFE4F80820E94140C56
S1131080892B61F0FE01E65BFE4F8081823430F0F3
S1131090FE01E65BFE4F8150808308C00E94140C61
S11310A0892B21F0FE01E65BFE4F90820E943D0CED
S11310B0892B21F0C330D1050CF421960E94280C11
S11310C0892B19F0DD230CF021970E94280C892B21
S11310D021F0CF3F2FEFD20761F00E943D0C892B06
S11310E069F0C330D10569F40A2D1B2DCE2DDF2DF7
S11310F00AC00A2D1B2DCC2DDD2D05C00C2D1D2D58
S113110002C00C2D1D2D63E08CE30E94DF0D6E2DBB
S11311107F2D8AE491E00E94C10F0E94F20E0E948A
S1131120FF0B892B29F50E94280C892B09F50E94B5
S11311303D0C892BE9F40E94140C892BC9F49FEF10
S11311402FE781E0915020408040E1F700C000C0CB
S113115063E08C2F880F880F880F845C0E94DF0D5A
S11311606E2D7F2D85E792E00E94C10F0E94F20E42
S1131170012B09F469CFDF91CF911F910F91FF905B
S1131180EF90DF90CF90BF90AF909F908F90089595
S1131190CF92DF92EF92FF920F931F93CF93DF933F
S11311A00E94180F0E94450E62E070E087E792E00B
S11311B00E94C10F01E010E0EE24E394F12CC12C55
S11311C0D12C0E945A0D0E94280C3E2D2F2D892BC4
S11311D011F43C2D2D2DC32FD22F0E943D0C892BB1
S11311E011F0CE2DDF2D0E94140C892B71F080910B
S11311F0DE029091DF02823091053CF401969093D7
S1131200DF028093DE020E2D1F2D0E94FF0B892B1F
S113121021F18091DE029091DF0218161906ECF498
S113122001979093DF028093DE0263E08CE30E94D7
S1131230DF0D8091DE029091DF029C01220F331FAB
S1131240220F331F820F931F62E070E0825B9E4F78
S11312500E94C10F0E94F20E19C063E08CE30E9449
S1131260DF0D8091DE029091DF029C01220F331F7B
S1131270220F331F820F931F62E070E0825B9E4F48
S11312800E94C10F0E94F20E012B49F09FEF2FEF35
S113129082E0915020408040E1F700C000C0CD2B97
S11312A019F40C2D1D2D8DCFDF91CF911F910F912E
S11312B0FF90EF90DF90CF900895AF92BF92CF92BE
S11312C0DF92EF92FF920F931F93CF93DF93CDB7EB
S11312D0DEB76E970FB6F894DEBF0FBECDBFFE012A
S11312E031968EE1DF011D928A95E9F783E892E059
S11312F09A83898383E992E09C838B8383EA92E0D7
S11313009E838D830E94180F0E94450E62E070E058
S113131083EB92E00E94C10F01E010E0AA24A394A1
S1131320B12CC12CD12C0E945A0D0E94280C892B5F
S113133029F00115110509F473C07AC00E943D0C0F
S1131340892B31F00115110531F4EA2CFB2C05C071
S1131350EC2CFD2C02C0EC2CFD2C0E94140C892BCF
S113136071F08091DC029091DD02823091053CF4B1
S113137001969093DD028093DC020A2D1B2D0E94BE
S1131380FF0B892B29F18091DC029091DD02181664
S11313901906F4F401979093DD028093DC0263E074
S11313A08EE10E94DF0DE091DC02F091DD02EE0F90
S11313B0FF1F81E090E08C0F9D1FE80FF91F6A2D3D
S11313C07B2D808191810E94C10F0E94F20E1AC070
S11313D063E08EE10E94DF0DE091DC02F091DD021A
S11313E0EE0FFF1FA1E0B0E0AC0FBD1FEA0FFB1F23
S11313F06A2D7B2D808191810E94C10F0E94F20E83
S1131400012B49F0BFEF2FEF82E0B1502040804024
S1131410E1F700C000C0EF2881F40C2D1D2D83CF0F
S11314200E943D0C892B09F090CFEA2CFB2C95CF20
S11314300E943D0CEC2CFD2C90CF6E960FB6F894C8
S1131440DEBF0FBECDBFDF91CF911F910F91FF90F3
S1131450EF90DF90CF90BF90AF9008954F925F923E
S11314606F927F928F929F92AF92BF92CF92DF92B0
S1131470EF92FF920F931F93CF93DF930E94180F65
S11314800E94450E62E070E08AEB92E00E94C10F78
S11314900F2EFEE08F2EF1E09F2EF02D0F2EF6E39F
S11314A06F2EF1E07F2EF02D6894442441F8512CE6
S11314B00E945A0D0E94280C5C0174018301C42D02
S11314C0D52D6C2F81E00E94DF0DCE0101970E9483
S11314D0AB0761E070E00E94C10F61E070E086EC50
S11314E092E00E94C10F61E070E0C7010E94C10F49
S11314F061E070E082E792E00E94C10F6801F801A8
S1131500808191810E94AB0761E070E00E94C10F6D
S1131510F80180819181843691053CF061E070E0AE
S113152081EB92E00E94C10F0FC00A973CF061E08A
S113153070E080EB92E00E94C10F06C061E070E0B1
S11315408FEA92E00E94C10FCE010E94AB0761E0D6
S113155070E00E94C10F61E070E086EC92E00E94AE
S1131560C10F61E070E0C70104960E94C10F61E001
S113157070E082E792E00E94C10FF60182819381BC
S11315800E94AB0761E070E00E94C10F2296F8E070
S1131590EF0EF11C0C5F1F4FC830D10509F091CF3D
S11315A00E94F20EAB2809F483CFDF91CF911F91F3
S11315B00F91FF90EF90DF90CF90BF90AF909F90EE
S11315C08F907F906F905F904F90089510922F03AB
S11315D010922E031092DB021092DA0209EC12E050
S11315E010C00E94510CDF93CF931F930F930E945E
S11315F067140F900F900F900F900E94D6070E94CF
S1131600B7040E945A0DEC01009759F7F6CF81E018
S113161090E09093DB028093DA0208958D5F8093CB
S113162000148091E0029091E102892BD1F3109291
S1131630E1021092E0028091001408951F920F922B
S11316400FB60F9211248F939F9381E090E09093B3
S1131650E1028093E0029F918F910F900FBE0F9053
S11316601F90189581E090E00E940E0B90E09093FB
S11316702D0380932C0382E090E00E940E0B90E0F7
S113168090934503809344030895789485B78860C4
S113169085BF8BB780688BBF87B3817F87BB0E9470
S11316A0320BF8940895CF92DF92EF92FF920F934A
S11316B01F93CF93DF9300D000D000D0CDB7DEB717
S11316C081E090E00E940E0B082F82E090E00E94DF
S11316D00E0BC82E20912C0330912D03E09044036F
S11316E0F090450316B3802F90E0821B930B0F2ECE
S11316F0F4E6DF2EF02DD89EB001D99E700D112492
S1131700882777FD8095982F0E94911320E030E080
S11317104EEF52E40E94F6120E945E13062F862FAB
S1131720972F9A8389838C2D90E08E199F09D89ED8
S1131730B001D99E700D1124882777FD8095982FCC
S11317400E94911320E030E04EEF52E40E94F61222
S11317500E945E13862F972F9C838B831695169574
S1131760169581E0182711701D831E82202F3A815F
S1131770462F5C81612F70E080E090E026960FB6E2
S1131780F894DEBF0FBECDBFDF91CF911F910F91B3
S1131790FF90EF90DF90CF90089583E090E00E9457
S11317A00E0B24E6829FC0011124BC01882777FD1B
S11317B08095982F0E94911320E030E04FE753E486
S11317C00E94F6120E945E13CB01089584E090E01B
S11317D00E940E0B24E6829FC0011124BC018827BD
S11317E077FD8095982F0E94911320E030E04FE719
S11317F053E40E94F6120E945E13CB010895809177
S1131800520390915303853C9F4F5CF081E090E03C
S11318102091200330912103243C3F4F24F080E0A9
S1131820089580E090E008958091520390915303CD
S1131830CC975CF481E090E0209120033091210367
S11318402D33310524F480E0089580E090E008957C
S11318508091500390915103853C9F4F5CF081E04F
S113186090E020911E0330911F03243C3F4F24F04D
S113187080E0089580E090E0089580915003909175
S11318805103CC975CF481E090E020911E033091E9
S11318901F032D33310524F480E0089580E090E0A7
S11318A00895CF93DF93CDB7DEB72B970FB6F89497
S11318B0DEBF0FBECDBF45E064E070E0CE0101960F
S11318C00E948C0480911E038C838D83809122035B
S11318D08E83809128038F8380912A038887CE0189
S11318E001960E94A5038EE0EEE1F3E0AEE5B3E0DD
S11318F001900D928A95E1F72B960FB6F894DEBF0E
S11319000FBECDBFDF91CF910895CF92DF92EF92BA
S1131910FF920F931F93CF93DF93CDB7DEB72E972C
S11319200FB6F894DEBF0FBECDBF20915A0330919D
S11319305B0380916803909169032817390709F0C4
S113194081C020915C0330915D0380916A03909182
S11319506B032817390709F078C02091540330919C
S1131960550380916203909163032817390709F0A6
S11319706FC0809156039091570320916403309176
S11319806503A9014E5F5F4F481759070CF463C004
S113199022503109821793070CF460C080915803D8
S11319A0909159032091660330916703A9014E5F1A
S11319B05F4F481759070CF454C02250310982175D
S11319C093070CF451C080915003909151032091DE
S11319D05E0330915F03A9014750510984179507AD
S11319E00CF445C0425F5F4F481759070CF442C0DE
S11319F0409152035091530380916003909161038D
S1131A00BC016750710946175707BCF1625F7F4FED
S1131A1064177507ACF140911E0350911F034A5F90
S1131A205F4F4D30510510F4232B69F520912003AD
S1131A30309121032A5F3F4F2D30310538F500974F
S1131A4041F529C081E090E026C08AE090E023C0FF
S1131A5084E690E020C088EC90E01DC088EC90E023
S1131A601AC08AEF90E017C08AEF90E014C088E1B2
S1131A7091E011C088E191E00EC082E291E00BC0D8
S1131A8082E291E008C08CE291E005C080E090E041
S1131A9002C08DE291E02E960FB6F894DEBF0FBE21
S1131AA0CDBFDF91CF911F910F91FF90EF90DF9009
S1131AB0CF900895CF93DF930E94850CEC018EE0C4
S1131AC0EEE1F3E0A0E5B3E001900D928A95E1F731
S1131AD00E94530B20931E0330931F034093200353
S1131AE05093210360932203709323030E94CD0B30
S1131AF090932503809324030E94E60B909327037D
S1131B008093260386B3827090E090932903809398
S1131B10280386B3847090E090932B0380932A0368
S1131B2080911E0390911F0306960D9720F4109246
S1131B301F0310921E0380912003909121030696A7
S1131B400D9720F41092210310922003CE01DF910F
S1131B50CF91089585B7806885BF80B7806280BFC4
S1131B600895FC0160830895FC0180810895C09A62
S1131B700895C0980895B89A81B3806381BB9498FE
S1131B8095980E94B70D2FEF8FEF92E0215080407F
S1131B909040E1F700C000C00E94B90D0895949AE6
S1131BA0959A0E94B70D2FEF8FEF92E0215080405D
S1131BB09040E1F700C000C00E94B90D0895609301
S1131BC06D0380936C03E0916101F0916201809157
S1131BD06D038770806B8083E0916101F0916201F5
S1131BE080916C038F708083E0916101F0916201B8
S1131BF080916C0382958F70806180830895E09159
S1131C006101F091620190916D039770906B9083E4
S1131C10E0916101F091620190916C039F70908357
S1131C20E0916101F091620190916C0392959F7033
S1131C3090619083E0915F01F09160018083089549
S1131C40FF920F931F93CF93DF93F0906C03009157
S1131C506D03D0E010E00DC06D2F8C2F0E94DF0DBE
S1131C60812F0E94FF0DCF5FC038B1F7DF5FD830FE
S1131C7011F0C12FF1CFF0926C0300936D03DF914B
S1131C80CF911F910F91FF90089560E080E00E9432
S1131C90DF0D089590916C0320916D0340E8249F1B
S1131CA090011124290F311D211594E0390750F4B6
S1131CB040915D0150915E01682FCA01820F931F0C
S1131CC00E94B10D08950F931F93CF93DF9328E0E3
S1131CD0829FC0011124EC01C953DD4F00E010E0E4
S1131CE0FE0184910E944A0E60916D0380916C0301
S1131CF08F5F0E94DF0D0F5F1F4F21960830110583
S1131D0079F780E090E0DF91CF911F910F910895D2
S1131D100F931F93CF93DF93C82FD0E0A097CE01EA
S1131D20880F991F880F991FC80FD91FC451DE4F00
S1131D3000E010E0FE0184910E944A0E60916D0360
S1131D4080916C038F5F0E94DF0D0F5F1F4F219600
S1131D500530110579F780E090E0DF91CF911F9174
S1131D600F9108950F931F93CF93DF9324E0829FE5
S1131D70C0011124EC01C051D04000E010E0FE018C
S1131D8084910E944A0E60916D0380916C038F5F71
S1131D900E94DF0D0F5F1F4F21960430110579F764
S1131DA080E090E0DF91CF911F910F9108952091F1
S1131DB06C0380916D0330E8839FC0011124820F6E
S1131DC0911D9C01215031092F3F334048F420914B
S1131DD05D0130915E01820F931F0E94B40D08953E
S1131DE080E00895FF920F931F93CF93DF93F090B9
S1131DF06C0300916D03D0E010E00EC06C2F8D2FAA
S1131E000E94DF0D0E94D70E0E94FF0DCF5FC830E5
S1131E10A9F7DF5FD03811F0C12FF0CFF0926C0337
S1131E2000936D03DF91CF911F910F91FF9008955F
S1131E30CF93DF93C0E0D0E080915D0190915E018B
S1131E4060E08C0F9D1F0E94B10D2196C11584E0A6
S1131E50D80791F7DF91CF9108950E94AA0D1092AF
S1131E606D0310926C03E0916101F09162018EEABE
S1131E708083E0916101F091620181EA8083E091C5
S1131E806101F09162018AED8083E0916101F0913A
S1131E90620182E18083E0916101F091620188EC4A
S1131EA08083E0916101F091620188EA8083E0918E
S1131EB06101F09162018FE38083E0916101F0910F
S1131EC0620185ED8083E0916101F091620180E817
S1131ED08083E0916101F091620181E88083E09167
S1131EE06101F091620180E58083E0916101F091EC
S1131EF0620189ED8083E0916101F091620181E2E8
S1131F008083E0916101F091620182E28083E0913B
S1131F106101F091620182E08083E0916101F091BE
S1131F2062018BED8083E0916101F091620180E3B5
S1131F308083E0916101F09162018DEA8083E091F8
S1131F406101F09162011082E0916101F0916201FE
S1131F5084EA8083E0916101F091620186EA8083E2
S1131F60E0916101F091620180E48083E09161017C
S1131F70F09162018FEA80830E94200E0E94180F64
S1131F800895CF93DF93EC016115710551F48881B5
S1131F90882301F121960E94B20E89918111FBCF11
S1131FA019C06130710551F48881882399F0219614
S1131FB00E94880E89918111FBCF0CC0623071059B
S1131FC049F48881882331F021960E94630E899117
S1131FD08111FBCFDF91CF910895FF920F931F934F
S1131FE0CF93DF93EA0100916C0310916D039B0181
S1131FF027703078332334F421503109286F3F6F30
S11320002F5F3F4FF22EFB01FF230CF43796BF01E5
S11320107595679575956795759567950E94DF0D1C
S1132020CD2B79F40E94D70E41E050E09A0102C012
S1132030220F331FFA94E2F7209582230E944A0E5E
S11320400DC00E94D70E41E050E09A0102C0220F59
S1132050331FFA94E2F7822B0E944A0E00936C031A
S113206010936D03DF91CF911F910F91FF9008950D
S11320702F923F924F925F926F927F928F929F9294
S1132080AF92BF92CF92DF92EF92FF920F931F9382
S1132090CF93DF93CDB7DEB728970FB6F894DEBFA2
S11320A00FBECDBF2C013B018A0119014817590706
S11320B009F4ADC02617370709F444C0B9016619FD
S11320C07709882777FD8095982F0E9491134B01FB
S11320D05C01B80164197509882777FD8095982FEC
S11320E00E9491136B017C019B01AC01C501B401F9
S11320F00E94F61269837A838B839C83A5019401E1
S1132100C701B6010E94F6126D837E838F83988780
S113211020E030E040E85FE369817A818B819C8133
S11321200E94F21288230CF076C020E030E040E8F0
S11321305FEB69817A818B819C810E94411418161E
S11321402CF069C019821A821B821C8204151505A1
S113215034F43101942D852D2801092F182FB30152
S1132160882777FD8095982F0E9491134B015C017D
S1132170B201882777FD8095982F0E9491136B01F7
S11321807C0141E050E0B301C2010E94ED0FB801AF
S1132190882777FD8095982F0E9491136D837E8305
S11321A08F8398879B01AC01C701B6010E94F2128C
S11321B088230CF091C029813A814B815C81C5014F
S11321C0B4010E948E124B015C010E945E132B012C
S11321D03C01C701B6010E945E13DC01CB0141E062
S11321E050E0B2010E94ED0F20E030E040E85FE3F0
S11321F0C701B6010E948E126B017C012D813E81C4
S11322004F8158850E94F2128823ACF265C01D826A
S11322101E821F8218862614370434F4962D872DC7
S11322203101292E382E2801B301882777FD8095A6
S1132230982F0E9491136B017C01B201882777FDCE
S11322408095982F0E9491134B015C0141E050E06E
S1132250B301C2010E94ED0FB101882777FD80957B
S1132260982F0E94911369837A838B839C839B01AB
S1132270AC01C701B6010E94F21288236CF52D81CE
S11322803E814F815885C501B4010E948E124B01D5
S11322905C01C701B6010E945E132B013C01C5011C
S11322A0B4010E945E13DC01CB0141E050E0B201B5
S11322B00E94ED0F20E030E040E85FE3C701B60183
S11322C00E948E126B017C0129813A814B815C81D1
S11322D00E94F21288239CF228960FB6F894DEBF6F
S11322E00FBECDBFDF91CF911F910F91FF90EF9063
S11322F0DF90CF90BF90AF909F908F907F906F9022
S11323005F904F903F902F9008950E9414070E9471
S11323108B050E94A60580E090E00895FC0171837E
S11323206083158214825383428311861086089534
S1132330FC01718360831382128215821482978355
S11323408683118610860895FF920F931F93CF936F
S1132350DF938C0160E08AE00E94DF0DD8011696BD
S1132360ED91FC91179762E070E0808191810E9469
S1132370C10FD8011696ED91FC911797C281D381B4
S1132380209799F06894FF24F1F86F2D84E10E945E
S1132390DF0D61E070E0888199810E94C10F0C809B
S11323A0DD81C02DF394209781F7D8011696ED9125
S11323B0FC91179764816E5F8AE00E94DF0D61E0F3
S11323C070E083E691E00E94C10FDF91CF911F91ED
S11323D00F91FF900895DC011296ED91FC911397F3
S11323E0309749F080E090E001960480F581E02D7B
S11323F03097D1F7089580E090E00895CF92DF926E
S1132400EF92FF920F931F93CF93DF936C01FC0124
S1132410068117810E94140C892B69F0F8018481CC
S1132420958118161906ECF4019795838483EE249C
S1132430E394F12C20C00E94FF0B892BB1F0F8012A
S1132440C481D581C8010E94EB110197C817D9072F
S11324507CF42196F801D583C483EE24E394F12C13
S11324600AC0EE24E394F12C06C0E12CF12C03C045
S1132470EE24E394F12C0E943D0C892B11F1F80118
S1132480C281D3812097E9F0448155811416150641
S113249054F420E030E00C80DD81C02D2F5F3F4FED
S11324A024173507C1F7EA81FB81309709F00995B4
S11324B088859985009709F4C801FFEFEF1AFF0A90
S11324C08C010E94280C892B51F0F801808591859C
S11324D0009709F4C801FFEFEF1AFF0A8C01F60117
S11324E0178306838EE0EEE1F3E0AEE6B3E00190FD
S11324F00D928A95E1F7EF2839F00E94180FF60142
S1132500868197810E94A411DF91CF911F910F9131
S1132510FF90EF90DF90CF9008955058BB27AA27E3
S11325200ED075C166D130F06BD120F031F49F3FED
S113253011F41EF45BC10EF4E095E7FB51C1E92FE1
S113254077D180F3BA17620773078407950718F0E9
S113255071F49EF58FC10EF4E0950B2EBA2FA02DC9
S11325600B01B90190010C01CA01A0011124FF273C
S1132570591B99F0593F50F4503E68F11A16F04037
S1132580A22F232F342F4427585FF3CF4695379536
S11325902795A795F0405395C9F77EF41F16BA0BFB
S11325A0620B730B840BBAF09150A1F0FF0FBB1FA9
S11325B0661F771F881FC2F70EC0BA0F621F731FF2
S11325C0841F48F4879577956795B795F7959E3F4F
S11325D008F0B3CF9395880F08F09927EE0F9795DD
S11325E087950895D9D008F481E008950CD00FC1DF
S11325F007D140F0FED030F021F45F3F19F0F0C075
S1132600511139C1F3C014D198F39923C9F3552357
S1132610B1F3951B550BBB27AA27621773078407D1
S113262038F09F5F5F4F220F331F441FAA1FA9F387
S113263033D00E2E3AF0E0E830D091505040E69579
S1132640001CCAF729D0FE2F27D0660F771F881FDA
S1132650BB1F261737074807AB07B0E809F0BB0BC9
S1132660802DBF01FF2793585F4F2AF09E3F5105ED
S113267068F0B6C000C15F3FECF3983EDCF386958A
S113268077956795B795F7959F5FC9F7880F911D63
S11326909695879597F90895E1E0660F771F881F4F
S11326A0BB1F621773078407BA0720F0621B730B02
S11326B0840BBA0BEE1F88F7E095089504D0689454
S11326C0B111D9C00895BCD088F09F5790F0B92FAC
S11326D09927B751A0F0D1F0660F771F881F991F73
S11326E01AF0BA95C9F712C0B13081F0C3D0B1E085
S11326F00895C0C0672F782F8827B85F39F0B93F95
S1132700CCF3869577956795B395D9F73EF4909574
S11327108095709561957F4F8F4F9F4F0895E894F2
S113272009C097FB3EF490958095709561957F4F15
S11327308F4F9F4F9923A9F0F92F96E9BB279395C3
S1132740F695879577956795B795F111F8CFFAF4D3
S1132750BB0F11F460FF1BC06F5F7F4F8F4F9F4F04
S113276016C0882311F096E911C0772321F09EE862
S1132770872F762F05C0662371F096E8862F70E0C8
S113278060E02AF09A95660F771F881FDAF7880FA2
S11327909695879597F90895990F0008550FAA0BF8
S11327A0E0E8FEEF16161706E807F907C0F0121660
S11327B01306E407F50798F0621B730B840B950B63
S11327C039F40A2661F0232B242B252B21F40895B8
S11327D00A2609F4A140A6958FEF811D811D089555
S11327E097F99F6780E870E060E008959FEF80ECC0
S11327F0089500240A941616170618060906089563
S113280000240A9412161306140605060895092EC8
S11328100394000C11F4882352F0BB0F40F4BF2B37
S113282011F460FF04C06F5F7F4F8F4F9F4F089577
S113283057FD9058440F551F59F05F3F71F047956D
S1132840880F97FB991F61F09F3F79F08795089552
S1132850121613061406551FF2CF4695F1DF08C071
S1132860161617061806991FF1CF8695710561058E
S113287008940895E894BB2766277727CB0197F936
S113288008958ADF08F48FEF0895A1E21A2EAA1B97
S1132890BB1BFD010DC0AA1FBB1FEE1FFF1FA2170C
S11328A0B307E407F50720F0A21BB30BE40BF50B09
S11328B0661F771F881F991F1A9469F76095709592
S11328C0809590959B01AC01BD01CF010895A0E0D6
S11328D0B0E0EDE6F4E10C945217FE0135966191F7
S11328E07191AF0180917E0390917F030E94CA147D
S11328F0E2E00C946E170F931F93CF93DF93E09154
S11329007E03F0917F03238121FF1BC0EC0100E0D3
S113291010E0899160917E0370917F03DB0118962A
S1132920ED91FC911997882331F00995892B89F34E
S11329300FEF1FEFEECF8AE00995892B11F4C80140
S113294002C08FEF9FEFDF91CF911F910F910895F8
S1132950AEE0B0E0EEEAF4E10C9450170D891E8964
S113296086E08C831A8309838FEF9FE79E838D8390
S1132970AE01475E5F4F6F89788DCE0101960E944C
S1132980CA14EF81F885E00FF11F10822E96E4E05F
S11329900C946C17ACE0B0E0E0EDF4E10C94421759
S11329A07C016B018A01FC0117821682838181FFFD
S11329B0BDC1CE0101964C01F7019381F60193FD4F
S11329C0859193FF81916F01882309F4ABC185320E
S11329D039F493FD859193FF81916F01853229F438
S11329E0B70190E00E94B216E7CF512C312C20E0C1
S11329F02032A0F48B3269F030F4803259F0833203
S1132A0069F420612CC08D3239F0803339F42160AF
S1132A1026C02260246023C0286021C027FD27C06F
S1132A2030ED380F3A3078F426FF06C0FAE05F9EA6
S1132A30300D1124532E13C08AE0389E300D11241A
S1132A40332E20620CC08E3221F426FD6BC120642B
S1132A5006C08C3611F4206802C0883641F4F601B1
S1132A6093FD859193FF81916F018111C1CF982FBF
S1132A709F7D9554933028F40C5F1F4FFFE3F98337
S1132A800DC0833631F0833771F0833509F05BC0B4
S1132A9022C0F801808189830E5F1F4F4424439430
S1132AA0512C540115C03801F2E06F0E711CF8016D
S1132AB0A080B18026FF03C0652D70E002C06FEFD7
S1132AC07FEFC5012C870E94A7162C0183012C855A
S1132AD02F77222E17C03801F2E06F0E711CF80117
S1132AE0A080B18026FF03C0652D70E002C06FEFA7
S1132AF07FEFC5012C870E949C162C012C85206831
S1132B00222E830123FC1BC0832D90E04816590616
S1132B10B0F4B70180E290E00E94B2163A94F4CF88
S1132B20F50127FC859127FE81915F01B70190E0B3
S1132B300E94B21631103A94F1E04F1A5108411430
S1132B40510471F7E5C0843611F0893639F5F8017E
S1132B5027FF07C060817181828193810C5F1F4FC1
S1132B6008C060817181882777FD8095982F0E5F5A
S1132B701F4F2F76B22E97FF09C0909580957095C0
S1132B8061957F4F8F4F9F4F2068B22E2AE030E02F
S1132B90A4010E94E416A82EA81844C0853729F47D
S1132BA02F7EB22E2AE030E025C0F22FF97FBF2E0F
S1132BB08F36C1F018F4883579F0B4C0803719F035
S1132BC0883721F0AFC02F2F2061B22EB4FE0DC084
S1132BD08B2D8460B82E09C024FF0AC09F2F9660F5
S1132BE0B92E06C028E030E005C020E130E002C084
S1132BF020E132E0F801B7FE07C060817181828173
S1132C0093810C5F1F4F06C06081718180E090E06A
S1132C100E5F1F4FA4010E94E416A82EA818FB2DD6
S1132C20FF77BF2EB6FE0BC02B2D2E7FA51450F4BC
S1132C30B4FE0AC0B2FC08C02B2D2E7E05C07A2C2F
S1132C402B2D03C07A2C01C0752C24FF0DC0FE016E
S1132C50EA0DF11D8081803311F4297E09C022FF21
S1132C6006C07394739404C0822F867809F0739419
S1132C7023FD13C020FF06C05A2C731418F4530C00
S1132C805718732C731468F4B70180E290E02C8712
S1132C900E94B21673942C85F5CF731410F4371870
S1132CA001C0312C24FF12C0B70180E390E02C87CF
S1132CB00E94B2162C8522FF17C021FF03C088E5AD
S1132CC090E002C088E790E0B7010CC0822F8678BC
S1132CD059F021FD02C080E201C08BE227FD8DE2A4
S1132CE0B70190E00E94B216A51438F4B70180E34E
S1132CF090E00E94B2165A94F7CFAA94F401EA0D18
S1132D00F11D8081B70190E00E94B216A110F5CFA9
S1132D10332009F451CEB70180E290E00E94B2164C
S1132D203A94F6CFF7018681978102C08FEF9FEF27
S1132D302C96E2E10C945E17FC0105906150704002
S1132D400110D8F7809590958E0F9F1F0895FC0170
S1132D506150704001900110D8F7809590958E0FC6
S1132D609F1F08950F931F93CF93DF93182F092F5D
S1132D70EB018B8181FD03C08FEF9FEF20C082FFA9
S1132D8010C04E815F812C813D81421753077CF432
S1132D90E881F9819F012F5F3F4F39832883108396
S1132DA006C0E885F985812F0995892B29F72E819D
S1132DB03F812F5F3F4F3F832E83812F902FDF91E1
S1132DC0CF911F910F910895FA01AA27283051F14C
S1132DD0203181F1E8946F936E7F6E5F7F4F8F4F48
S1132DE09F4FAF4FB1E03ED0B4E03CD0670F781FA7
S1132DF0891F9A1FA11D680F791F8A1F911DA11D8C
S1132E006A0F711D811D911DA11D20D009F46894C4
S1132E103F912AE0269F11243019305D3193DEF66C
S1132E20CF010895462F4770405D4193B3E00FD022
S1132E30C9F7F6CF462F4F70405D4A3318F0495D0D
S1132E4031FD4052419302D0A9F7EACFB4E0A695F0
S1132E509795879577956795BA95C9F70097610512
S1132E60710508959B01AC010A2E06945795479568
S1132E7037952795BA95C9F7620F731F841F951F5D
S1132E80A01D08952F923F924F925F926F927F926E
S1132E908F929F92AF92BF92CF92DF92EF92FF9266
S1132EA00F931F93CF93DF93CDB7DEB7CA1BDB0B12
S1132EB00FB6F894DEBF0FBECDBF09942A883988B7
S1132EC048885F846E847D848C849B84AA84B984BE
S1132ED0C884DF80EE80FD800C811B81AA81B981CA
S1132EE0CE0FD11D0FB6F894DEBF0FBECDBFED01DE
S1092EF00895F894FFCFE1
S1132EF600000002000000006D05000000004C41C7
S1132F0652005045520058585800414B530048450A
S1132F164E0043485200202020002020200020207C
S1132F262000202020007B005C003E0036002800A4
S1132F36030000000000000000004141410045413B
S1132F465359004E4F524D00484152440000180058
S1132F561200102D3E000047414D45204F56455264
S1132F66005468616E6B207520666F7220706C6108
S1132F7679696E67004D6164652062793A002600BE
S1132F8654544B343135352C2048323031370053C4
S1132F96657474696E677300456E746572204E615C
S1132FA66D65004D757369632053656C656374695B
S1132FB66F6E00446966666963756C747900486966
S1132FC6676873636F726573004D61696E204D6542
S1132FD66E750053746172742047616D650045789F
S1132FE669742067616D650025640054686520670F
S1132FF6616D652068617320737461727465640021
S113300643757272656E742073636F72653A20003D
S1133016596F75206C6F7374006A6F797374696382
S11330266B206C656674203D20706C617920416765
S113303661696E006A6F79737469636B207269677C
S11330466874203D204C6561766520746F206D613F
S1133056696E206D656E7500456E746572206E61CD
S11330666D653A20005F00446966666963756C7431
S1133076793A00496D70657269616C204D617263BD
S113308668200053746172207761727320746865D6
S11330966D65004E6F206D757369632020202020B6
S11330A62020004D757369633A0048696768207388
S11330B6636F72653A002E200053656E6420696E54
S10B30C67075742025640A00F2
S9030000FC
