S00E00006E6F646520312E737265631F
S11300000C9460030C94E8030C949E0D0C947D03F3
S11300100C947D030C947D030C947D030C947D035C
S11300200C947D030C947D030C947D030C947D034C
S11300300C947D030C947D030C947D030C947D033C
S11300400C947D030C947D030C947D030C947D032C
S11300500C947D030C947D030C947D030C947D031C
S11300600C947D030C947D030C947D030C947D030C
S113007000000000005C00000C000C007C287C28C0
S113008058DC68002410480028542840000C000064
S1130090007884008478000054385400107C1000E8
S11300A080400000101010000040000060100C00A0
S11300B038543800487C40004864580044542C00AC
S11300C01C107C005C5424003854240064140C007C
S11300D068542C0048543800004800008048000050
S11300E0102844002828280044281000045408003C
S11300F038445C00781478007C5428003844280084
S11301007C4438007C5444007C140400384474005B
S11301107C107C00447C440020403C007C106C003B
S11301207C4040007C187C0078103C003844380047
S11301307C1408003844B8007C1468004854240037
S1130140047C04007C407C003C603C007C307C00EF
S11301506C106C000C700C0064544C00007C440067
S11301600C106000447C00000804080080808000BB
S113017000040800304878007C48300030484800CB
S113018030487C00306850001078140090A8780043
S11301907C08700050744000808074007C106800FB
S11301A0447C4000781078007808700030483000B3
S11301B0F82810003048F80078100800505828003B
S11301C0083C4800384078003840380078207800EF
S11301D04830480098A07800486858001078840097
S11301E0007C00008478100008040804000000006B
S11301F00000005F00000007000700147F147F1454
S1130200242A7F2A12231308646236495522500097
S113021005030000001C2241000041221C00082AA2
S11302201C2A0808083E0808005030000008080886
S11302300808006060000020100804023E5149458F
S11302403E00427F400042615149462141454B31C5
S11302501814127F1027454545393C4A4949300155
S1130260710905033649494936064949291E0036AC
S113027036000000563600000008142241141414FD
S1130280141441221408000201510906324979412B
S11302903E7E1111117E7F494949363E414141223A
S11302A07F4141221C7F494949417F090901013E9F
S11302B0414151327F0808087F00417F41002040BE
S11302C0413F017F081422417F404040407F0204A7
S11302D0027F7F0408107F3E4141413E7F090909A6
S11302E0063E4151215E7F09192946464949493153
S11302F001017F01013F4040403F1F2040201F7FFC
S11303002018207F631408146303047804036151E4
S113031049454300007F4141020408102041417FC8
S11303200000040201020440404040400001020475
S11303300020545454787F4844443838444444207A
S1130340384444487F3854545418087E090102083C
S11303501454543C7F0804047800447D4000204039
S1130360443D00007F10284400417F40007C041875
S113037004787C0804047838444444387C14141405
S113038008081414187C7C080404084854545420A5
S1130390043F4440203C4040207C1C2040201C3C26
S11303A04030403C44281028440C5050503C446495
S11303B0544C44000836410000007F0000004136E0
S11303C00800020103020100000000000000000018
S11303D0065F5F060000000007070007070000141F
S11303E07F7F147F7F1400242E6B6B3A120000462B
S11303F06630180C666200307A4F5D377A48000424
S113040007030000000000001C3E634100000000E0
S113041041633E1C000000082A3E1C1C3E2A0808BA
S1130420083E3E0808000000A0E06000000000084C
S11304300808080808000000006060000000006070
S113044030180C060301003E7F594D7F3E000042E8
S1130450427F7F40400000627359496F660000226A
S11304606349497F360000181C16137F7F1000274C
S11304706745457D3900003C7E4B497930000003D7
S11304806371190F070000367F49497F3600000663
S11304904F49693F1E000000006C6C000000000022
S11304A0A0EC6C00000000081C366341000000143E
S11304B014141414140000004163361C08000002D4
S11304C00351590F0600003E7F415D5D1F1E007CF5
S11304D07E13137E7C0000417F7F49497F36001CD8
S11304E03E634141632200417F7F41637F1C0041A1
S11304F07F7F495D416300417F7F491D0103001CEB
S11305003E6341517372007F7F08087F7F000000C3
S1130510417F7F41000000307040417F3F01004136
S11305207F7F081C776300417F7F41406070007FBC
S11305307F060C067F7F007F7F060C187F7F001CE0
S11305403E6341633E1C00417F7F49090F06001E44
S11305503F21717F5E0000417F7F19396F4600267D
S1130560674D597B32000003417F7F410300007FC8
S11305707F40407F7F00001F3F60603F1F00007F7F
S11305807F3018307F7F0063771C081C7763000777
S11305904F78784F0700006773594D476371000027
S11305A07F7F41410000000103060C183060000009
S11305B041417F7F000000080C0603060C08008000
S11305C08080808080808000000307040000002079
S11305D07454543C784000413F7F44447C38003894
S11305E07C44446C280000307848493F7F40003800
S11305F07C54545C180000487E7F49030200009834
S1130600BCA4A4F87C0400417F7F08047C7800002B
S1130610447D7D4000000040C484FD7D0000004115
S11306207F7F10386C440000417F7F400000007CD5
S11306307C0C180C7C78007C7C04047C78000038EA
S11306407C44447C38000084FCF8A4243C18001842
S11306503C24A4F8FC8400447C78441C1800004822
S11306605C54547424000000043E7F442400003C85
S11306707C40403C7C40001C3C60603C1C00003CD6
S11306807C6030607C3C00446C3810386C44009CC6
S1130690BCA0A0FC7C00004C64745C4C64000008AA
S11306A0083E7741410000000000777700000041D8
S11306B041773E0808000002030103020301000021
S11306C011241FBECFEFD4E0DEBFCDBF12E0A0E007
S11306D0B1E0EEEBF4E302C005900D92AE3AB1073F
S11306E0D9F723E0AEEAB2E001C01D92A637B20703
S11306F0E1F70E941E140C945D1A0C940000CF9331
S1130700C82F0E945C054FEF60E680E60E946105F9
S113071041E061E08BE20E946105CC2319F0C13015
S113072039F00BC040E460EE8FE00E94610505C023
S113073040E060EE8FE00E94610585B7826085BF6E
S11307408BB780648BBFCF910895EF92FF920F9384
S11307501F93CF93DF937C01FC0180819181959558
S11307608795959587959595879561E30E940705EB
S1130770F701808162E38295880F807E0E940705DD
S113078065E3F70182810E940705F701828118164B
S1130790ACF487010D5F1F4FC0E0D0E06C2F6A5CA2
S11307A0F80181918F010E9407052196F7012281AA
S11307B0332727FD3095C217D30784F380E00E94C6
S11307C03505DF91CF911F910F91FF90EF90089520
S11307D01F920F920FB60F9211248F939F9381E073
S11307E090E09093AF028093AE029F918F910F900F
S11307F00FBE0F901F9018958F929F92AF92BF9249
S1130800CF92DF92EF92FF920F931F93CF93DF93D8
S1130810CDB7DEB72B970FB6F894DEBF0FBECDBFB2
S11308207C019E01255F3F4FFE0134961192E21731
S1130830F307E1F78091AE029091AF02892B71F436
S11308408FEF9FEF9A8389831B828BE0FE013196A1
S1130850D70101900D928A95E1F74AC01092AF0238
S11308601092AE0281E60E941F05A82E82E60E9425
S11308701F05B12CAA0CBB1CAA0CBB1CAA0CBB1CCC
S1130880829586958770A80EB11C85E60E941F0587
S1130890882E1816ECF4CC24C394D12CCC0EDD1E77
S11308A083E0C80ED11CC80CD11C87FCDA948E01DD
S11308B00C5F1F4F0F2EF6E69F2EF02D892D0E9400
S11308C01F05F80181938F019394EC15FD05B1F791
S11308D040E061E08CE20E946105BA82A9828B82C9
S11308E08BE0FE013196D70101900D928A95E1F7D4
S11308F0C7012B960FB6F894DEBF0FBECDBFDF91B4
S1130900CF911F910F91FF90EF90DF90CF90BF9008
S1130910AF909F908F900895CF93DF93CDB7DEB7BC
S11309202B970FB6F894DEBF0FBECDBF14165CF440
S1130930FE0134969F01240F311D47FD3A95119213
S1130940E217F307E1F77A8369834B832BE0FE0117
S11309503196DC0101900D922A95E1F72B960FB6A2
S1130960F894DEBF0FBECDBFDF91CF910895CF9332
S1130970DF93CDB7DEB72B970FB6F894DEBF0FBE6B
S1130980CDBFCE0101960E94FC0389819A818130FA
S1130990910511F080E090E02B960FB6F894DEBF3D
S11309A00FBECDBFDF91CF9108950F931F93CF93C7
S11309B0DF93CDB7DEB72B970FB6F894DEBF0FBE2B
S11309C0CDBF8C01CB01BA019801225031092230EC
S11309D0310590F420E030E04AE754E40E94E81640
S11309E00E94061682E08B837C836D831A830983BD
S11309F0CE0101960E94A5032B960FB6F894DEBF94
S1130A000FBECDBFDF91CF911F910F910895CF936A
S1130A10DF93C82FD62F81E090E00E94950582E0F5
S1130A200E9487058D2F0E9487058C2F0E948705C1
S1130A3080E090E00E949505DF91CF910895CF93D7
S1130A40C82F81E090E00E94950583E00E9487050D
S1130A508C2F0E9487050E948D05C82F80E090E0AE
S1130A600E9495058C2FCF910895CF93882331F060
S1130A70813031F0823031F0C0E805C0C1E803C0F4
S1130A80C2E801C0C4E881E090E00E9495058C2F83
S1130A900E94870580E090E00E949505CF9108951B
S1130AA081E090E00E94950580EC0E94870580E03B
S1130AB090E00E94950508950E947F050E945005CC
S1130AC008951F93CF93DF93182FD62FC42F81E05F
S1130AD090E00E94950585E00E948705812F0E9481
S1130AE087058D2F0E9487058C2F0E94870580E043
S1130AF090E00E949505DF91CF911F910895BD9AD2
S1130B00BF9ABC9ABE986C9A699A6E9A08958FB9E6
S1130B10779BFECF80E090E008958FEF0E948705D9
S1130B20779BFECF8FB190E008958130910511F449
S1130B30C4980895892B09F4C49A08955D9BFECF47
S1130B408CB908959C01442737FD4095542F60E0EB
S1130B5070EB84E090E00E944B172150310930BDC6
S1130B6029B988E18AB986E880BD80E091E0909354
S1130B7073038093720308950E943B0A0E94080B3A
S1130B800E94E70B089561E081E00E94781062E022
S1130B9070E089E691E00E945A1228E230E04AE0CF
S1130BA050E064E170E08AE090E00E94D11228E213
S1130BB030E044E150E068E270E08AE090E00E94B6
S1130BC0D11224E130E049E150E068E270E084E1D0
S1130BD090E00E94D1122EE130E04BE150E06EE152
S1130BE070E087E190E00E94D11228E230E04EE10B
S1130BF050E064E170E089E190E00E94D11224E1C8
S1130C0030E04EE150E068E270E08EE190E00E9456
S1130C10D11224E130E043E250E064E170E08EE17F
S1130C2090E00E94D11229E130E043E250E064E117
S1130C3070E083E290E00E94D11229E130E04EE1BD
S1130C4050E069E170E083E290E00E94D11228E272
S1130C5030E043E250E069E170E08EE190E00E9410
S1130C60D11228E230E04FE250E068E270E085E221
S1130C7090E00E94D1122EE130E04FE250E068E2B1
S1130C8070E08FE290E00E94D1122EE130E043E266
S1130C9050E06EE170E08FE290E00E94D11224E116
S1130CA030E045E250E06EE170E085E290E00E94C1
S1130CB0D11224E130E04FE250E064E170E085E2DB
S1130CC090E00E94D11264E084E30E94781062E014
S1130CD070E082E791E00E945A1224E130E041E49E
S1130CE050E068E270E081E490E00E94D11224E1D7
S1130CF030E04BE450E064E170E081E490E00E9475
S1130D00D1122EE130E04BE450E064E170E08BE47A
S1130D1090E00E94D1122EE130E041E450E06EE117
S1130D2070E08BE490E00E94D11224E130E04DE4C5
S1130D3050E068E270E08DE490E00E94D11224E17A
S1130D4030E045E550E064E170E08DE490E00E941D
S1130D50D1122EE130E045E550E06EE170E08DE423
S1130D6090E00E94D11228E230E045E550E068E2CC
S1130D7070E08DE490E00E94D11224E130E047E578
S1130D8050E068E270E087E590E00E94D11224E12F
S1130D9030E04FE550E064E170E087E590E00E94C8
S1130DA0D11229E130E04FE550E064E170E08FE5D5
S1130DB090E00E94D11229E130E047E550E069E17A
S1130DC070E08FE590E00E94D11228E230E04FE518
S1130DD050E069E170E087E590E00E94D11267E09D
S1130DE082E30E94781061E070E084E791E00E9461
S1130DF05A120E948B112FEF8FEF9CE221508040FA
S1130E009040E1F700C000C008950E94B1110E9413
S1130E108B1163E084E10E94781062E070E083E863
S1130E2091E00E945A1264E089E10E94781062E025
S1130E3070E08EE891E00E945A120E948B112FEF0D
S1130E408FEF9AE4215080409040E1F700C0000009
S1130E500E94B1110E948B1108950F931F93CF9399
S1130E60DF93CDB7DEB72C970FB6F894DEBF0FBE75
S1130E70CDBF9F938F9387E991E09F938F938E01CA
S1130E800F5F1F4F1F930F930E948C170F900F90AB
S1130E900F900F900F900F90C8012C960FB6F894F6
S1130EA0DEBF0FBECDBFDF91CF911F910F9108958B
S1130EB00E94DE100E94B11161E070E08AE991E0C5
S1130EC00E945A1263E080E00E94781061E070E0B2
S1130ED08FEA91E00E945A1263E080E50E94781044
S1130EE060910A0370910B0380910C0390910D03A0
S1130EF022E330E040E050E00E946D17C9010E94F7
S1130F002D0761E070E00E945A120E948B1108952F
S1130F1010921903109218030E94C30F892B11F029
S1130F200E94D10E0E9458070E94B704892BD1F465
S1130F3080910A0390910B03A0910C03B0910D03CF
S1130F408E3C21E39207A105B10534F70196A11D5A
S1130F50B11D80930A0390930B03A0930C03B093E9
S1130F600D03DACF08950F931F93CF93DF9360910E
S1130F700A0370910B0380910C0390910D0361158A
S1130F8071058105910509F47FC022E330E040E05A
S1130F9050E00E946D17822F932FA42FB52F4091FC
S1130FA0360150913701662757FD6095762F8417D7
S1130FB09507A607B7070CF040C0E8E3F1E0C0E0EE
S1130FC0D0E0219641915191662757FD6095762F87
S1130FD084179507A607B70724F4C630D10589F707
S1130FE053C0C630D1052CF14FC0D8019E918E91CB
S1130FF08D0113969C938E931297CF010797DC0172
S11310006C910496DC016C930397DC016C9104965B
S1131010DC016C930397DC016C910496DC016C9306
S11310200397DC016C916083FC0104171507E9F652
S113103010C0C530D1051CF00CC0C0E0D0E000E405
S113104011E0E5E2F1E0AE01440F551F4A5C5E4F4A
S1131050CCCFFE01EE0FFF1FEA5CFE4F822F932FD1
S113106091838083CC0FDD1FCC0FDD1FC25FDE4F69
S113107080914C01888380914D01898380914E0138
S11310808A8380914F018B83DF91CF911F910F91C0
S11310900895CF93DF93CDB7DEB72B970FB6F894AF
S11310A0DEBF0FBECDBF41E065E070E0CE0101962A
S11310B00E948C04CE0101960E94A5032B960FB6C4
S11310C0F894DEBF0FBECDBFDF91CF910895CF93CB
S11310D0DF9380E895E20E94A2050E94C6110E9457
S11310E0C50D0E94241081E00E947F0310920A0320
S11310F010920B0310920C0310920D030E943810EF
S11311000E94C3050E9449086FEB71E084E293E0FA
S11311100E943B148AE193E090932D0380932C0367
S11311204BE35AE068EC71E082ED92E00E943114E6
S113113082ED92E09093270380932603C4E2D3E0E8
S1131140D093D902C093D80247EE5BE063ED71E01F
S113115084EB92E00E94311484EB92E09093D702E6
S11311608093D60248E05BE063EE71E08EE093E0AA
S11311700E9431148EE093E09093B9028093B802F8
S11311804CEB5CE06AEE71E080E393E00E94311482
S113119080E393E0909313038093120365EF71E06F
S11311A08AE193E00E943B1444E75DE06FEF71E055
S11311B086EE92E00E94311486EE92E090931D0335
S11311C080931C0340E050E06FEB71E08EEB92E003
S11311D00E943114E0911C03F0911D038EEB92E008
S11311E095838483D093C702C093C60247E85DE029
S11311F06AE072E08CED92E00E9431148CED92E092
S11312009093C3028093C20264E172E08AE393E0A4
S11312100E943B1442E85DE06FE172E088EC92E0EA
S11312200E9431144BE75DE068E272E080EF92E0E7
S11312300E94311488EC92E090933D0380933C0328
S113124080EF92E09093CD028093CC0278940E9438
S1131250B20DDF91CF910895CF92DF92EF92FF927A
S11312600E9448100E94B1118AE393E00E9447143F
S11312700E948B1183E090E09093190380931803EC
S11312800F2EF2E3CF2ED12CE12CF12CF02D0E9465
S1131290C30F8AE393E00E94A11420E430E04FE7F7
S11312A050E060E470E081E090E00E94D11266E0DA
S11312B085E00E94781062E070E081E392E00E9491
S11312C05A1260910A0370910B0380910C03909160
S11312D00D03A70196010E946D17C9010E942D07F5
S11312E061E070E00E945A120E948B1180911803F1
S11312F090911903039759F20E94B30710920A03BD
S113130010920B0310920C0310920D03809118039A
S113131090911903892B69F40E94B1110E948B11D9
S11313200E9449088AE193E00E94471480E090E01B
S113133002C081E090E0FF90EF90DF90CF9008959D
S11313400E94B11164E08EE10E94781060E070E0C8
S11313508EE392E00E945A120E948B112FEF8FEFBE
S11313609EE0215080409040E1F700C0000061E021
S113137070E083E492E00E945A120E948B112FEFD6
S11313808FEF9EE0215080409040E1F700C00000C4
S113139061E070E088E492E00E945A120E948B118E
S11313A02FEF8FEF9EE0215080409040E1F700C086
S11313B0000062E070E08DE492E00E945A120E9404
S11313C08B112FEF8FEF9EE0215080409040E1F78A
S11313D000C00000089510921903109218030E948F
S11313E0B1110E948B118AE193E00E94471480910D
S11313F0180390911903009771F40E94C30F8AE1B6
S113140093E00E94A1140E948B1180911803909183
S11314101903009791F3029749F00E94A0091092D2
S113142019031092180380E090E0089581E090E0A1
S113143008951F93CF93DF93CDB7DEB72B970FB6E5
S1131440F894DEBF0FBECDBF182F41E065E070E019
S1131450CE0101960E948C041C83CE0101960E9449
S1131460A5032B960FB6F894DEBF0FBECDBFDF9158
S1131470CF911F9108958F929F92AF92BF92CF9276
S1131480DF92EF92FF920F931F93CF93DF930E940B
S1131490B1110E94DE1062E070E081E592E00E94EA
S11314A05A12C0E0D0E00F2EF1E48F2EF02D0F2E53
S11314B0FAE59F2EF02DC12CD12CAA24A394B12C93
S11314C06894EE24E1F8F12C0E94C30F0E947F0E71
S11314D0892B61F0FE01E45BFE4F80818A3530F494
S11314E0FE01E45BFE4F8F5F808308C00E947F0E85
S11314F0892B21F0FE01E45BFE4F80820E94940E52
S1131500892B61F0FE01E45BFE4F8081823430F070
S1131510FE01E45BFE4F8150808308C00E94940E5C
S1131520892B21F0FE01E45BFE4F90820E94BD0EE8
S1131530892B21F0C330D1050CF421960E94A80E0A
S1131540892B19F0DD230CF021970E94A80E892B1A
S113155021F0CF3F2FEFD20761F00E94BD0E892BFF
S113156069F0C330D10569F40A2D1B2DCE2DDF2D72
S11315700AC00A2D1B2DCC2DDD2D05C00C2D1D2DD3
S113158002C00C2D1D2D63E08CE30E9478106E2D9B
S11315907F2D8CE491E00E945A120E948B110E94CC
S11315A07F0E892B29F50E94A80E892B09F50E942C
S11315B0BD0E892BE9F40E94940E892BC9F49FEF88
S11315C02FE781E0915020408040E1F700C000C047
S11315D063E08C2F880F880F880F845C0E9478103A
S11315E06E2D7F2D8EE592E00E945A120E948B117F
S11315F0012B09F469CFDF91CF911F910F91FF90D7
S1131600EF90DF90CF90BF90AF909F908F90089510
S1131610CF92DF92EF92FF920F931F93CF93DF93BA
S11316200E94B1110E94DE1062E070E080E692E058
S11316300E945A1201E010E0EE24E394F12CC12C34
S1131640D12C0E94C30F0E94A80E3E2D2F2D892B52
S113165011F43C2D2D2DC32FD22F0E94BD0E892BAA
S113166011F0CE2DDF2D0E94940E892B71F0809104
S1131670B0029091B102823091053CF401969093AE
S1131680B1028093B0020E2D1F2D0E947F0E892B74
S113169021F18091B0029091B10218161906ECF470
S11316A001979093B1028093B00263E08CE30E94AF
S11316B078108091B0029091B1029C01220F331FE7
S11316C0220F331F820F931F62E070E0805B9E4FF6
S11316D00E945A120E948B1119C063E08CE30E948D
S11316E078108091B0029091B1029C01220F331FB7
S11316F0220F331F820F931F62E070E0805B9E4FC6
S11317000E945A120E948B11012B49F09FEF2FEF78
S113171082E0915020408040E1F700C000C0CD2B12
S113172019F40C2D1D2D8DCF8091B0029091B10232
S113173081309105D1F08230910561F1892BF1F569
S113174040E050E060E171E482E090E00E94D50462
S113175048EB5EE165EC7EE383E090E00E94D50413
S113176080E190E00E94190A29C040E050E068E15D
S113177071E482E090E00E94D50440E050E060E033
S11317807FE383E090E00E94D5048EE090E00E9425
S1131790190A14C040E050E060E670E482E090E092
S11317A00E94D5044AE959E969E97EE383E090E0BF
S11317B00E94D5048FE090E00E94190ADF91CF9136
S11317C01F910F91FF90EF90DF90CF900895AF920B
S11317D0BF92CF92DF92EF92FF920F931F93CF931A
S11317E0DF93CDB7DEB76E970FB6F894DEBF0FBEAA
S11317F0CDBFFE0131968EE1DF011D928A95E9F796
S113180088E692E09A83898388E792E09C838B83BD
S113181088E892E09E838D830E94B1110E94DE10BD
S113182062E070E088E992E00E945A1201E010E060
S1131830AA24A394B12CC12CD12C0E94C30F0E94C2
S1131840A80E892B29F00115110509F477C07EC073
S11318500E94BD0E892B31F00115110531F4EA2CDB
S1131860FB2C05C0EC2CFD2C02C0EC2CFD2C0E94A2
S1131870940E892B81F080914A0190914B01823022
S113188091054CF4019690934B0180934A010E9478
S113189058100A2D1B2D0E947F0E892B39F180913F
S11318A04A0190914B011816190604F5019790937B
S11318B04B0180934A010E94681063E08EE10E940C
S11318C07810E0914A01F0914B01EE0FFF1F81E087
S11318D090E08C0F9D1FE80FF91F6A2D7B2D8081EE
S11318E091810E945A120E948B111AC063E08EE10A
S11318F00E947810E0914A01F0914B01EE0FFF1F16
S1131900A1E0B0E0AC0FBD1FEA0FFB1F6A2D7B2DD9
S1131910808191810E945A120E948B11012B49F0FF
S1131920BFEF2FEF82E0B15020408040E1F700C0CC
S113193000C0EF2881F40C2D1D2D7FCF0E94BD0E19
S1131940892B09F08CCFEA2CFB2C91CF0E94BD0E81
S1131950EC2CFD2C8CCF6E960FB6F894DEBF0FBE28
S1131960CDBFDF91CF911F910F91FF90EF90DF904A
S1131970CF90BF90AF9008954F925F926F927F92F5
S11319808F929F92AF92BF92CF92DF92EF92FF928B
S11319900F931F93CF93DF930E94B1110E94DE1027
S11319A062E070E08FE992E00E945A120F2EFEE08E
S11319B08F2EF1E09F2EF02D0F2EF6E36F2EF1E027
S11319C07F2EF02D6894442441F8512C0E94C30FBB
S11319D00E94A80E5C0174018301C42DD52D6C2FC7
S11319E081E00E947810CE0101970E942D0761E0EA
S11319F070E00E945A1261E070E08BEA92E00E946B
S1131A005A1261E070E0C7010E945A1261E070E06E
S1131A108BE392E00E945A126801F801808191815F
S1131A200E942D0761E070E00E945A12F801808143
S1131A309181843691053CF061E070E086E992E0A2
S1131A400E945A120FC00A973CF061E070E085E9E9
S1131A5092E00E945A1206C061E070E084E992E0CC
S1131A600E945A12CE010E942D0761E070E00E948C
S1131A705A1261E070E08BEA92E00E945A1261E02F
S1131A8070E0C70104960E945A1261E070E08BE393
S1131A9092E00E945A12F601828193810E942D07DE
S1131AA061E070E00E945A122296F8E0EF0EF11CF9
S1131AB00C5F1F4FC830D10509F091CF0E948B11E4
S1131AC0AB2809F483CFDF91CF911F910F91FF9041
S1131AD0EF90DF90CF90BF90AF909F908F907F90CA
S1131AE06F905F904F90089581E090E09093190378
S1131AF080931803089581E090E0909319038093F4
S1131B00180308951092190310921803089582E09F
S1131B1090E0909319038093180308958D5F809348
S1131B2000148091B2029091B302892BD1F31092E8
S1131B30B3021092B2028091001408951F920F9282
S1131B400FB60F9211248F939F9381E090E09093AE
S1131B50B3028093B2029F918F910F900FBE0F90AA
S1131B601F90189581E090E00E948E0D90E0909374
S1131B7009038093080382E090E00E948E0D90E0B8
S1131B8090932F0380932E030895789485B78860EB
S1131B9085BF8BB780688BBF87B3817F87BB0E946B
S1131BA0B20DF8940895CF92DF92EF92FF920F93C3
S1131BB01F93CF93DF9300D000D000D0CDB7DEB712
S1131BC081E090E00E948E0D082F82E090E00E9458
S1131BD08E0DC82E2091080330910903E0902E0346
S1131BE0F0902F0316B3802F90E0821B930B0F2EDF
S1131BF0F4E6DF2EF02DD89EB001D99E700D11248D
S1131C00882777FD8095982F0E94341620E030E0D5
S1131C104EEF52E40E9499150E940116062F862F5A
S1131C20972F9A8389838C2D90E08E199F09D89ED3
S1131C30B001D99E700D1124882777FD8095982FC7
S1131C400E94341620E030E04EEF52E40E949915D1
S1131C500E940116862F972F9C838B8316951695C9
S1131C60169581E0182711701D831E82202F3A815A
S1131C70462F5C81612F70E080E090E026960FB6DD
S1131C80F894DEBF0FBECDBFDF91CF911F910F91AE
S1131C90FF90EF90DF90CF90089583E090E00E9452
S1131CA08E0D24E6829FC0011124BC01882777FD94
S1131CB08095982F0E94341620E030E04FE753E4DB
S1131CC00E9499150E940116CB01089584E090E0CA
S1131CD00E948E0D24E6829FC0011124BC01882736
S1131CE077FD8095982F0E94341620E030E04FE76E
S1131CF053E40E9499150E940116CB010895809126
S1131D00460390914703853C9F4F5CF081E090E04F
S1131D102091FC023091FD02243C3F4F24F080E0EE
S1131D20089580E090E008958091460390914703E0
S1131D30CC975CF481E090E02091FC023091FD02AC
S1131D402D33310524F480E0089580E090E0089577
S1131D508091440390914503853C9F4F5CF081E062
S1131D6090E02091FA023091FB02243C3F4F24F092
S1131D7080E0089580E090E008958091440390917C
S1131D804503CC975CF481E090E02091FA02309115
S1131D90FB022D33310524F480E0089580E090E0C7
S1131DA00895CF93DF93CDB7DEB72B970FB6F89492
S1131DB0DEBF0FBECDBF44E064E070E0CE0101960B
S1131DC00E948C048091FA028C838D838091FE02A0
S1131DD08E83809100038F83CE0101960E94A50318
S1131DE08EE0EAEFF2E0A2E5B3E001900D928A956D
S1131DF0E1F72B960FB6F894DEBF0FBECDBFDF918F
S1131E00CF910895CF92DF92EF92FF920F931F9399
S1131E10CF93DF93CDB7DEB72E970FB6F894DEBF1E
S1131E200FBECDBF20914E0330914F0380915C03D0
S1131E3090915D032817390709F070C02091500371
S1131E403091510380915E0390915F032817390705
S1131E5009F067C08091480390914903009709F005
S1131E6063C020914A0330914B0340915803509131
S1131E705903BA016C5F7F4F621773070CF457C0A4
S1131E8044505109241735070CF454C020914C03D5
S1131E9030914D0340915A0350915B03BA016C5F3A
S1131EA07F4F621773070CF448C04450510924173C
S1131EB035070CF445C0E0914403F091450360916B
S1131EC05203709153039B0126503109E217F30723
S1131ED0D4F1245F3F4F2E173F07C4F140914603CE
S1131EE0509147032091540330915503D90116971B
S1131EF04A175B0774F11C96A417B5076CF1379663
S1131F003F9710F4672B59F5495F5F4F4F305105E8
S1131F1058F52115310531F5C90126C081E090E05D
S1131F2023C08AE090E020C084E690E01DC088ECE5
S1131F3090E01AC088EC90E017C08AEF90E014C0DB
S1131F408AEF90E011C088E191E00EC088E191E051
S1131F500BC082E291E008C082E291E005C08CE20D
S1131F6091E002C08DE291E02E960FB6F894DEBFA8
S1131F700FBECDBFDF91CF911F910F91FF90EF90D6
S1131F80DF90CF900895CF93DF938091FA029091E0
S1131F90FB0207960F9720F41092FB021092FA02AC
S1131FA08091FC029091FD0207960F9720F4109205
S1131FB0FD021092FC020E94020FEC018EE0EAEF97
S1131FC0F2E0A4E4B3E001900D928A95E1F70E9457
S1131FD0D30D2093FA023093FB024093FC025093FA
S1131FE0FD026093FE027093FF020E944D0E9093D7
S1131FF00103809300030E94660E90930303809371
S1132000020386B3827090E09093050380930403E7
S113201086B3847090E09093070380930603CE0107
S1132020DF91CF91089585B7806885BF80B78062BE
S113203080BF0895FC0160830895FC0180810895A8
S1132040C09A0895C0980895B89A81B3806381BBFB
S1132050949895980E9420102FEF8FEF92E02150D2
S113206080409040E1F700C000C00E942210089513
S1132070949A959A0E9420102FEF8FEF92E02150AE
S113208080409040E1F700C000C00E9422100895F3
S1132090949A95980E9420102FEF8FEF92E0215090
S11320A080409040E1F700C000C00E9422100895D3
S11320B09498959A0E9420102FEF8FEF92E0215070
S11320C080409040E1F700C000C00E9422100895B3
S11320D0949895980E9420102FEF8FEF92E0215052
S11320E080409040E1F700C000C00E942210089593
S11320F06093610380936003E0916301F091640154
S1132100809161038770806B8083E0916301F0911B
S11321106401809160038F708083E0916301F0918A
S113212064018091600382958F708061808308953B
S1132130E0916301F0916401909161039770906B59
S11321409083E0916301F0916401909160039F702A
S11321509083E0916301F091640190916003929502
S11321609F7090619083E0916101F091620180839E
S11321700895FF920F931F93CF93DF93F090600322
S113218000916103D0E010E00DC06D2F8C2F0E94F0
S11321907810812F0E949810CF5FC038B1F7DF5FAD
S11321A0D83011F0C12FF1CFF09260030093610396
S11321B0DF91CF911F910F91FF90089560E080E02F
S11321C00E9478100895909160032091610340E883
S11321D0249F90011124290F311D211594E0390702
S11321E050F440915F0150916001682FCA01820F41
S11321F0931F0E941A1008950F931F93CF93DF9398
S113220028E0829FC0011124EC01C953DD4F00E096
S113221010E0FE0184910E94E310609161038091BB
S113222060038F5F0E9478100F5F1F4F2196083064
S1132230110579F780E090E0DF91CF911F910F9124
S113224008950F931F93CF93DF93C82FD0E0A097E7
S1132250CE01880F991F880F991FC80FD91FC45129
S1132260DE4F00E010E0FE0184910E94E3106091D3
S11322706103809160038F5F0E9478100F5F1F4F8E
S113228021960530110579F780E090E0DF91CF9138
S11322901F910F9108950F931F93CF93DF9324E021
S11322A0829FC0011124EC01C051D04000E010E035
S11322B0FE0184910E94E3106091610380916003A8
S11322C08F5F0E9478100F5F1F4F21960430110515
S11322D079F780E090E0DF91CF911F910F910895FD
S11322E0209160038091610330E8839FC001112431
S11322F0820F911D9C01215031092F3F334048F436
S113230020915F0130916001820F931F0E941D1084
S1132310089580E00895FF920F931F93CF93DF9366
S1132320F090600300916103D0E010E00EC06C2FC8
S11323308D2F0E9478100E9470110E949810CF5F18
S1132340C830A9F7DF5FD03811F0C12FF0CFF09279
S1132350600300936103DF91CF911F910F91FF9070
S11323600895CF93DF93C0E0D0E080915F01909116
S1132370600160E08C0F9D1F0E941A102196C11508
S113238084E0D80791F7DF91CF9108950E9413104C
S11323901092610310926003E0916301F091640173
S11323A08EEA8083E0916301F091640181EA808385
S11323B0E0916301F09164018AED8083E09163010F
S11323C0F091640182E18083E0916301F091640102
S11323D088EC8083E0916301F091640188EA808352
S11323E0E0916301F09164018FE38083E0916301E4
S11323F0F091640185ED8083E0916301F0916401C3
S113240080E88083E0916301F091640181E8808336
S1132410E0916301F091640180E58083E0916301C0
S1132420F091640189ED8083E0916301F09164018E
S113243081E28083E0916301F091640182E2808310
S1132440E0916301F091640182E08083E091630193
S1132450F09164018BED8083E0916301F09164015C
S113246080E38083E0916301F09164018DEA8083CD
S1132470E0916301F09164011082E0916301F091B5
S1132480640184EA8083E0916301F091640186EA47
S11324908083E0916301F091640180E48083E091A2
S11324A06301F09164018FEA80830E94B9100E9455
S11324B0B1110895CF93DF93EC016115710551F4C7
S11324C08881882301F121960E944B118991811101
S11324D0FBCF19C06130710551F48881882399F0CC
S11324E021960E94211189918111FBCF0CC0623089
S11324F0710549F48881882331F021960E94FC10EB
S113250089918111FBCFDF91CF910895FF920F93B1
S11325101F93CF93DF93EA0100916003109161034D
S11325209B0127703078332334F421503109286F0C
S11325303F6F2F5F3F4FF22EFB01FF230CF43796C2
S1132540BF017595679575956795759567950E9413
S11325507810CD2B79F40E94701141E050E09A017B
S113256002C0220F331FFA94E2F7209582230E94BF
S1132570E3100DC00E94701141E050E09A0102C0C6
S1132580220F331FFA94E2F7822B0E94E310009388
S1132590600310936103DF91CF911F910F91FF901E
S11325A008952F923F924F925F926F927F928F92F3
S11325B09F92AF92BF92CF92DF92EF92FF920F93CE
S11325C01F93CF93DF93CDB7DEB728970FB6F89458
S11325D0DEBF0FBECDBF2C013B018A011901481794
S11325E0590709F4ADC02617370709F444C0B901E7
S11325F066197709882777FD8095982F0E943416ED
S11326004B015C01B80164197509882777FD809531
S1132610982F0E9434166B017C019B01AC01C5010B
S1132620B4010E94991569837A838B839C83A501E5
S11326309401C701B6010E9499156D837E838F832F
S1132640988720E030E040E85FE369817A818B81FC
S11326509C810E94951588230CF076C020E030E020
S113266040E85FEB69817A818B819C810E94E4164A
S113267018162CF069C019821A821B821C82041558
S1132680150534F43101942D852D2801092F182FB7
S1132690B301882777FD8095982F0E9434164B014B
S11326A05C01B201882777FD8095982F0E9434162B
S11326B06B017C0141E050E0B301C2010E9486122B
S11326C0B801882777FD8095982F0E9434166D8372
S11326D07E838F8398879B01AC01C701B6010E945A
S11326E0951588230CF091C029813A814B815C8136
S11326F0C501B4010E9431154B015C010E94011611
S11327002B013C01C701B6010E940116DC01CB017B
S113271041E050E0B2010E94861220E030E040E83F
S11327205FE3C701B6010E9431156B017C012D8165
S11327303E814F8158850E9495158823ACF265C06F
S11327401D821E821F8218862614370434F4962DA7
S1132750872D3101292E382E2801B301882777FDD2
S11327608095982F0E9434166B017C01B201882752
S113277077FD8095982F0E9434164B015C0141E04F
S113278050E0B301C2010E948612B101882777FD8F
S11327908095982F0E94341669837A838B839C8357
S11327A09B01AC01C701B6010E94951588236CF505
S11327B02D813E814F815885C501B4010E94311598
S11327C04B015C01C701B6010E9401162B013C01BB
S11327D0C501B4010E940116DC01CB0141E050E0C7
S11327E0B2010E94861220E030E040E85FE3C701B6
S11327F0B6010E9431156B017C0129813A814B811C
S11328005C810E94951588239CF228960FB6F89453
S1132810DEBF0FBECDBFDF91CF911F910F91FF900F
S1132820EF90DF90CF90BF90AF909F908F907F906C
S11328306F905F904F903F902F9008950E9467088B
S11328400E94BC050E94EB09892B31F40E94880781
S11328500E942C09892BB1F30E94050780E090E0C7
S11328600895FC017183608315821482538342832B
S1132870118610860895FC0171836083138212828D
S11328801582148297838683118610860895FF9299
S11328900F931F93CF93DF938C0160E08AE00E9433
S11328A07810D8011696ED91FC91179762E070E0CC
S11328B0808191810E945A12D8011696ED91FC9163
S11328C01797C281D381209799F06894FF24F1F877
S11328D06F2D84E10E94781061E070E08881998115
S11328E00E945A120C80DD81C02DF394209781F749
S11328F0D8011696ED91FC91179764816E5F8AE07A
S11329000E94781061E070E085E691E00E945A121E
S1132910DF91CF911F910F91FF900895DC011296E2
S1132920ED91FC911397309749F080E090E0019687
S11329300480F581E02D3097D1F7089580E090E090
S11329400895CF92DF92EF92FF920F931F93CF934C
S1132950DF936C01FC01068117810E94940E892B80
S113296069F0F8018481958118161906ECF4019731
S113297095838483EE24E394F12C20C00E947F0E7F
S1132980892BB1F0F801C481D581C8010E948E144D
S11329900197C817D9077CF42196F801D583C4831D
S11329A0EE24E394F12C0AC0EE24E394F12C06C047
S11329B0E12CF12C03C0EE24E394F12C0E94BD0E13
S11329C0892B11F1F801C281D3812097E9F0448168
S11329D055811416150654F420E030E00C80DD8196
S11329E0C02D2F5F3F4F24173507C1F7EA81FB81C4
S11329F0309709F0099588859985009709F4C801ED
S1132A00FFEFEF1AFF0A8C010E94A80E892B51F0E8
S1132A10F80180859185009709F4C801FFEFEF1A4A
S1132A20FF0A8C01F601178306838EE0EAEFF2E0D9
S1132A30A2E6B3E001900D928A95E1F7EF2839F010
S1132A400E94B111F601868197810E944714DF919B
S1132A50CF911F910F91FF90EF90DF90CF90089549
S1132A605058BB27AA270ED075C166D130F06BD160
S1132A7020F031F49F3F11F41EF45BC10EF4E09595
S1132A80E7FB51C1E92F77D180F3BA1762077307C7
S1132A908407950718F071F49EF58FC10EF4E09544
S1132AA00B2EBA2FA02D0B01B90190010C01CA0104
S1132AB0A0011124FF27591B99F0593F50F4503EAF
S1132AC068F11A16F040A22F232F342F4427585FA1
S1132AD0F3CF469537952795A795F0405395C9F7B9
S1132AE07EF41F16BA0B620B730B840BBAF0915071
S1132AF0A1F0FF0FBB1F661F771F881FC2F70EC010
S1132B00BA0F621F731F841F48F4879577956795E2
S1132B10B795F7959E3F08F0B3CF9395880F08F0CB
S1132B209927EE0F979587950895D9D008F481E0F9
S1132B3008950CD00FC107D140F0FED030F021F43D
S1132B405F3F19F0F0C0511139C1F3C014D198F3AB
S1132B509923C9F35523B1F3951B550BBB27AA271A
S1132B6062177307840738F09F5F5F4F220F331F8C
S1132B70441FAA1FA9F333D00E2E3AF0E0E830D058
S1132B8091505040E695001CCAF729D0FE2F27D05B
S1132B90660F771F881FBB1F261737074807AB0729
S1132BA0B0E809F0BB0B802DBF01FF2793585F4F9E
S1132BB02AF09E3F510568F0B6C000C15F3FECF3B8
S1132BC0983EDCF3869577956795B795F7959F5F63
S1132BD0C9F7880F911D9695879597F90895E1E0B7
S1132BE0660F771F881FBB1F621773078407BA0716
S1132BF020F0621B730B840BBA0BEE1F88F7E09571
S1132C00089504D06894B111D9C00895BCD088F057
S1132C109F5790F0B92F9927B751A0F0D1F0660FC4
S1132C20771F881F991F1AF0BA95C9F712C0B130DF
S1132C3081F0C3D0B1E00895C0C0672F782F8827F2
S1132C40B85F39F0B93FCCF3869577956795B3951E
S1132C50D9F73EF490958095709561957F4F8F4F8D
S1132C609F4F0895E89409C097FB3EF49095809592
S1132C70709561957F4F8F4F9F4F9923A9F0F92F3E
S1132C8096E9BB279395F695879577956795B795BC
S1132C90F111F8CFFAF4BB0F11F460FF1BC06F5FA2
S1132CA07F4F8F4F9F4F16C0882311F096E911C0B4
S1132CB0772321F09EE8872F762F05C0662371F0D5
S1132CC096E8862F70E060E02AF09A95660F771FE9
S1132CD0881FDAF7880F9695879597F90895990FC5
S1132CE00008550FAA0BE0E8FEEF16161706E807D2
S1132CF0F907C0F012161306E407F50798F0621BF3
S1132D00730B840B950B39F40A2661F0232B242BC7
S1132D10252B21F408950A2609F4A140A6958FEFE6
S1132D20811D811D089597F99F6780E870E060E038
S1132D3008959FEF80EC089500240A941616170650
S1132D4018060906089500240A9412161306140698
S1132D5005060895092E0394000C11F4882352F0FB
S1132D60BB0F40F4BF2B11F460FF04C06F5F7F4FB3
S1132D708F4F9F4F089557FD9058440F551F59F09A
S1132D805F3F71F04795880F97FB991F61F09F3F54
S1132D9079F087950895121613061406551FF2CF7D
S1132DA04695F1DF08C0161617061806991FF1CFCD
S1132DB086957105610508940895E894BB276627F4
S1132DC07727CB0197F908958ADF08F48FEF0895E8
S1132DD00BD0C0CFB1DF28F0B6DF18F0952309F08F
S1132DE0A2CFA7CF1124EACFC6DFA0F3959FD1F3DA
S1132DF0950F50E0551F629FF001729FBB27F00DA5
S1132E00B11D639FAA27F00DB11DAA1F649F6627F9
S1132E10B00DA11D661F829F2227B00DA11D621F48
S1132E20739FB00DA11D621F839FA00D611D221F02
S1132E30749F3327A00D611D231F849F600D211DE6
S1132E40822F762F6A2F11249F5750408AF0E1F089
S1132E5088234AF0EE0FFF1FBB1F661F771F881FD2
S1132E6091505040A9F79E3F510570F05CCFA6CF1A
S1132E705F3FECF3983EDCF3869577956795B795BD
S1132E80F795E7959F5FC1F7FE2B880F911D9695E7
S1132E90879597F90895A1E21A2EAA1BBB1BFD0181
S1132EA00DC0AA1FBB1FEE1FFF1FA217B307E40725
S1132EB0F50720F0A21BB30BE40BF50B661F771F7D
S1132EC0881F991F1A9469F760957095809590955D
S1132ED09B01AC01BD01CF010895052E97FB1EF4A3
S1132EE000940E94841757FD07D00E944B1707FCDB
S1132EF003D04EF40C948417509540953095219549
S1132F003F4F4F4F5F4F0895909580957095619511
S1132F107F4F8F4F9F4F0895AEE0B0E0E2E9F7E1B5
S1132F200C94341A0D891E8986E08C831A830983D4
S1132F308FEF9FE79E838D83AE01475E5F4F6F895E
S1132F40788DCE0101960E94AE17EF81F885E00FCF
S1132F50F11F10822E96E4E00C94501AACE0B0E01D
S1132F60E4EBF7E10C94261A7C016B018A01FC0165
S1132F7017821682838181FFBDC1CE0101964C0167
S1132F80F7019381F60193FD859193FF81916F0180
S1132F90882309F4ABC1853239F493FD859193FFFD
S1132FA081916F01853229F4B70190E00E9496194E
S1132FB0E7CF512C312C20E02032A0F48B3269F081
S1132FC030F4803259F0833269F420612CC08D32A0
S1132FD039F0803339F4216026C02260246023C094
S1132FE0286021C027FD27C030ED380F3A3078F42F
S1132FF026FF06C0FAE05F9E300D1124532E13C045
S11330008AE0389E300D1124332E20620CC08E329B
S113301021F426FD6BC1206406C08C3611F42068AF
S113302002C0883641F4F60193FD859193FF8191A6
S11330306F018111C1CF982F9F7D9554933028F44F
S11330400C5F1F4FFFE3F9830DC0833631F08337E4
S113305071F0833509F05BC022C0F8018081898357
S11330600E5F1F4F44244394512C540115C0380162
S1133070F2E06F0E711CF801A080B18026FF03C03E
S1133080652D70E002C06FEF7FEFC5012C870E94B1
S11330908B192C0183012C852F77222E17C0380120
S11330A0F2E06F0E711CF801A080B18026FF03C00E
S11330B0652D70E002C06FEF7FEFC5012C870E9481
S11330C080192C012C852068222E830123FC1BC02F
S11330D0832D90E048165906B0F4B70180E290E0E1
S11330E00E9496193A94F4CFF50127FC859127FEA6
S11330F081915F01B70190E00E94961931103A94D2
S1133100F1E04F1A51084114510471F7E5C08436B7
S113311011F0893639F5F80127FF07C06081718104
S1133120828193810C5F1F4F08C060817181882761
S113313077FD8095982F0E5F1F4F2F76B22E97FF45
S113314009C090958095709561957F4F8F4F9F4FE3
S11331502068B22E2AE030E0A4010E94C819A82EEB
S1133160A81844C0853729F42F7EB22E2AE030E017
S113317025C0F22FF97FBF2E8F36C1F018F48835A1
S113318079F0B4C0803719F0883721F0AFC02F2F01
S11331902061B22EB4FE0DC08B2D8460B82E09C000
S11331A024FF0AC09F2F9660B92E06C028E030E0A5
S11331B005C020E130E002C020E132E0F801B7FEB2
S11331C007C060817181828193810C5F1F4F06C0AB
S11331D06081718180E090E00E5F1F4FA4010E9426
S11331E0C819A82EA818FB2DFF77BF2EB6FE0BC05A
S11331F02B2D2E7FA51450F4B4FE0AC0B2FC08C0D7
S11332002B2D2E7E05C07A2C2B2D03C07A2C01C0C9
S1133210752C24FF0DC0FE01EA0DF11D8081803361
S113322011F4297E09C022FF06C07394739404C06C
S1133230822F867809F0739423FD13C020FF06C003
S11332405A2C731418F4530C5718732C731468F411
S1133250B70180E290E02C870E94961973942C8524
S1133260F5CF731410F4371801C0312C24FF12C0A9
S1133270B70180E390E02C870E9496192C8522FFE9
S113328017C021FF03C088E590E002C088E790E002
S1133290B7010CC0822F867859F021FD02C080E26C
S11332A001C08BE227FD8DE2B70190E00E949619E0
S11332B0A51438F4B70180E390E00E9496195A945B
S11332C0F7CFAA94F401EA0DF11D8081B70190E0D3
S11332D00E949619A110F5CF332009F451CEB701FD
S11332E080E290E00E9496193A94F6CFF701868125
S11332F0978102C08FEF9FEF2C96E2E10C94421A63
S1133300FC010590615070400110D8F780959095AC
S11333108E0F9F1F0895FC016150704001900110B1
S1133320D8F7809590958E0F9F1F08950F931F9344
S1133330CF93DF93182F092FEB018B8181FD03C0FD
S11333408FEF9FEF20C082FF10C04E815F812C81E0
S11333503D81421753077CF4E881F9819F012F5F77
S11333603F4F39832883108306C0E885F985812F70
S11333700995892B29F72E813F812F5F3F4F3F838A
S11333802E83812F902FDF91CF911F910F9108955C
S1133390FA01AA27283051F1203181F1E8946F9382
S11333A06E7F6E5F7F4F8F4F9F4FAF4FB1E03ED028
S11333B0B4E03CD0670F781F891F9A1FA11D680FC6
S11333C0791F8A1F911DA11D6A0F711D811D911DF9
S11333D0A11D20D009F468943F912AE0269F11246E
S11333E03019305D3193DEF6CF010895462F4770D2
S11333F0405D4193B3E00FD0C9F7F6CF462F4F702D
S1133400405D4A3318F0495D31FD4052419302D08A
S1133410A9F7EACFB4E0A695979587957795679530
S1133420BA95C9F700976105710508959B01AC0130
S11334300A2E06945795479537952795BA95C9F757
S1133440620F731F841F951FA01D08952F923F9232
S11334504F925F926F927F928F929F92AF92BF92A0
S1133460CF92DF92EF92FF920F931F93CF93DF934C
S1133470CDB7DEB7CA1BDB0B0FB6F894DEBF0FBEA9
S1133480CDBF09942A88398848885F846E847D84F6
S11334908C849B84AA84B984C884DF80EE80FD80F8
S11334A00C811B81AA81B981CE0FD11D0FB6F8946E
S11134B0DEBF0FBECDBFED010895F894FFCF2F
S11334BE00000002000000009E05000000004C41C8
S11334CE52005045520058585800414B530048453D
S11334DE4E004348520000000000000000000000AF
S11334EE0000000000007B005C003E003600280057
S11334FE03000000000000000000020041414100F2
S113350E4E4F524D0046415354004943452000004E
S113351E18001200102D3E00004D61646520627982
S113352E3A00260054544B343135352C2048323071
S113353E3137005448414E4B5320464F5200504CA5
S113354E4159494E4721002564005468652067613E
S113355E6D652068617320737461727465640043D1
S113356E757272656E742073636F72653A200053C0
S113357E657474696E677300456E746572204E616E
S113358E6D65004D757369632053656C656374696D
S113359E6F6E0054756E696E670048696768736371
S11335AE6F726573004D61696E204D656E750053C3
S11335BE746172742047616D650045786974206783
S11335CE616D6500524F554E44204F56455200438F
S11335DE6F6E74696E756500456E642067616D6506
S11335EE00594F55522053434F52453A2000332031
S11335FE2E2E0032202E2E0031202E2E00474F214B
S113360E00456E746572206E616D653A20005F0030
S113361E54756E696E673A00496D70657269616CB6
S113362E204D617263682000537461722077617259
S113363E73207468656D65004E6F206D75736963D4
S113364E20202020202020004D757369633A004805
S111365E6967682073636F72653A002E20005E
S9030000FC
