:10000000C2C00000E0C00000DEC00000DCC0000094
:10001000DAC00000D8C0000036C10000D4C0000023
:10002000D2C00000D0C00000CEC00000CCC0000094
:10003000CAC00000C8C00000C6C00000C4C00000A4
:10004000C2C00000C0C00000BEC00000BCC00000B4
:10005000BAC00000B8C00000B6C00000B4C00000C4
:10006000B2C00000B0C00000AEC00000ACC00000D4
:10007000AAC00000A8C00000A6C00000A4C00000E4
:10008000D6C40000A0C000009EC000009CC00000BC
:100090009AC0000098C0000096C000001BC5000078
:1000A00092C0000090C000008EC000008CC0000014
:1000B0008AC0000088C0000086C0000084C0000024
:1000C00082C0000080C000007EC000007CC0000034
:1000D0007AC0000078C0000076C0000074C0000044
:1000E00072C000008505D705D705D705D705D70508
:1000F000D705D7058505D705D705D705D705D70572
:10010000D705D7058705D705D705D705D705D7055F
:10011000D705D705D705D705D705D705D705D705FF
:10012000D705D7058705D705D705D705D705D7053F
:10013000D705D705D705D705D705D705D705D705DF
:10014000D705D705D305D705D705D705D705D705D3
:10015000D705D705B005D705D705D705D705D705E6
:10016000D705D705D705D705D705D705D705D705AF
:10017000D705D705A405D705D705D705D705D705D2
:10018000D705D705C20511241FBECFEFD1E2DEBFD0
:10019000CDBF00E00CBF12E0A0E0B2E0E8EEF5E178
:1001A00000E00BBF02C007900D92A037B107D9F74E
:1001B00022E0A0E7B2E001C01D92AD38B207E1F73E
:1001C000F1D20C94F20A1CCFCF93C82FF9D14FEF84
:1001D00060E680E6F8D141E061E08BE2F4D1CC2327
:1001E00019F0C13031F009C040E460EE8FE0EBD18E
:1001F00004C040E060EE8FE0E6D1EAE6F0E0808106
:1002000088608083ED9ACF910895EF92FF920F93CB
:100210001F93CF93DF937C01FC01808191819595A1
:100220008795959587959595879561E384D1F70195
:10023000808162E38295880F807E7DD165E3F7013E
:10024000828179D1F70182811816A4F487010D5FAC
:100250001F4FC0E0D0E06C2F6A5CF80181918F01E4
:100260006AD12196F7012281332727FD3095C217E5
:10027000D3078CF380E083D1DF91CF911F910F9151
:10028000FF90EF9008951F920F920FB60F921124D6
:100290008F939F9381E090E090937102809370021E
:1002A0009F918F910F900FBE0F901F9018958F9276
:1002B0009F92AF92BF92CF92DF92EF92FF920F93F5
:1002C0001F93CF93DF93CDB7DEB72B970FB6F8947C
:1002D000DEBF0FBECDBF7C019E01255F3F4FFE01FB
:1002E00034961192E217F307E1F780917002909132
:1002F0007102892B71F48FEF9FEF9A8389831B82A0
:100300008BE0FE013196D70101900D928A95E1F7BD
:1003100045C0109271021092700281E61FD1A82E82
:1003200082E61CD1B12CAA0CBB1CAA0CBB1CAA0CCB
:10033000BB1C829586958770A80EB11C85E60ED1F0
:10034000882E1816E4F4CC24C394D12CCC0EDD1ED8
:1003500083E0C80ED11CC80CD11C87FCDA948E0136
:100360000C5F1F4F0F2EF6E69F2EF02D892DF6D035
:10037000F80181938F019394EC15FD05B9F740E0E6
:1003800061E08CE220D1BA82A9828B828BE0FE01EF
:100390003196D70101900D928A95E1F7C7012B960E
:1003A0000FB6F894DEBF0FBECDBFDF91CF911F9186
:1003B0000F91FF90EF90DF90CF90BF90AF909F9004
:1003C0008F900895CF93DF93CDB7DEB72B970FB6FD
:1003D000F894DEBF0FBECDBF14165CF4FE01349658
:1003E0009F01240F311D47FD3A951192E217F30743
:1003F000E1F77A8369834B832BE0FE013196DC01C0
:1004000001900D922A95E1F72B960FB6F894DEBF76
:100410000FBECDBFDF91CF9108950F931F93CF9360
:10042000DF93CDB7DEB72B970FB6F894DEBF0FBEC4
:10043000CDBFCE0101963BDF1C810D8189819A8160
:100440008330910509F44CC08430910521F0029766
:1004500009F066C024C0612F772767FD7095872F4C
:10046000972FFFD420E030E040EA50E45FD4C6D4B8
:10047000CB01CBD1812F992787FD90959F931F9317
:1004800087E192E09F938F93DBD50F900F900F90B1
:100490000F908E81882309F443C09BD241C0812FE5
:1004A000992787FD9095982F8827112707FD10958C
:1004B000082B192BB80180E090E0D1D420E030E087
:1004C0004AE754E433D491D21F930F938AE292E027
:1004D0009F938F93B5D50F900F900F900F9020C0E2
:1004E000812F992787FD9095982F8827112707FD41
:1004F0001095082B192BB80180E090E0B0D420E0D3
:1005000030E04AE754E412D470D21F930F9381E491
:1005100092E09F938F9394D50F900F900F900F9030
:100520002B960FB6F894DEBF0FBECDBFDF91CF91F3
:100530001F910F910895CF93DF93C82FD62F81E09D
:1005400090E077D082E066D08D2F64D08C2F62D07F
:1005500080E090E06ED0DF91CF910895CF93C82FC7
:1005600081E090E066D083E055D08C2F53D059D0F5
:10057000C82F80E090E05DD08C2FCF910895CF936D
:10058000882331F0813031F0823031F0C0E805C08D
:10059000C1E803C0C2E801C0C4E881E090E049D0EE
:1005A0008C2F38D080E090E044D0CF91089581E046
:1005B00090E03FD080EC2ED080E090E03AC00895EB
:1005C0001AD0F5CF08951F93CF93DF93182FD62F0E
:1005D000C42F81E090E02DD085E01CD0812F1AD06F
:1005E0008D2F18D08C2F16D080E090E022D0DF9194
:1005F000CF911F910895229A219A279A209A2398A1
:100600008CB580618CBD8CB582608CBD8CB58064EE
:100610008CBD08958EBD0DB407FEFDCF80E090E047
:1006200008958FEFF7DF0DB407FEFDCF8EB590E094
:1006300008958130910511F42F980895892B09F4BC
:100640002F9A0895E0ECF0E0908195FFFDCF809324
:10065000C60008959C01442737FD4095542F60E45F
:1006600072E48FE090E0B9D2215031093093C50097
:100670002093C40088E18093C10086E08093C2008B
:1006800080E092E090938A0280938902089580E846
:1006900095E2E0DF81E098DD4DD02BD0C8D080E03E
:1006A00090E0B3D0789488E592E0DBC40895CF93CE
:1006B000DF93CDB7DEB72B970FB6F894DEBF0FBE32
:1006C000CDBF41E061E070E0CE0101967BDECE015E
:1006D00001969BDD2B960FB6F894DEBF0FBECDBF03
:1006E000DF91CF91089599DE3DD0892BE1F3DFDFD3
:1006F000FECFEAE7F0E080818068808380818360BC
:100700008083ECE7F0E08081806480830895ECE7EB
:10071000F0E090818F71982B9083EAE7F0E0808180
:1007200080648083808186FDFDCF809178009091E8
:1007300079000895A3D18AB183608AB90895CF93CF
:10074000DF9300D0CDB7DEB790E599831A828B8313
:1007500063E0CE0101969CD10F900F900F90DF9136
:10076000CF91089580E090E0D2DF4997A4F4809182
:1007700072029091730201969093730280937202B9
:10078000209172023091730281E090E02B303105AC
:1007900040F480E00895109273021092720280E09B
:1007A00090E0089574DF9FDF80E090E00895E2E03C
:1007B000F1E080818F7D80838AE68A95F1F700C021
:1007C0008081877F80839AE69A95F1F700C0209117
:1007D00006018081886080838AE68A95F1F700C0EF
:1007E0008091060190819F7B90839AE69A95F1F71C
:1007F00000C090819064908390819062908390E09B
:10080000922B9195819591090895909386028093FA
:100810008502089510928102109282021092830242
:1008200010928402109286021092850208958FEF32
:1008300080930101109207017DDFE2E0F1E0808109
:1008400080618083808180648083E4DFD7D072DF21
:10085000089A109A089599234CF4E2E0F1E020817F
:100860002260208391958195910905C0E2E0F1E035
:1008700020812D7F208363CF08958F929F92AF9226
:10088000BF92CF92DF92EF92FF9291DF909380021E
:1008900080937F0260917F0270918002A090850218
:1008A000B0908602882777FD8095982FDAD22DECBC
:1008B0003CEC4CE45DE361D36B017C01B50188271E
:1008C00077FD8095982FCDD29B01AC01C701B60171
:1008D000C8D194D270937E0260937D0260917D02B4
:1008E00070917E02C0908102D0908202E0908302DB
:1008F000F0908402882777FD8095982FB2D22DEC56
:100900003CEC4CE45DE339D3A7019601ABD1609395
:10091000810270938202809383029093840260919B
:100920007D0270917E028090810290908202A09060
:100930008302B0908402882777FD8095982F91D20A
:10094000209112023091130240911402509115022D
:1009500014D36B017C0120910E0230910F02409163
:10096000100250911102C501B40107D39B01AC01E3
:10097000C701B60177D142D270937C0260937B02AB
:1009800080917B0290917C028F3F910539F034F089
:100990008FEF90E090937C0280937B0280917B02AA
:1009A00090917C0281309F4F34F481E09FEF9093CF
:1009B0007C0280937B0280917B0290917C024BDFD2
:1009C000FF90EF90DF90CF90BF90AF909F908F906F
:1009D000089510982FEF81EE94E0215080409040D0
:1009E000E1F700C00000109A08956093120270931E
:1009F000130280931402909315020895E0E9F0E049
:100A0000808182608083E1E9F0E08081886080837A
:100A100080818360808384ED90E39093990080933C
:100A2000980082E08093710080E090E008951F922A
:100A30000F920FB60F9211240BB60F922F933F9384
:100A40004F935F936F937F938F939F93AF93BF93D6
:100A5000EF93FF9312DFFF91EF91BF91AF919F91C1
:100A60008F917F916F915F914F913F912F910F9057
:100A70000BBE0F900FBE0F901F9018958CE08093C7
:100A8000B8008FEF8093BB0084E08093BC00089592
:100A9000ECEBF0E0208120FDFDCF60937602FC01BD
:100AA00020812093770220FD0CC0623050F0DC01E1
:100AB0001196E8E7F2E081E09D9191938F5F8613B4
:100AC000FBCF1092750288EF8093160285EA80931F
:100AD000BC0008951F920F920FB60F9211240BB60F
:100AE0000F922F933F938F939F93AF93BF93EF9367
:100AF000FF938091B90090E0FC013897E135F10552
:100B000008F055C0EE58FF4F84C010927402E09177
:100B1000740280917602E81770F481E08E0F809362
:100B20007402F0E0E958FD4F80818093BB0085E8B6
:100B30008093BC0043C080917502816080937502F0
:100B400084E98093BC003AC0E091740281E08E0F8A
:100B5000809374028091BB00F0E0E958FD4F8083E0
:100B60002091740230E08091760290E0019728177E
:100B7000390724F485EC8093BC0020C085E880937D
:100B8000BC001CC08091BB00E0917402F0E0E95809
:100B9000FD4F80838091750281608093750284E9A6
:100BA0008093BC000BC085EA8093BC0007C0809195
:100BB000B9008093160284E08093BC00FF91EF910E
:100BC000BF91AF919F918F913F912F910F900BBE4D
:100BD0000F900FBE0F901F901895052E97FB16F4DF
:100BE00000940FD057FD05D01AD007FC02D046F470
:100BF00008C050954095309521953F4F4F4F5F4F1E
:100C0000089590958095709561957F4F8F4F9F4F78
:100C10000895EE0FFF1F0590F491E02D1994A1E2C5
:100C20001A2EAA1BBB1BFD010DC0AA1FBB1FEE1F66
:100C3000FF1FA217B307E407F50720F0A21BB30BB1
:100C4000E40BF50B661F771F881F991F1A9469F72D
:100C500060957095809590959B01AC01BD01CF0189
:100C600008955058BB27AA270ED04DC13ED130F071
:100C700043D120F031F49F3F11F41EF433C10EF440
:100C8000E095E7FB29C1E92F4FD180F3BA1762073E
:100C900073078407950718F071F49EF567C10EF489
:100CA000E0950B2EBA2FA02D0B01B90190010C017C
:100CB000CA01A0011124FF27591B99F0593F50F494
:100CC000503E68F11A16F040A22F232F342F4427EC
:100CD000585FF3CF469537952795A795F0405395E4
:100CE000C9F77EF41F16BA0B620B730B840BBAF0B4
:100CF0009150A1F0FF0FBB1F661F771F881FC2F71F
:100D00000EC0BA0F621F731F841F48F48795779532
:100D10006795B795F7959E3F08F0B3CF9395880FE9
:100D200008F09927EE0F9795879508950CD0EBC0A2
:100D3000E3D040F0DAD030F021F45F3F19F0CCC0BE
:100D4000511115C1CFC0F0D098F39923C9F35523A1
:100D5000B1F3951B550BBB27AA27621773078407AE
:100D600038F09F5F5F4F220F331F441FAA1FA9F364
:100D700033D00E2E3AF0E0E830D091505040E69556
:100D8000001CCAF729D0FE2F27D0660F771F881FB7
:100D9000BB1F261737074807AB07B0E809F0BB0BA6
:100DA000802DBF01FF2793585F4F2AF09E3F5105CA
:100DB00068F092C0DCC05F3FECF3983EDCF38695B0
:100DC00077956795B795F7959F5FC9F7880F911D40
:100DD0009695879597F90895E1E0660F771F881F2C
:100DE000BB1F621773078407BA0720F0621B730BDF
:100DF000840BBA0BEE1F88F7E095089504D0689431
:100E0000B111B5C0089598D088F09F5790F0B92FD0
:100E10009927B751A0F0D1F0660F771F881F991F4F
:100E20001AF0BA95C9F712C0B13081F09FD0B1E085
:100E300008959CC0672F782F8827B85F39F0B93F95
:100E4000CCF3869577956795B395D9F73EF4909551
:100E50008095709561957F4F8F4F9F4F0895E894CF
:100E600009C097FB3EF490958095709561957F4FF2
:100E70008F4F9F4F9923A9F0F92F96E9BB279395A0
:100E8000F695879577956795B795F111F8CFFAF4B0
:100E9000BB0F11F460FF1BC06F5F7F4F8F4F9F4FE1
:100EA00016C0882311F096E911C0772321F09EE83F
:100EB000872F762F05C0662371F096E8862F70E0A5
:100EC00060E02AF09A95660F771F881FDAF7880F7F
:100ED0009695879597F9089597F99F6780E870E050
:100EE00060E008959FEF80EC089500240A941616A0
:100EF000170618060906089500240A941216130608
:100F0000140605060895092E0394000C11F4882395
:100F100052F0BB0F40F4BF2B11F460FF04C06F5FB1
:100F20007F4F8F4F9F4F089557FD9058440F551F87
:100F300059F05F3F71F04795880F97FB991F61F05B
:100F40009F3F79F087950895121613061406551FD2
:100F5000F2CF4695F1DF08C0161617061806991F3E
:100F6000F1CF86957105610508940895E894BB2733
:100F700066277727CB0197F908950BD0C4CFB5DF4B
:100F800028F0BADF18F0952309F0A6CFABCF1124D3
:100F9000EECFCADFA0F3959FD1F3950F50E0551F18
:100FA000629FF001729FBB27F00DB11D639FAA27BE
:100FB000F00DB11DAA1F649F6627B00DA11D661F0D
:100FC000829F2227B00DA11D621F739FB00DA11D2E
:100FD000621F839FA00D611D221F749F3327A00DE8
:100FE000611D231F849F600D211D822F762F6A2F84
:100FF00011249F5750408AF0E1F088234AF0EE0F09
:10100000FF1FBB1F661F771F881F91505040A9F715
:101010009E3F510570F060CFAACF5F3FECF3983E42
:10102000DCF3869577956795B795F795E7959F5F7C
:10103000C1F7FE2B880F911D9695879597F9089516
:10104000CF93DF93CDB7DEB7FE01369661917191F4
:10105000AF018091890290918A0230D0DF91CF91C7
:1010600008950F931F93CF93DF93E0918902F0913E
:101070008A02238121FF1BC0EC0100E010E089916E
:101080006091890270918A02DB011896ED91FC91C2
:101090001997882331F01995892B89F30FEF1FEFEA
:1010A000EECF8AE01995892B11F4C80102C08FEFA9
:1010B0009FEFDF91CF911F910F9108952F923F9253
:1010C0004F925F926F927F928F929F92AF92BF9258
:1010D000CF92DF92EF92FF920F931F93CF93DF9304
:1010E000CDB7DEB72C970FB6F894DEBF0FBECDBFDD
:1010F0007C016B018A01FC0117821682838181FFCA
:10110000B0C1CE0101964C01F7019381F60193FD28
:10111000859193FF81916F01882309F49EC18532E7
:1011200039F493FD859193FF81916F01853221F40C
:10113000B70190E0C7D1E8CF512C312C20E020320C
:10114000A0F48B3269F030F4803259F0833269F4C4
:1011500020612CC08D3239F0803339F4216026C0F3
:101160002260246023C0286021C027FD27C030ED05
:10117000380F3A3078F426FF06C0FAE05F9E300D53
:101180001124532E13C08AE0389E300D1124332EC3
:1011900020620CC08E3221F426FD5FC1206406C09F
:1011A0008C3611F4206802C0883641F4F60193FDB4
:1011B000859193FF81916F018111C1CF982F9F7D00
:1011C0009554933028F40C5F1F4FFFE3F9830DC053
:1011D000833631F0833771F0833509F057C021C071
:1011E000F801808189830E5F1F4F44244394512C62
:1011F000540114C03801F2E06F0E711CF801A08098
:10120000B18026FF03C0652D70E002C06FEF7FEF55
:10121000C5012C874CD12C0183012C852F77222EE0
:1012200016C03801F2E06F0E711CF801A080B18089
:1012300026FF03C0652D70E002C06FEF7FEFC50190
:101240002C872AD12C012C852068222E830123FC97
:1012500019C0832D90E048165906A0F4B70180E22A
:1012600090E030D13A94F5CFF50127FC859127FE27
:1012700081915F01B70190E025D131103A94F1E0FE
:101280004F1A51084114510479F7DEC0843611F029
:10129000893631F5F80127FF07C0608171818281AD
:1012A00093810C5F1F4F08C060817181882777FD93
:1012B0008095982F0E5F1F4F2F76B22E97FF09C093
:1012C00090958095709561957F4F8F4F9F4F2068C7
:1012D000B22E2AE030E0A40127D1A82EA81843C0DE
:1012E000853729F42F7EB22E2AE030E025C0F22F78
:1012F000F97FBF2E8F36C1F018F4883579F0ADC074
:10130000803719F0883721F0A8C02F2F2061B22E26
:10131000B4FE0DC08B2D8460B82E09C024FF0AC016
:101320009F2F9660B92E06C028E030E005C020E16E
:1013300030E002C020E132E0F801B7FE07C0608172
:101340007181828193810C5F1F4F06C06081718122
:1013500080E090E00E5F1F4FA401E6D0A82EA818F1
:10136000FB2DFF77BF2EB6FE0BC02B2D2E7FA514B5
:1013700050F4B4FE0AC0B2FC08C02B2D2E7E05C06E
:101380007A2C2B2D03C07A2C01C0752C24FF0DC0A4
:10139000FE01EA0DF11D8081803311F4297E09C020
:1013A00022FF06C07394739404C0822F867809F0DC
:1013B000739423FD12C020FF06C05A2C731418F436
:1013C000530C5718732C731460F4B70180E290E04B
:1013D0002C8778D073942C85F6CF731410F43718BB
:1013E00001C0312C24FF11C0B70180E390E02C87AD
:1013F00069D02C8522FF16C021FF03C088E590E04C
:1014000002C088E790E0B7010CC0822F867851F0C7
:1014100021FD02C080E201C08BE227FD8DE2B70111
:1014200090E050D0A51430F4B70180E390E04AD0AA
:101430005A94F8CFAA94F401EA0DF11D8081B70106
:1014400090E040D0A110F6CF332009F45DCEB70173
:1014500080E290E037D03A94F7CFF7018681978108
:1014600002C08FEF9FEF2C960FB6F894DEBF0FBE31
:10147000CDBFDF91CF911F910F91FF90EF90DF9043
:10148000CF90BF90AF909F908F907F906F905F9024
:101490004F903F902F900895FC010590615070404F
:1014A0000110D8F7809590958E0F9F1F0895FC012D
:1014B0006150704001900110D8F7809590958E0F83
:1014C0009F1F08950F931F93CF93DF93182F092F1A
:1014D000EB018B8181FD03C08FEF9FEF20C082FF66
:1014E00010C04E815F812C813D81421753077CF4EF
:1014F000E881F9819F012F5F3F4F39832883108353
:1015000006C0E885F985812F1995892B29F72E8149
:101510003F812F5F3F4F3F832E83812F902FDF919D
:10152000CF911F910F910895FA01AA27283051F108
:10153000203181F1E8946F936E7F6E5F7F4F8F4F04
:101540009F4FAF4FB1E03ED0B4E03CD0670F781F63
:10155000891F9A1FA11D680F791F8A1F911DA11D48
:101560006A0F711D811D911DA11D20D009F4689481
:101570003F912AE0269F11243019305D3193DEF629
:10158000CF010895462F4770405D4193B3E00FD0DF
:10159000C9F7F6CF462F4F70405D4A3318F0495DCA
:1015A00031FD4052419302D0A9F7EACFB4E0A695AD
:1015B0009795879577956795BA95C9F700976105CF
:1015C000710508959B01AC010A2E06945795479525
:1015D00037952795BA95C9F7620F731F841F951F1A
:0815E000A01D0895F894FFCF4F
:1015E8000000000200000000220300000000CDCC33
:1015F800CC3E0000F040F8494E5055542052454327
:1016080045495645442025640A004B50205550440E
:101618004154452052454345495645442025640ACE
:10162800004B4920555044415445205245434549B3
:101638005645442025640A004E6F646520322073A5
:101648006574757020636F6D706C657465640000F7
:00000001FF
