S00E00006E6F646520322E737265631E
S1130000C2C00000DFC00000DDC00000DBC0000093
S1130010D9C00000D7C0000035C10000D3C0000023
S1130020D1C00000CFC00000CDC00000CBC0000094
S1130030C9C00000C7C00000C5C00000C3C00000A4
S1130040C1C00000BFC00000BDC00000BBC00000B4
S1130050B9C00000B7C00000B5C00000B3C00000C4
S1130060B1C00000AFC00000ADC00000ABC00000D4
S1130070A9C00000A7C00000A5C00000A3C00000E4
S113008055C300009FC000009DC000009BC000003D
S113009099C0000097C0000095C000009AC30000FA
S11300A091C000008FC000008DC000008BC0000014
S11300B089C0000087C0000085C0000083C0000024
S11300C081C000007FC000007DC000007BC0000034
S11300D079C0000077C0000075C0000073C0000044
S11300E071C0000004045604560456045604560411
S11300F0560456040404560456045604560456047E
S1130100560456040604560456045604560456046B
S1130110560456045604560456045604560456040B
S1130120560456040604560456045604560456044B
S113013056045604560456045604560456045604EB
S113014056045604520456045604560456045604DF
S1130150560456042F0456045604560456045604F2
S113016056045604560456045604560456045604BB
S113017056045604230456045604560456045604DE
S113018056045604410411241FBECFEFD1E2DEBF52
S1130190CDBF00E00CBF12E0A0E0B2E0ECECFCE06C
S11301A000E00BBF02C007900D92AE32B107D9F741
S11301B022E0AEE2B2E001C01D92A934B207E1F739
S11301C059D182C51DCFCF93C82FCFD04FEF60E652
S11301D080E6CED041E061E08BE2CAD0CC2319F0B6
S11301E0C13031F009C040E460EE8FE0C1D004C0FA
S11301F040E060EE8FE0BCD0EAE6F0E08081886009
S11302008083ED9ACF910895EF92FF920F931F93FD
S1130210CF93DF937C01FC01808191819595879533
S1130220959587959595879561E36BD0F7018081C6
S113023062E38295880F807E64D065E3F701828152
S113024060D0F70182811816A4F487010D5F1F4F57
S1130250C0E0D0E06C2F6A5CF80181918F0151D02D
S11302602196F7012281332727FD3095C217D30742
S11302708CF380E059D0DF91CF911F910F91FF90C3
S1130280EF9008951F920F920FB60F9211248F933F
S11302909F9381E090E090932F0280932E029F9190
S11302A08F910F900FBE0F901F901895CF93DF93EF
S11302B0CDB7DEB72B970FB6F894DEBF0FBECDBF18
S11302C014165CF4FE0134969F01240F311D47FD82
S11302D03A951192E217F307E1F77A8369834B8326
S11302E02BE0FE013196DC0101900D922A95E1F795
S11302F02B960FB6F894DEBF0FBECDBFDF91CF9122
S11303000895CF93DF93C82FD62F81E090E05ED07D
S113031082E055D08D2F53D08C2F51D080E090E0C7
S113032055D0DF91CF910895CF93882331F0813058
S113033031F0823031F0C0E805C0C1E803C0C2E842
S113034001C0C4E881E090E041D08C2F38D080E037
S113035090E03CD0CF91089581E090E037D080ECDC
S11303602ED080E090E032C008951AD0F5CF0895E1
S11303701F93CF93DF93182FD62FC42F81E090E0E3
S113038025D085E01CD0812F1AD08D2F18D08C2F2A
S113039016D080E090E01AD0DF91CF911F9108959C
S11303A0229A219A279A209A23988CB580618CBD31
S11303B08CB582608CBD8CB580648CBD08958EBD77
S11303C00DB407FEFDCF80E090E0089581309105E3
S11303D011F42F980895892B09F42F9A0895E0ECCD
S11303E0F0E0908195FFFDCF8093C60008959C01B5
S11303F0442737FD4095542F60E472E48FE090E089
S11304006BD2215031093093C5002093C40088E198
S11304108093C10086E08093C20080E092E09093D4
S11304204602809345020895EAE7F0E080818068FF
S11304308083808183608083ECE7F0E08081806446
S1130440808308959AD18AB183608AB90895CF933D
S1130450DF9300D0CDB7DEB790E599831A828B8302
S113046063E0CE01019693D10F900F900F90DF912E
S1130470CF910895CF93DF93CDB7DEB72B970FB607
S1130480F894DEBF0FBECDBF80E895E2B0DF87E110
S113049092E0EDD381E097DED5DFC6DF5CD07894BF
S11304A080E090E046D014E62FEF81EE94E02150F6
S11304B080409040E1F700C0000041E065E070E05A
S11304C0CE010196F3DE1C83CE0101969DDE8DE103
S11304D092E0CDD3E9CFE2E0F1E080818F7D8083AB
S11304E08AE68A95F1F700C08081877F80839AE647
S11304F09A95F1F700C0209106018081886080837D
S11305008AE68A95F1F700C08091060190819F7B6D
S113051090839AE69A95F1F700C090819064908355
S113052090819062908390E0922B919581959109AE
S113053008959093420280934102089510923D02DF
S113054010923E0210923F02109240021092420218
S11305501092410208958FEF8093010110920701D8
S113056071DFE2E0F1E080818061808380818064DA
S11305708083E4DFC2D066DF089A109A0895992335
S11305804CF4E2E0F1E02081226020839195819592
S1130590910905C0E2E0F1E020812D7F208357CF4F
S11305A008958F929F92AF92BF92CF92DF92EF9273
S11305B0FF9291DF90933C0280933B0260913B0257
S11305C070913C02A0904102B0904202882777FDCE
S11305D08095982F5DD22DEC3CEC4CE45DE3E4D2A5
S11305E06B017C01B501882777FD8095982F50D247
S11305F09B01AC01C701B601B3D117D270933A0283
S1130600609339026091390270913A02C0903D02C0
S1130610D0903E02E0903F02F0904002882777FDA0
S11306208095982F35D22DEC3CEC4CE45DE3BCD2A4
S1130630A701960196D160933D0270933E02809388
S11306403F02909340026091390270913A02809087
S11306503D0290903E02A0903F02B0904002882755
S113066077FD8095982F14D22091120230911302B5
S1130670409114025091150297D26B017C01209194
S11306800E0230910F024091100250911102C501E7
S1130690B4018AD29B01AC01C701B60162D1C5D1B4
S11306A07093380260933702809137029091380238
S11306B08F3F910539F034F08FEF90E0909338023A
S11306C080933702809137029091380281309F4F96
S11306D034F481E09FEF9093380280933702809145
S11306E03702909138024BDFFF90EF90DF90CF906C
S11306F0BF90AF909F908F900895E0E9F0E08081E3
S113070082608083E1E9F0E0808188608083808179
S11307108360808384ED90E39093990080939800A4
S113072082E08093710080E090E008951F920F9220
S11307300FB60F9211240BB60F922F933F934F9342
S11307405F936F937F938F939F93AF93BF93EF9335
S1130750FF9327DFFF91EF91BF91AF919F918F910D
S11307607F916F915F914F913F912F910F900BBEAD
S11307700F900FBE0F901F9018958CE08093B800D7
S11307808FEF8093BB0084E08093BC000895ECEB72
S1130790F0E0208120FDFDCF60933202FC01208136
S11307A02093330220FD0CC0623050F0DC0111961E
S11307B0E4E3F2E081E09D9191938F5F8613FBCF98
S11307C01092310288EF8093160285EA8093BC0070
S11307D008951F920F920FB60F9211240BB60F9229
S11307E02F933F938F939F93AF93BF93EF93FF9375
S11307F08091B90090E0FC013897E135F10508F0EB
S113080055C0EE58FF4F84C010923002E091300280
S113081080913202E81770F481E08E0F80933002E9
S1130820F0E0ED5CFD4F80818093BB0085E8809310
S1130830BC0043C08091310281608093310284E91D
S11308408093BC003AC0E091300281E08E0F809327
S113085030028091BB00F0E0ED5CFD4F808320917D
S1130860300230E08091320290E001972817390776
S113087024F485EC8093BC0020C085E88093BC0000
S11308801CC08091BB00E0913002F0E0ED5CFD4FB4
S113089080838091310281608093310284E9809366
S11308A0BC000BC085EA8093BC0007C08091B900EE
S11308B08093160284E08093BC00FF91EF91BF9176
S11308C0AF919F918F913F912F910F900BBE0F90FD
S11308D00FBE0F901F901895052E97FB16F40094E9
S11308E00FD057FD05D01AD007FC02D046F408C03B
S11308F050954095309521953F4F4F4F5F4F089548
S113090090958095709561957F4F8F4F9F4F089577
S1130910EE0FFF1F0590F491E02D1994A1E21A2E19
S1130920AA1BBB1BFD010DC0AA1FBB1FEE1FFF1F8F
S1130930A217B307E407F50720F0A21BB30BE40BDF
S1130940F50B661F771F881F991F1A9469F7609526
S11309507095809590959B01AC01BD01CF010895E0
S11309605058BB27AA270ED0E5C0D6D030F0DBD034
S113097020F031F49F3F11F41EF4CBC00EF4E09547
S1130980E7FBC1C0E92FE7D080F3BA17620773070A
S11309908407950718F071F49EF5FFC00EF4E095F6
S11309A00B2EBA2FA02D0B01B90190010C01CA0125
S11309B0A0011124FF27591B99F0593F50F4503ED0
S11309C068F11A16F040A22F232F342F4427585FC2
S11309D0F3CF469537952795A795F0405395C9F7DA
S11309E07EF41F16BA0B620B730B840BBAF0915092
S11309F0A1F0FF0FBB1F661F771F881FC2F70EC031
S1130A00BA0F621F731F841F48F487957795679503
S1130A10B795F7959E3F08F0B3CF9395880F08F0EC
S1130A209927EE0F97958795089504D06894B1118E
S1130A30B5C0089598D088F09F5790F0B92F9927A2
S1130A40B751A0F0D1F0660F771F881F991F1AF0D5
S1130A50BA95C9F712C0B13081F09FD0B1E00895C2
S1130A609CC0672F782F8827B85F39F0B93FCCF343
S1130A70869577956795B395D9F73EF490958095CB
S1130A80709561957F4F8F4F9F4F0895E89409C0EB
S1130A9097FB3EF490958095709561957F4F8F4FAD
S1130AA09F4F9923A9F0F92F96E9BB279395F695C3
S1130AB0879577956795B795F111F8CFFAF4BB0F41
S1130AC011F460FF1BC06F5F7F4F8F4F9F4F16C0A5
S1130AD0882311F096E911C0772321F09EE8872F2F
S1130AE0762F05C0662371F096E8862F70E060E0EB
S1130AF02AF09A95660F771F881FDAF7880F969564
S1130B00879597F9089597F99F6780E870E060E00A
S1130B1008959FEF80EC089500240A941616170692
S1130B2018060906089500240A94121613061406DA
S1130B3005060895092E0394000C11F4882352F03D
S1130B40BB0F40F4BF2B11F460FF04C06F5F7F4FF5
S1130B508F4F9F4F089557FD9058440F551F59F0DC
S1130B605F3F71F04795880F97FB991F61F09F3F96
S1130B7079F087950895121613061406551FF2CFBF
S1130B804695F1DF08C0161617061806991FF1CF0F
S1130B9086957105610508940895E894BB27662736
S1130BA07727CB0197F908950BD0C4CFB5DF28F090
S1130BB0BADF18F0952309F0A6CFABCF1124EECFFE
S1130BC0CADFA0F3959FD1F3950F50E0551F629FA4
S1130BD0F001729FBB27F00DB11D639FAA27F00D92
S1130BE0B11DAA1F649F6627B00DA11D661F829FB9
S1130BF02227B00DA11D621F739FB00DA11D621F9E
S1130C00839FA00D611D221F749F3327A00D611DBA
S1130C10231F849F600D211D822F762F6A2F11249C
S1130C209F5750408AF0E1F088234AF0EE0FFF1FEF
S1130C30BB1F661F771F881F91505040A9F79E3F26
S1130C40510570F060CFAACF5F3FECF3983EDCF320
S1130C50869577956795B795F795E7959F5FC1F763
S1130C60FE2B880F911D9695879597F908950F93FC
S1130C701F93CF93DF93E0914502F09146022381C5
S1130C8021FF1BC0EC0100E010E089916091450256
S1130C9070914602DB011896ED91FC911997882317
S1130CA031F01995892B89F30FEF1FEFEECF8AE00E
S1130CB01995892B11F4C80102C08FEF9FEFDF91C2
S10F0CC0CF911F910F910895F894FFCF7D
S1130CCC0000000200000000EF0100000000CDCC89
S1130CDCCC3E0000F040F873746172740053454EBE
S1110CEC44494E47204D4553534147450000AF
S9030000FC
